:100000000C942A000C943F000C943F000C943F0089
:100010000C943F000C943F000C943F000C943F0064
:100020000C943F000C943F000C943F000C943F0054
:100030000C943F000C943F000C943F000C943F0044
:100040000C943F000C943F000C943F000C943F0034
:100050000C943F0011241FBECFE5D8E0DEBFCDBF1A
:1000600010E0A0E6B0E0E4E6F1E302C005900D92F6
:10007000A838B107D9F70E94940D0C94B0180C94CD
:100080000000EF92FF920F931F937B018C0120E001
:1000900030E040E05FE40E94410388238CF0C80117
:1000A000B70120E030E040E05FE40E94B9010E9427
:1000B000A1039B01AC01205030404040504806C095
:1000C000C801B7010E94A1039B01AC01B901CA019B
:1000D0001F910F91FF90EF900895A0E0B0E0E3E74B
:1000E000F0E00C947918DC012B01FA019C9192301C
:1000F00008F439C1EB018881823008F433C19430AF
:1001000069F4843009F02FC111969C91119789816F
:10011000981709F428C1ACE6B0E025C1843009F491
:1001200021C18230A9F4923009F01DC19A01AD01BC
:1001300088E0EA010990AE01E90109929E0181502F
:10014000C1F7E201898111969C918923818308C1BD
:10015000923009F407C112962D903C901397EB0151
:100160008A819B811496AD90BD90CD90DC901797BD
:10017000EC80FD800E811F819101281B390BB90194
:1001800037FF04C066277727621B730B6032710547
:100190000CF061C0121613066CF537014801062EEB
:1001A00004C096948794779467940A94D2F721E0D8
:1001B00030E040E050E004C0220F331F441F551FC1
:1001C0006A95D2F721503040404050402E213F21C7
:1001D00040235123211531054105510521F021E02E
:1001E00030E040E050E079018A01E628F72808294C
:1001F00019293CC0232BD1F1260E371E35014601AB
:10020000062E04C096948794779467940A94D2F744
:1002100021E030E040E050E004C0220F331F441FD3
:10022000551F6A95D2F721503040404050402A2156
:100230003B214C215D21211531054105510521F05E
:1002400021E030E040E050E059016A01A628B728DB
:10025000C828D9280BC0821593052CF01C01AA24AC
:10026000BB24650103C0EE24FF24870111969C91F5
:10027000D20111968C91981709F445C0992339F051
:10028000A80197012A193B094C095D0906C0A6017E
:1002900095012E193F09400B510B57FD08C01182E3
:1002A0003382228224833583468357831DC081E0B5
:1002B00081833382228288279927DC01821B930B5A
:1002C000A40BB50B84839583A683B7830DC0220F3F
:1002D000331F441F551F24833583468357838281F0
:1002E000938101979383828324813581468157814D
:1002F000DA01C9010197A109B1098F5F9F4FAF4F83
:10030000BF4328F30BC0918333822282EA0CFB1C8B
:100310000C1D1D1DE482F5820683178383E0808314
:10032000248135814681578157FF1AC0C901AA2708
:1003300097FDA095BA2F81709070A070B0705695FF
:10034000479537952795822B932BA42BB52B848328
:100350009583A683B7838281938101969383828359
:10036000DF0101C0D201CD01CDB7DEB7E2E10C94CF
:100370009518A0E2B0E0EFEBF1E00C9485186983EA
:100380007A838B839C832D833E834F835887E9E058
:10039000EE2EF12CEC0EFD1ECE010196B7010E944F
:1003A000CA048E010F5E1F4FCE010596B8010E9450
:1003B000CA048A8991E089278A8BC701B801AE01F6
:1003C000475E5F4F0E946D000E94F503A096E6E035
:1003D0000C94A118A0E2B0E0E0EFF1E00C948518D5
:1003E00069837A838B839C832D833E834F835887D5
:1003F000F9E0EF2EF12CEC0EFD1ECE010196B701B7
:100400000E94CA048E010F5E1F4FCE010596B801EF
:100410000E94CA04C701B801AE01475E5F4F0E9447
:100420006D000E94F503A096E6E00C94A118A0E2EE
:10043000B0E0EDE1F2E00C94791869837A838B8364
:100440009C832D833E834F835887CE010196BE0146
:10045000675F7F4F0E94CA04CE010596BE016F5EA2
:100460007F4F0E94CA049985923088F08989823032
:10047000C8F0943019F4823051F404C0843029F467
:10048000923081F48CE690E0C6C0923049F420E0CE
:100490009A858A89981321E02A87CE010996BBC0E4
:1004A000823049F420E09A858A89981321E02A8BCA
:1004B000CE014196B0C02D843E844F8458886D880B
:1004C0007E888F88988CEE24FF248701AA24BB2481
:1004D000650140E050E060E070E0E0E0F0E0C10184
:1004E00081709070892BE9F0E60CF71C081D191D2E
:1004F0009A01AB012A0D3B1D4C1D5D1D80E090E073
:10050000A0E0B0E0E614F7040805190520F481E046
:1005100090E0A0E0B0E0BA01A901480F591F6A1F9E
:100520007B1FAA0CBB1CCC1CDD1C97FE08C081E005
:1005300090E0A0E0B0E0A82AB92ACA2ADB2A3196C6
:10054000E032F10549F0660C771C881C991C569422
:10055000479437942794C3CFFA85EA892B893C893D
:100560008B859C85280F391F2E5F3F4F17C0CA010E
:1005700081709070892B61F016950795F794E79438
:1005800080E090E0A0E0B0E8E82AF92A0A2B1B2BD3
:1005900076956795579547952F5F3F4F77FDE7CF46
:1005A0000CC0440F551F661F771F17FD4160EE0CEE
:1005B000FF1C001F111F21503040403090E05907B0
:1005C00090E0690790E4790760F32B8F3C8FDB01A3
:1005D000CA018F779070A070B07080349105A1052A
:1005E000B10561F447FD0AC0E114F10401051105EC
:1005F00029F0405C5F4F6F4F7F4F40781A8EFE1797
:1006000011F081E08A8F4D8F5E8F6F8F78A383E02A
:10061000898FCE0149960E94F503A096E2E10C94E1
:100620009518A8E1B0E0E7E1F3E00C948518698340
:100630007A838B839C832D833E834F83588789E005
:10064000E82EF12CEC0EFD1ECE010196B7010E94A2
:10065000CA048E010F5E1F4FCE010596B8010E949D
:10066000CA048985823040F08989823028F0C70128
:10067000B8010E94420501C08FEF6896E6E00C9435
:10068000A118A8E1B0E0E7E4F3E00C9485186983D1
:100690007A838B839C832D833E834F83588789E0A5
:1006A000E82EF12CEC0EFD1ECE010196B7010E9442
:1006B000CA048E010F5E1F4FCE010596B8010E943D
:1006C000CA048985823040F08989823028F0C701C8
:1006D000B8010E94420501C08FEF6896E6E00C94D5
:1006E000A118A8E1B0E0E7E7F3E00C94851869836E
:1006F0007A838B839C832D833E834F83588789E045
:10070000E82EF12CEC0EFD1ECE010196B7010E94E1
:10071000CA048E010F5E1F4FCE010596B8010E94DC
:10072000CA048985823040F08989823028F0C70167
:10073000B8010E94420501C081E06896E6E00C9491
:10074000A118ACE0B0E0E7EAF3E00C948918698303
:100750007A838B839C83CE010196BE016B5F7F4FB2
:100760000E94CA048D81823061F1823050F1843060
:1007700021F48E81882351F12EC02F81388537FDD9
:1007800020C06E812F3131051CF06623F9F023C0A3
:100790008EE190E0821B930B29853A854B855C8521
:1007A00004C056954795379527958A95D2F76623C5
:1007B000B1F050954095309521953F4F4F4F5F4F89
:1007C0000EC020E030E040E050E009C02FEF3FEFE6
:1007D0004FEF5FE704C020E030E040E050E8B901AF
:1007E000CA012C96E2E00C94A518DF92EF92FF92DA
:1007F0000F931F93FC01E480F58006811781D1805F
:100800008081823048F480E090E0A0E1B0E0E82A06
:10081000F92A0A2B1B2BA5C0843009F49FC0823013
:1008200021F4EE24FF24870105C0E114F104010541
:10083000110519F4E0E0F0E096C0628173819FEF4A
:10084000623879070CF05BC022E83FEF261B370BBC
:100850002A3131052CF020E030E040E050E02AC0A1
:10086000B801A701022E04C0769567955795479564
:100870000A94D2F781E090E0A0E0B0E004C0880FD5
:10088000991FAA1FBB1F2A95D2F70197A109B10989
:100890008E219F21A023B1230097A105B10521F04E
:1008A00081E090E0A0E0B0E09A01AB01282B392B69
:1008B0004A2B5B2BDA01C9018F779070A070B07062
:1008C00080349105A105B10539F427FF09C0205CEA
:1008D0003F4F4F4F5F4F04C0215C3F4F4F4F5F4F23
:1008E000E0E0F0E02030A0E03A07A0E04A07A0E412
:1008F0005A0710F0E1E0F0E079018A0127C0603882
:10090000710564F5FB01E158FF4FD801C7018F77EE
:100910009070A070B07080349105A105B10539F4D4
:10092000E7FE0DC080E490E0A0E0B0E004C08FE3FB
:1009300090E0A0E0B0E0E80EF91E0A1F1B1F17FFB1
:1009400005C016950795F794E794319687E01695BC
:100950000795F794E7948A95D1F705C0EE24FF2414
:100960008701EFEFF0E06E2F679566276795902F70
:100970009F77D794DD24D7948E2F8695492F462BC9
:10098000582F5D29B701CA011F910F91FF90EF9079
:10099000DF900895FC01DB01408151812281622FAB
:1009A0006F7770E0221F2227221F9381892F880FE3
:1009B000822B282F30E0991F9927991F11969C931D
:1009C000119721153105A9F54115510561057105ED
:1009D00011F482E037C082E89FEF13969C938E93C8
:1009E00012979A01AB0167E0220F331F441F551F76
:1009F0006A95D1F783E08C930DC0220F331F441FFB
:100A0000551F12968D919C911397019713969C9365
:100A10008E931297203080E0380780E0480780E40A
:100A2000580758F314962D933D934D935C93179765
:100A300008952F3F310579F4411551056105710580
:100A400019F484E08C93089564FF03C081E08C93D3
:100A500012C01C9210C02F57304013963C932E9317
:100A6000129783E08C9387E0440F551F661F771F12
:100A70008A95D1F7706414964D935D936D937C9332
:100A8000179708951F93DC01FB019C91923008F4A5
:100A900047C08081823008F443C0943051F41196ED
:100AA0001C91843099F58181682F70E0611B710978
:100AB0003FC0843021F0923031F48230B9F181812D
:100AC000882389F12DC011961C9111978230F1F085
:100AD00081811817D9F412962D913C911397828138
:100AE00093818217930794F028173907BCF0149666
:100AF0008D919D910D90BC91A02D248135814681D1
:100B00005781281739074A075B0718F4112341F06A
:100B10000AC082179307A407B50740F4112319F000
:100B200061E070E005C06FEF7FEF02C060E070E051
:100B3000CB011F910895DF93CF9300D000D00F9287
:100B4000CDB7DEB79A838983E981FA818281282F24
:100B500030E03C832B838B819C810097D1F02B81EB
:100B60003C8121303105F9F4E981FA818081E98104
:100B7000FA819181692F40E00E94F609E981FA81AA
:100B80008081E981FA819181692F41E00E94510BB6
:100B90000AC0E981FA818081E981FA819181692F16
:100BA00040E00E94F6090F900F900F900F900F9069
:100BB000CF91DF910895DF93CF93CDB7DEB727971D
:100BC0000FB6F894DEBF0FBECDBF9B838A83EA8148
:100BD000FB818281282F30E03E832D838D819E8191
:100BE0000097C9F02D813E812130310521F5EA8140
:100BF000FB818081EA81FB819181692F9E012F5FBA
:100C00003F4FA9010E94AC0C89811C828823A1F46A
:100C100031E03C8311C0EA81FB818081EA81FB8164
:100C20009181692F9E012F5F3F4FA9010E94AC0C5B
:100C300089818C8301C002C09C819F838F8127960C
:100C40000FB6F894DEBF0FBECDBFCF91DF910895F0
:100C5000DF93CF9300D000D000D0CDB7DEB789832B
:100C60007B836A83EA81FB8181816FEF0E94080B9D
:100C7000EA81FB8181818D83EA81FB8180818823E8
:100C800049F08981882F90E0FC01EC58FF4F90815A
:100C90009C830AC08981882F90E0FC01EC58FF4FAB
:100CA0008081982F90959C838D816C810E94630C2C
:100CB000EA81FB818281EA81FB819381692F41E096
:100CC0000E94F60926960FB6F894DEBF0FBECDBF80
:100CD000CF91DF910895DF93CF9300D000D00F9292
:100CE000CDB7DEB79A838983E981FA818081282F85
:100CF00030E03C832B838B819C81009731F02B81EA
:100D00003C812130310561F015C0E981FA81828191
:100D1000E981FA819381692F41E00E94510B0AC059
:100D2000E981FA818281E981FA819381692F40E02A
:100D30000E94510B0F900F900F900F900F90CF913A
:100D4000DF910895DF93CF9300D000D00F92CDB7FD
:100D5000DEB79A838983E981FA818081282F30E088
:100D60003C832B838B819C81009731F02B813C81CC
:100D70002130310561F015C0E981FA818281E98174
:100D8000FA819381692F40E00E94510B0AC0E981EA
:100D9000FA818281E981FA819381692F41E00E9481
:100DA000510B0F900F900F900F900F90CF91DF91FC
:100DB0000895DF93CF9300D00F92CDB7DEB79A831B
:100DC0008983E981FA818081E981FA819181692FA2
:100DD00041E00E94F609E981FA818081E981FA8186
:100DE0009181692F41E00E94510B0F900F900F905D
:100DF000CF91DF910895DF93CF9300D00F92CDB7BD
:100E0000DEB79A838983E981FA818081E981FA8159
:100E10009181692F41E00E94F609E981FA81808180
:100E2000E981FA819181692F40E00E94510B0F9076
:100E30000F900F90CF91DF910895DF93CF93CDB7AF
:100E4000DEB72F970FB6F894DEBF0FBECDBF8F87EA
:100E500082E060E040E00E94510B82E061E040E00F
:100E60000E94510B81E06F850E94630C82E062E07A
:100E700041E00E94510B80E090E0A0E0B0E48B875D
:100E80009C87AD87BE876B857C858D859E8520E0A0
:100E900030E04AEF54E40E941702DC01CB018F835B
:100EA0009887A987BA876F81788589859A8520E098
:100EB00030E040E85FE30E94710388232CF481E076
:100EC00090E09E838D833FC06F81788589859A8568
:100ED00020E03FEF4FE757E40E94110318164CF54E
:100EE0006B857C858D859E8520E030E040E251E475
:100EF0000E941702DC01CB01BC01CD010E94410020
:100F0000DC01CB019E838D830FC088EC90E09C8335
:100F10008B838B819C810197F1F79C838B838D81DF
:100F20009E8101979E838D838D819E81009769F7B5
:100F300014C06F81788589859A850E944100DC0103
:100F4000CB019E838D838D819E819A838983898144
:100F50009A810197F1F79A83898382E062E040E009
:100F60000E94510B2F960FB6F894DEBF0FBECDBF77
:100F7000CF91DF910895DF93CF93CDB7DEB72F9751
:100F80000FB6F894DEBF0FBECDBF8F8782E060E062
:100F900041E00E94510B82E061E040E00E94510B71
:100FA00081E06F850E94630C82E062E041E00E9474
:100FB000510B80E090E0A0E0B0E48B879C87AD8788
:100FC000BE876B857C858D859E8520E030E04AEF6D
:100FD00054E40E941702DC01CB018F839887A98714
:100FE000BA876F81788589859A8520E030E040E86E
:100FF0005FE30E94710388232CF481E090E09E83DC
:101000008D833FC06F81788589859A8520E03FEF89
:101010004FE757E40E94110318164CF56B857C8549
:101020008D859E8520E030E040E251E40E94170269
:10103000DC01CB01BC01CD010E944100DC01CB01F0
:101040009E838D830FC088EC90E09C838B838B8183
:101050009C810197F1F79C838B838D819E81019701
:101060009E838D838D819E81009769F714C06F8167
:10107000788589859A850E944100DC01CB019E8399
:101080008D838D819E819A83898389819A8101973D
:10109000F1F79A83898382E062E040E00E94510B7D
:1010A0002F960FB6F894DEBF0FBECDBFCF91DF9164
:1010B0000895DF93CF93CDB7DEB72E970FB6F89490
:1010C000DEBF0FBECDBF80E090E0A0EFB1E48B8724
:1010D0009C87AD87BE876B857C858D859E8520E04E
:1010E00030E04AEF54E40E941702DC01CB018F8309
:1010F0009887A987BA876F81788589859A8520E046
:1011000030E040E85FE30E94710388232CF481E023
:1011100090E09E838D833FC06F81788589859A8515
:1011200020E03FEF4FE757E40E94110318164CF5FB
:101130006B857C858D859E8520E030E040E251E422
:101140000E941702DC01CB01BC01CD010E944100CD
:10115000DC01CB019E838D830FC088EC90E09C83E3
:101160008B838B819C810197F1F79C838B838D818D
:101170009E8101979E838D838D819E81009769F763
:1011800014C06F81788589859A850E944100DC01B1
:10119000CB019E838D838D819E819A8389838981F2
:1011A0009A810197F1F79A83898388E30E941D074A
:1011B0008CE00E941D0781E00E941D072E960FB64D
:1011C000F894DEBF0FBECDBFCF91DF910895DF93BE
:1011D000CF9300D00F92CDB7DEB79B838A8319825D
:1011E0000EC08981282F30E08A819B81FC01E20FAB
:1011F000F31F80810E94BB0789818F5F898389816A
:10120000282F30E08A819B81FC01E20FF31F80814F
:10121000882339F70F900F900F90CF91DF910895A9
:10122000DF93CF9300D00F92CDB7DEB78A836B8365
:101230008A81882319F48B81898306C08A81813051
:1012400019F48B81805C8983898180680E941D07E5
:101250000F900F900F90CF91DF910895DF93CF9370
:10126000CDB7DEB727970FB6F894DEBF0FBECDBF60
:101270009C838B836D834E832F838D81882F90E099
:10128000880F991F880F991F880F991F8A838A8159
:10129000805C0E941D0719820EC08981282F30E0D2
:1012A0008B819C81FC01E20FF31F80810E94BB07B0
:1012B00089818F5F89838981883078F38E816F81FE
:1012C0000E9410098D810E94BB0727960FB6F894E3
:1012D000DEBF0FBECDBFCF91DF910895DF93CF93D7
:1012E000CDB7DEB763970FB6F894DEBF0FBECDBFA4
:1012F000688B798B8A8B9B8B198288899989AA89BB
:10130000BB898B839C83AD83BE8315C089818F5F2E
:1013100089838B819C81AD81BE812AE030E040E0F1
:1013200050E0BC01CD010E944318DA01C9018B8352
:101330009C83AD83BE838B819C81AD81BE810097F0
:10134000A105B10519F71F8237C088899989AA8933
:10135000BB892AE030E040E050E0BC01CD010E94B2
:101360004318DC01CB018A8388899989AA89BB89C2
:101370002AE030E040E050E0BC01CD010E9443187B
:10138000DA01C901888B998BAA8BBB8B8981282FA5
:1013900030E08F81882F90E080959095280F391F3D
:1013A0008A81482F405DCE010896FC01E20FF31FB1
:1013B00040838F818F5F8F839F818981981728F267
:1013C0008981282F30E0CE010896FC01E20FF31F3F
:1013D0001082CE0108960E94E70863960FB6F89433
:1013E000DEBF0FBECDBFCF91DF910895DF93CF93C6
:1013F000CDB7DEB728970FB6F894DEBF0FBECDBFCE
:101400008A836B834C8319828B81883010F081E052
:1014100089838C81882309F078C08A81282F30E065
:1014200038872F838F8198858230910561F12F81D4
:1014300038852330310534F48F81988581309105CA
:1014400069F060C02F8138852330310589F18F81A3
:1014500098858430910509F440C054C0AAE3B0E0F7
:10146000EAE3F0E08081482F8B81282F30E081E093
:1014700090E0022E02C0880F991F0A94E2F780952F
:1014800084238C93BBC0A7E3B0E0E7E3F0E0808166
:10149000482F8B81282F30E081E090E0022E02C09F
:1014A000880F991F0A94E2F7809584238C93A6C035
:1014B000A4E3B0E0E4E3F0E08081482F8B81282FA3
:1014C00030E081E090E0022E02C0880F991F0A945C
:1014D000E2F7809584238C9391C0A1E3B0E0E1E32F
:1014E000F0E08081482F8B81282F30E081E090E070
:1014F000022E02C0880F991F0A94E2F78095842378
:101500008C937CC081E0898379C08C81813009F023
:1015100073C08A81282F30E03E832D838D819E8188
:101520008230910551F12D813E812330310534F413
:101530008D819E818130910561F05BC02D813E815E
:101540002330310571F18D819E8184309105E9F15F
:1015500050C0AAE3B0E0EAE3F0E08081482F8B813D
:10156000282F30E081E090E0022E02C0880F991F02
:101570000A94E2F7842B8C9341C0A7E3B0E0E7E341
:10158000F0E08081482F8B81282F30E081E090E0CF
:10159000022E02C0880F991F0A94E2F7842B8C93C5
:1015A0002DC0A4E3B0E0E4E3F0E08081482F8B811C
:1015B000282F30E081E090E0022E02C0880F991FB2
:1015C0000A94E2F7842B8C9319C0A1E3B0E0E1E325
:1015D000F0E08081482F8B81282F30E081E090E07F
:1015E000022E02C0880F991F0A94E2F7842B8C9375
:1015F00005C081E0898302C081E0898389812896C2
:101600000FB6F894DEBF0FBECDBFCF91DF91089526
:10161000DF93CF9300D000D00F92CDB7DEB78A838F
:101620006B8319828A81282F30E03D832C838C8143
:101630009D8182309105D9F02C813D812330310587
:1016400034F48C819D818130910561F01FC02C8123
:101650003D812330310581F08C819D81843091055D
:1016600081F014C0EAE3F0E08B81808311C0E7E3EE
:10167000F0E08B8180830CC0E4E3F0E08B81808319
:1016800007C0E1E3F0E08B81808302C081E08983C1
:1016900089810F900F900F900F900F90CF91DF9155
:1016A0000895DF93CF93CDB7DEB728970FB6F894A0
:1016B000DEBF0FBECDBF8A836B834C8319828B81C3
:1016C000883010F081E089838C81882309F078C00C
:1016D0008A81282F30E038872F838F819885823048
:1016E000910561F12F8138852330310534F48F81E4
:1016F00098858130910569F060C02F81388523304D
:10170000310589F18F8198858430910509F440C0B5
:1017100054C0ABE3B0E0EBE3F0E08081482F8B8175
:10172000282F30E081E090E0022E02C0880F991F40
:101730000A94E2F7809584238C93BBC0A8E3B0E0C1
:10174000E8E3F0E08081482F8B81282F30E081E0B2
:1017500090E0022E02C0880F991F0A94E2F780954C
:1017600084238C93A6C0A5E3B0E0E5E3F0E080819C
:10177000482F8B81282F30E081E090E0022E02C0BC
:10178000880F991F0A94E2F7809584238C9391C067
:10179000A2E3B0E0E2E3F0E08081482F8B81282FC4
:1017A00030E081E090E0022E02C0880F991F0A9479
:1017B000E2F7809584238C937CC081E0898379C093
:1017C0008C81813009F073C08A81282F30E03E83FC
:1017D0002D838D819E818230910551F12D813E8135
:1017E0002330310534F48D819E818130910561F083
:1017F0005BC02D813E812330310571F18D819E8149
:1018000084309105E9F150C0ABE3B0E0EBE3F0E0E8
:101810008081482F8B81282F30E081E090E0022EDC
:1018200002C0880F991F0A94E2F7842B8C9341C061
:10183000A8E3B0E0E8E3F0E08081482F8B81282F17
:1018400030E081E090E0022E02C0880F991F0A94D8
:10185000E2F7842B8C932DC0A5E3B0E0E5E3F0E044
:101860008081482F8B81282F30E081E090E0022E8C
:1018700002C0880F991F0A94E2F7842B8C9319C039
:10188000A2E3B0E0E2E3F0E08081482F8B81282FD3
:1018900030E081E090E0022E02C0880F991F0A9488
:1018A000E2F7842B8C9305C081E0898302C081E03C
:1018B0008983898128960FB6F894DEBF0FBECDBF0D
:1018C000CF91DF910895DF93CF9300D000D00F9296
:1018D000CDB7DEB78A836B8319828A81282F30E0E7
:1018E0003D832C838C819D8182309105D9F02C81A0
:1018F0003D812330310534F48C819D818130910507
:1019000061F01FC02C813D812330310581F08C8135
:101910009D818430910581F014C0EBE3F0E08B8170
:10192000808311C0E8E3F0E08B8180830CC0E5E3A5
:10193000F0E08B81808307C0E2E3F0E08B8180835D
:1019400002C081E0898389810F900F900F900F90E2
:101950000F90CF91DF910895DF93CF93CDB7DEB78E
:1019600027970FB6F894DEBF0FBECDBF8A836B8377
:101970005D834C8319828C819D81009719F08B8146
:10198000883010F081E089838A81282F30E03F83FE
:101990002E834E815F814230510559F18E819F81A6
:1019A0008330910534F42E813F812130310569F077
:1019B0005CC04E815F814330510579F18E819F81FA
:1019C0008430910509F43DC050C0E9E3F0E0808126
:1019D000282F30E08B81882F90E0A90102C0559517
:1019E00047958A95E2F7CA018170EC81FD81808379
:1019F0003EC0E6E3F0E08081282F30E08B81882F25
:101A000090E0A90102C0559547958A95E2F7CA0171
:101A10008170EC81FD8180832AC0E3E3F0E0808166
:101A2000282F30E08B81882F90E0A90102C05595C6
:101A300047958A95E2F7CA018170EC81FD81808328
:101A400016C0E0E3F0E08081282F30E08B81882F02
:101A500090E0A90102C0559547958A95E2F7CA0121
:101A60008170EC81FD81808302C081E0898389815E
:101A700027960FB6F894DEBF0FBECDBFCF91DF9192
:101A80000895DF93CF9300D000D000D0CDB7DEB75C
:101A90008A837C836B8319828A81282F30E03E837E
:101AA0002D838D819E8182309105E9F02D813E81CB
:101AB0002330310534F48D819E818130910561F0B0
:101AC00027C02D813E8123303105A1F08D819E817B
:101AD00084309105B1F01CC0E9E3F0E08081EB8136
:101AE000FC81808317C0E6E3F0E08081EB81FC811C
:101AF000808310C0E3E3F0E08081EB81FC81808390
:101B000009C0E0E3F0E08081EB81FC81808302C0CA
:101B100081E08983898126960FB6F894DEBF0FBED7
:101B2000CDBFCF91DF9108950F931F93DF93CF9394
:101B3000CDB7DEB7C35AD0400FB6F894DEBF0FBEA4
:101B4000CDBF81E06FEF0E94080B82E060E041E0D2
:101B50000E94F60982E061E041E00E94F60982E01D
:101B600062E041E00E94F6090E945908FE01EA572E
:101B7000FF4F8AE28083FE01EA57FF4F8FE28183A5
:101B8000FE01EA57FF4F8BE28283FE01EA57FF4FC7
:101B90008DE28383FE01EB57FF4F1082FE01EC576D
:101BA000FF4F1082FE01ED57FF4F1082FE01EE57EE
:101BB000FF4F1082CE0186579F4FCB56DF4F998340
:101BC0008883C559D04024E830E0C956DF4F3983B7
:101BD0002883C759D04033E0C756DF4F3883C959EF
:101BE000D040C956DF4FE881F981C759D040008005
:101BF000C956DF4F28813981C759D0402F5F3F4FE9
:101C0000C956DF4F39832883C759D040CB56DF4FA1
:101C1000E881F981C559D0400082CB56DF4F288139
:101C20003981C559D0402F5F3F4FCB56DF4F3983A5
:101C30002883C559D040C756DF4F3881C959D04095
:101C40003150C756DF4F3883C959D040C756DF4F90
:101C50008881C959D040882321F6CE0183579F4FF0
:101C6000C656DF4F99838883CA59D040E1E8F0E037
:101C7000C456DF4FF983E883CC59D040F3E0C25615
:101C8000DF4FF883CE59D040C456DF4FE881F98149
:101C9000CC59D0400080C456DF4F28813981CC59BF
:101CA000D0402F5F3F4FC456DF4F39832883CC5934
:101CB000D040C656DF4FE881F981CA59D040008232
:101CC000C656DF4F28813981CA59D0402F5F3F4F18
:101CD000C656DF4F39832883CA59D040C256DF4FDA
:101CE0003881CE59D0403150C256DF4F3883CE595B
:101CF000D040C256DF4F8881CE59D040882321F68C
:101D0000CE0180579F4FC156DF4F99838883CF59AB
:101D1000D040EEE7F0E0CF55DF4FF983E883C15ABA
:101D2000D040F3E0CD55DF4FF883C35AD040CF55B4
:101D3000DF4FE881F981C15AD0400080CF55DF4F95
:101D400028813981C15AD0402F5F3F4FCF55DF4F97
:101D500039832883C15AD040C156DF4FE881F981C9
:101D6000CF59D0400082C156DF4F28813981CF59E9
:101D7000D0402F5F3F4FC156DF4F39832883CF5963
:101D8000D040CD55DF4F3881C35AD0403150CD556A
:101D9000DF4F3883C35AD040CD55DF4F8881C35AB7
:101DA000D040882321F6CE0186579F4F0E949B0585
:101DB000CE0183579F4F0E949B05CE0180579F4FB6
:101DC0000E949B0580E690E00E94E708FE01EE5726
:101DD000FF4F81E060810E94100986E690E00E943A
:101DE000E708FE01EE57FF4F80E060810E94100976
:101DF000FE01EE57FF4F8081882309F0A8C2CE0173
:101E000086579F4F0E94DB05813009F0DAC0DE0162
:101E1000AD57BF4FFE01ED57FF4F80818F5F8C9311
:101E2000FE01ED57FF4F80818A3021F4FE01ED570E
:101E3000FF4F1082FE01ED57FF4F8081992787FDEC
:101E40009095A92FB92FBC01CD010E946E09FE010A
:101E5000E558FF4F80E090E0AAEFB3E480839183E0
:101E6000A283B3838E0109581F4FFE01E558FF4F2F
:101E7000608171818281938120E030E04AEF54E4F7
:101E80000E941702DC01CB01F80180839183A283B9
:101E9000B383FE01E958FF4F608171818281938194
:101EA00020E030E040E85FE30E947103882344F4BF
:101EB000FE01EB58FF4F81E090E09183808364C086
:101EC000FE01E958FF4F608171818281938120E09A
:101ED0003FEF4FE757E40E94110318160CF043C080
:101EE000FE01E558FF4F608171818281938120E07E
:101EF00030E040E251E40E941702DC01CB018E0188
:101F00000B581F4FBC01CD010E944100DC01CB01E9
:101F1000F801918380831FC0FE01ED58FF4F88ECCC
:101F200090E091838083FE01ED58FF4F8081918185
:101F30000197F1F7FE01ED58FF4F91838083DE0199
:101F4000AB58BF4FFE01EB58FF4F80819181019745
:101F500011969C938E93FE01EB58FF4F80819181E7
:101F60000097D1F627C08E010B581F4FFE01E9588C
:101F7000FF4F60817181828193810E944100DC0169
:101F8000CB01F80191838083DE01AF58BF4FFE0182
:101F9000EB58FF4F808191818D939C93FE01EF5808
:101FA000FF4F808191810197F1F7FE01EF58FF4FBC
:101FB00091838083FE01EE57FF4F80E060810E9495
:101FC0001009CE0183579F4F0E94DB05813009F035
:101FD000DBC0DE01AD57BF4FFE01ED57FF4F8081E3
:101FE00081508C93FE01ED57FF4F808188232CF4A4
:101FF000FE01ED57FF4F89E08083FE01ED57FF4F53
:102000008081992787FD9095A92FB92FBC01CD011B
:102010000E946E09FE01E359FF4F80E090E0AAEFB5
:10202000B3E480839183A283B3838E0107591F4F4A
:10203000FE01E359FF4F608171818281938120E02D
:1020400030E04AEF54E40E941702DC01CB01F801B2
:1020500080839183A283B383FE01E759FF4F6081A0
:1020600071818281938120E030E040E85FE30E944B
:102070007103882344F4FE01E959FF4F81E090E0A9
:102080009183808364C0FE01E759FF4F60817181B5
:102090008281938120E03FEF4FE757E40E941103D4
:1020A00018160CF043C0FE01E359FF4F60817181A7
:1020B0008281938120E030E040E251E40E941702E7
:1020C000DC01CB018E0109591F4FBC01CD010E94DB
:1020D0004100DC01CB01F801918380831FC0FE0128
:1020E000EB59FF4F88EC90E091838083FE01EB5920
:1020F000FF4F808191810197F1F7FE01EB59FF4F6E
:1021000091838083DE01A959BF4FFE01E959FF4F3A
:1021100080819181019711969C938E93FE01E959DC
:10212000FF4F808191810097D1F627C08E01095918
:102130001F4FFE01E759FF4F6081718182819381BA
:102140000E944100DC01CB01F80191838083DE0114
:10215000AD59BF4FFE01E959FF4F808191818D93A9
:102160009C93FE01ED59FF4F808191810197F1F71A
:10217000FE01ED59FF4F91838083FE01EE57FF4F23
:1021800080E060810E941009CE0180579F4F0E941D
:10219000DB05813009F0D3C0FE01EE57FF4F81E02F
:1021A00060810E94100988E690E00E94E708DE0145
:1021B000AE57BF4FFE01EE57FF4F80818E5F8C936D
:1021C000FE01EE57FF4F81E060810E94100986E614
:1021D00090E00E94E708FE01E15AFF4F80E090E0A6
:1021E000AAEFB3E480839183A283B3838E01055A5F
:1021F0001F4FFE01E15AFF4F6081718182819381FF
:1022000020E030E04AEF54E40E941702DC01CB01E9
:10221000F80180839183A283B383FE01E55AFF4FC7
:10222000608171818281938120E030E040E85FE34A
:102230000E947103882344F4FE01E75AFF4F81E0B6
:1022400090E09183808364C0FE01E55AFF4F608176
:1022500071818281938120E03FEF4FE757E40E9434
:10226000110318160CF043C0FE01E15AFF4F6081C4
:1022700071818281938120E030E040E251E40E944C
:102280001702DC01CB018E01075A1F4FBC01CD01A3
:102290000E944100DC01CB01F801918380831FC0C3
:1022A000FE01E95AFF4F88EC90E091838083FE01A4
:1022B000E95AFF4F808191810197F1F7FE01E95AB8
:1022C000FF4F91838083DE01A75ABF4FFE01E75A7B
:1022D000FF4F80819181019711969C938E93FE010F
:1022E000E75AFF4F808191810097D1F628C08E0177
:1022F000075A1F4FFE01E55AFF4F608171818281AD
:1023000093810E944100DC01CB01F801918380831D
:10231000DE01AB5ABF4FFE01E75AFF4F808191812A
:1023200011969C938E93FE01EB5AFF4F8081918111
:102330000197F1F7FE01EB5AFF4F91838083FE0175
:10234000EE57FF4F8081823009F452CD58CDFE0107
:10235000EE57FF4F8081823009F058C2FE01EE57E0
:10236000FF4F80E060810E941009FE01EB57FF4F94
:102370008081282F332727FD3095CE018A579F4F24
:10238000FC01E20FF31F80810E94BB07CE0186573C
:102390009F4F0E94DB05813009F0DEC0FE01EE5741
:1023A000FF4F80E060810E941009DE01AB57BF4FF4
:1023B000FE01EB57FF4F80818F5F8C93FE01EB573F
:1023C000FF4F8081843021F4FE01EB57FF4F1082D4
:1023D000FE01EB57FF4F8081282F332727FD3095D3
:1023E000CE018A579F4FFC01E20FF31F80810E94AC
:1023F000BB07FE01EF5AFF4F80E090E0AAEFB3E485
:1024000080839183A283B3838E01035B1F4FFE0100
:10241000EF5AFF4F608171818281938120E030E02B
:102420004AEF54E40E941702DC01CB01F8018083DB
:102430009183A283B383FE01E35BFF4F60817181CF
:102440008281938120E030E040E85FE30E947103E5
:10245000882344F4FE01E55BFF4F81E090E0918327
:10246000808364C0FE01E35BFF4F608171818281E4
:10247000938120E03FEF4FE757E40E9411031816C5
:102480000CF043C0FE01EF5AFF4F608171818281E1
:10249000938120E030E040E251E40E941702DC0129
:1024A000CB018E01055B1F4FBC01CD010E94410095
:1024B000DC01CB01F801918380831FC0FE01E75B43
:1024C000FF4F88EC90E091838083FE01E75BFF4F34
:1024D000808191810197F1F7FE01E75BFF4F9183C6
:1024E0008083DE01A55BBF4FFE01E55BFF4F80816E
:1024F0009181019711969C938E93FE01E55BFF4FAE
:10250000808191810097D1F627C08E01055B1F4F16
:10251000FE01E35BFF4F60817181828193810E94A4
:102520004100DC01CB01F80191838083DE01A95BCE
:10253000BF4FFE01E55BFF4F808191818D939C939E
:10254000FE01E95BFF4F808191810197F1F7FE0168
:10255000E95BFF4F91838083CE0183579F4F0E9499
:10256000DB05813009F0B1C0FE01EE57FF4F80E07E
:1025700060810E941009DE01AB57BF4FFE01EB578F
:10258000FF4F808181508C93FE01EB57FF4F80817C
:1025900088232CF4FE01EB57FF4F83E08083FE017C
:1025A000EB57FF4F8081282F332727FD3095CE0131
:1025B0008A579F4FFC01E20FF31F80810E94BB07E7
:1025C000FE01ED5BFF4F80E090E0AAEFB3E4808373
:1025D0009183A283B3838E01015C1F4FFE01ED5BEB
:1025E000FF4F608171818281938120E030E04AEF6A
:1025F00054E40E941702DC01CB01F801808391832F
:10260000A283B383FE01FF966081718182819381F1
:1026100020E030E040E85FE30E94710388232CF45F
:1026200081E090E09EAF8DAF46C0FE01FF966081D5
:1026300071818281938120E03FEF4FE757E40E9450
:102640001103181664F5FE01ED5BFF4F6081718187
:102650008281938120E030E040E251E40E94170241
:10266000DC01CB01BC01CD010E944100DC01CB01AA
:102670009EAF8DAF0FC088EC90E09CAF8BAF8BAD61
:102680009CAD0197F1F79CAF8BAF8DAD9EAD0197DF
:102690009EAF8DAF8DAD9EAD009769F716C0FE0160
:1026A000FF9660817181828193810E944100DC01EB
:1026B000CB019EAF8DAF8DAD9EAD9AAF89AF89AD89
:1026C0009AAD0197F1F79AAF89AFCE0180579F4F2E
:1026D0000E94DB05813009F091C0FE01EE57FF4FEB
:1026E00081E060810E94100988E690E00E94E7087E
:1026F000DE01AE57BF4FFE01EE57FF4F80818E5F68
:102700008C93FE01EE57FF4F81E060810E9410091B
:1027100086E690E00E94E70880E090E0AAEFB3E44C
:102720008DAB9EABAFABB8AF6DA97EA98FA998ADAD
:1027300020E030E04AEF54E40E941702DC01CB01B4
:1027400089AB9AABABABBCAB69A97AA98BA99CA9A5
:1027500020E030E040E85FE30E94710388232CF41E
:1027600081E090E098AB8FA73FC069A97AA98BA9B7
:102770009CA920E03FEF4FE757E40E941103181691
:102780004CF56DA97EA98FA998AD20E030E040E21C
:1027900051E40E941702DC01CB01BC01CD010E9473
:1027A0004100DC01CB0198AB8FA70FC088EC90E013
:1027B0009EA78DA78DA59EA50197F1F79EA78DA732
:1027C0008FA598A9019798AB8FA78FA598A9009777
:1027D00069F714C069A97AA98BA99CA90E94410034
:1027E000DC01CB0198AB8FA78FA598A99CA78BA7DD
:1027F0008BA59CA50197F1F79CA78BA7FE01EE572F
:10280000FF4F8081843009F4F3CAC0CDFE01EE573A
:10281000FF4F8081843009F0E4C1CE0186579F4F7D
:102820000E94DB05813009F099C0DE01AC57BF4F33
:10283000FE01EC57FF4F80818F5F8C93FE01EE57B6
:10284000FF4F80E060810E941009FE01EC57FF4FAE
:1028500080818A3021F4FE01EC57FF4F1082FE0187
:10286000EC57FF4F8081992787FD9095A92FB92FAD
:10287000BC01CD010E946E0980E090E0AAEFB3E4B4
:102880008FA398A7A9A7BAA76FA178A589A59AA58C
:1028900020E030E04AEF54E40E941702DC01CB0153
:1028A0008BA39CA3ADA3BEA36BA17CA18DA19EA174
:1028B00020E030E040E85FE30E94710388232CF4BD
:1028C00081E090E09AA389A33FC06BA17CA18DA178
:1028D0009EA120E03FEF4FE757E40E941103181636
:1028E0004CF56FA178A589A59AA520E030E040E2DB
:1028F00051E40E941702DC01CB01BC01CD010E9412
:102900004100DC01CB019AA389A30FC088EC90E0C1
:1029100098A38F8F8F8D98A10197F1F798A38F8F30
:1029200089A19AA101979AA389A389A19AA1009745
:1029300069F714C06BA17CA18DA19EA10E944100EA
:10294000DC01CB019AA389A389A19AA19E8F8D8FC7
:102950008D8D9E8D0197F1F79E8F8D8FCE018357C0
:102960009F4F0E94DB05813009F09AC0DE01AC5711
:10297000BF4FFE01EC57FF4F808181508C93FE01C9
:10298000EE57FF4F80E060810E941009FE01EC5776
:10299000FF4F808188232CF4FE01EC57FF4F89E024
:1029A0008083FE01EC57FF4F8081992787FD90952A
:1029B000A92FB92FBC01CD010E946E0980E090E0E3
:1029C000AAEFB3E4898F9A8FAB8FBC8F698D7A8D14
:1029D0008B8D9C8D20E030E04AEF54E40E9417027A
:1029E000DC01CB018D8B9E8BAF8BB88F6D897E897F
:1029F0008F89988D20E030E040E85FE30E9471030A
:102A000088232CF481E090E09C8B8B8B3FC06D89F8
:102A10007E898F89988D20E03FEF4FE757E40E9431
:102A2000110318164CF5698D7A8D8B8D9C8D20E0E5
:102A300030E040E251E40E941702DC01CB01BC010E
:102A4000CD010E944100DC01CB019C8B8B8B0FC020
:102A500088EC90E09A8B898B89899A890197F1F7A4
:102A60009A8B898B8B899C8901979C8B8B8B8B890B
:102A70009C89009769F714C06D897E898F89988D2C
:102A80000E944100DC01CB019C8B8B8B8B899C8944
:102A9000988B8F878F8598890197F1F7988B8F870F
:102AA000CE0180579F4F0E94DB05813009F091C015
:102AB000FE01EE57FF4F81E060810E94100988E619
:102AC00090E00E94E708DE01AE57BF4FFE01EE57CF
:102AD000FF4F80818E5F8C93FE01EE57FF4F80E0A9
:102AE00060810E9410098AE690E00E94E70880E079
:102AF00090E0AAEFB3E48B879C87AD87BE876B8598
:102B00007C858D859E8520E030E04AEF54E40E946C
:102B10001702DC01CB018F839887A987BA876F8161
:102B2000788589859A8520E030E040E85FE30E945F
:102B3000710388232CF481E090E09E838D833FC055
:102B40006F81788589859A8520E03FEF4FE757E4CC
:102B50000E94110318164CF56B857C858D859E852A
:102B600020E030E040E251E40E941702DC01CB019A
:102B7000BC01CD010E944100DC01CB019E838D830D
:102B80000FC088EC90E09C838B838B819C810197A4
:102B9000F1F79C838B838D819E8101979E838D832A
:102BA0008D819E81009769F714C06F817885898532
:102BB0009A850E944100DC01CB019E838D838D812B
:102BC0009E819A83898389819A810197F1F79A83FB
:102BD0008983FE01EE57FF4F8081863009F408C9D2
:102BE0001CCEFE01EE57FF4F8081863009F000C9F0
:102BF000FE01EE57FF4F88E08083FE01EE57FF4F46
:102C000080E060810E941009FE01EB57FF4F808138
:102C1000282F332727FD3095CD56DF4F3983288362
:102C2000C359D040CD56DF4F88819981C359D040D8
:102C30008130910509F44BC0CD56DF4FE881F98111
:102C4000C359D040E230F10554F4CD56DF4F28810E
:102C50003981C359D04021153105B1F0C9C8CD56CD
:102C6000DF4F88819981C359D0408230910509F4A2
:102C700085C1CD56DF4FE881F981C359D040E3309B
:102C8000F10509F49AC1B4C8FE01ED57FF4FDE010A
:102C9000AC57BF4F90818C91989F802D1124FE01DD
:102CA000EF57FF4F8083FE01EE57FF4F80E06081BA
:102CB0000E941009FE01EF57FF4F8081882F90E09E
:102CC000A0E0B0E0BC01CD010E946E0991C8FE01F8
:102CD000ED57FF4F8081482F552747FD5095FE0146
:102CE000EC57FF4F8081282F332727FD3095CA01ED
:102CF000B9010E943018009769F5FE01ED57FF4FAA
:102D00008081482F552747FD5095FE01EC57FF4F16
:102D10008081282F332727FD3095CA01B9010E94F1
:102D20003018CB01FE01EF57FF4F8083FE01EE57B5
:102D3000FF4F80E060810E941009FE01EF57FF4FB6
:102D40008081882F90E0A0E0B0E0BC01CD010E941E
:102D50006E094EC8FE01ED57FF4F8081482F552761
:102D600047FD5095FE01EC57FF4F8081282F3327F8
:102D700027FD3095CA01B9010E943018CB01FE0130
:102D8000EF57FF4F8083FE01EE57FF4F80E06081D9
:102D90000E941009FE01EF57FF4F8081882F90E0BD
:102DA000A0E0B0E0BC01CD010E946E09FE01EE572B
:102DB000FF4F8081982F9F5F80E0692F0E9410094C
:102DC0008EE20E94BB07FE01ED57FF4F8081482F26
:102DD000552747FD5095FE01EC57FF4F8081282F66
:102DE000332727FD3095CA01B9010E9430189C0194
:102DF000220F331FC901880F991F880F991F820F57
:102E0000931FFE01E058FF4F8083FE01E058FF4F03
:102E10008081482F50E0FE01EC57FF4F8081282F22
:102E2000332727FD3095CA01B9010E943018009759
:102E300079F5FE01EE57FF4F8081982F9E5F80E06D
:102E4000692F0E941009FE01E058FF4F8081482F32
:102E500050E0FE01EC57FF4F8081282F332727FDDC
:102E60003095CA01B9010E943018CB01FE01EF571D
:102E7000FF4F8083FE01EF57FF4F8081882F90E046
:102E8000A0E0B0E0BC01CD010E946E090C94F80EE8
:102E9000FE01E058FF4F8081482F50E0FE01EC57C3
:102EA000FF4F8081282F332727FD3095CA01B901B4
:102EB0000E943018CB01FE01EF57FF4F8083FE01C7
:102EC000EE57FF4F8081982F9E5F80E0692F0E9410
:102ED0001009FE01EF57FF4F8081882F90E0A0E09E
:102EE000B0E0BC01CD010E946E09FE01E058FF4F29
:102EF0008081482F50E0FE01EC57FF4F8081282F42
:102F0000332727FD3095CA01B9010E9430189C0172
:102F1000220F331FC901880F991F880F991F820F35
:102F2000931FFE01E158FF4F808380E06BE00E9419
:102F30001009FE01E158FF4F8081482F50E0FE014B
:102F4000EC57FF4F8081282F332727FD3095CA018A
:102F5000B9010E943018CB01FE01EF57FF4F80836B
:102F6000FE01EF57FF4F8081882F90E0A0E0B0E096
:102F7000BC01CD010E946E090C94F80EFE01ED57C4
:102F8000FF4F9081FE01EC57FF4F8081FE01EF570C
:102F9000FF4F890F808380E068E00E941009FE01E6
:102FA000EF57FF4F8081882F90E0A0E0B0E0BC0198
:102FB000CD010E946E090C94F80EFE01EC57FF4FF4
:102FC000DE01AD57BF4F90818C91891744F580E0A9
:102FD00068E00E9410098DE20E94BB0780E069E072
:102FE0000E941009FE01EC57FF4F9081FE01ED5742
:102FF000FF4F8081FE01EF57FF4F292F281B822FA3
:103000008083FE01EF57FF4F8081882F90E0A0E082
:10301000B0E0BC01CD010E946E090C94F80E80E076
:1030200068E00E941009FE01ED57FF4F9081FE01FC
:10303000EC57FF4F8081FE01EF57FF4F392F381BB0
:10304000832F8083FE01EF57FF4F8081882F90E010
:10305000A0E0B0E0BC01CD010E946E090C94F80E16
:1030600097FB092E07260AD077FD04D02ED006D074
:1030700000201AF4709561957F4F0895F6F79095AA
:1030800081959F4F0895A1E21A2EAA1BBB1BFD013B
:103090000DC0AA1FBB1FEE1FFF1FA217B307E40737
:1030A000F50720F0A21BB30BE40BF50B661F771F8F
:1030B000881F991F1A9469F760957095809590956F
:1030C0009B01AC01BD01CF010895AA1BBB1B51E1BF
:1030D00007C0AA1FBB1FA617B70710F0A61BB70B88
:1030E000881F991F5A95A9F780959095BC01CD012D
:1030F00008952F923F924F925F926F927F928F929C
:103100009F92AF92BF92CF92DF92EF92FF920F9376
:103110001F93CF93DF93CDB7DEB7CA1BDB0B0FB680
:10312000F894DEBF0FBECDBF09942A88398848883D
:103130005F846E847D848C849B84AA84B984C884D3
:10314000DF80EE80FD800C811B81AA81B981CE0FCA
:10315000D11D0FB6F894DEBF0FBECDBFED010895AF
:04316000F894FFCF11
:1031640030202A2030005E0020003D0000000000D6
:10317400000000003F065B4F666D7C077F6F040212
:08318400010401010400010037
:00000001FF
