:100000000C942A000C943F000C943F000C943F0089
:100010000C943F000C943F000C943F000C943F0064
:100020000C943F000C943F000C943F000C943F0054
:100030000C943F000C943F000C943F000C943F0044
:100040000C943F000C943F000C943F000C943F0034
:100050000C943F0011241FBECFE5D8E0DEBFCDBF1A
:1000600011E0A0E6B0E0E4EDFCE402C005900D92E2
:10007000A632B107D9F70E94940D0C9468260C940F
:100080000000EF92FF920F931F937B018C0120E001
:1000900030E040E05FE40E94410388238CF0C80117
:1000A000B70120E030E040E05FE40E94B9010E9427
:1000B000A1039B01AC01205030404040504806C095
:1000C000C801B7010E94A1039B01AC01B901CA019B
:1000D0001F910F91FF90EF900895A0E0B0E0E3E74B
:1000E000F0E00C943126DC012B01FA019C91923056
:1000F00008F439C1EB018881823008F433C19430AF
:1001000069F4843009F02FC111969C91119789816F
:10011000981709F428C1ABEAB0E025C1843009F48E
:1001200021C18230A9F4923009F01DC19A01AD01BC
:1001300088E0EA010990AE01E90109929E0181502F
:10014000C1F7E201898111969C918923818308C1BD
:10015000923009F407C112962D903C901397EB0151
:100160008A819B811496AD90BD90CD90DC901797BD
:10017000EC80FD800E811F819101281B390BB90194
:1001800037FF04C066277727621B730B6032710547
:100190000CF061C0121613066CF537014801062EEB
:1001A00004C096948794779467940A94D2F721E0D8
:1001B00030E040E050E004C0220F331F441F551FC1
:1001C0006A95D2F721503040404050402E213F21C7
:1001D00040235123211531054105510521F021E02E
:1001E00030E040E050E079018A01E628F72808294C
:1001F00019293CC0232BD1F1260E371E35014601AB
:10020000062E04C096948794779467940A94D2F744
:1002100021E030E040E050E004C0220F331F441FD3
:10022000551F6A95D2F721503040404050402A2156
:100230003B214C215D21211531054105510521F05E
:1002400021E030E040E050E059016A01A628B728DB
:10025000C828D9280BC0821593052CF01C01AA24AC
:10026000BB24650103C0EE24FF24870111969C91F5
:10027000D20111968C91981709F445C0992339F051
:10028000A80197012A193B094C095D0906C0A6017E
:1002900095012E193F09400B510B57FD08C01182E3
:1002A0003382228224833583468357831DC081E0B5
:1002B00081833382228288279927DC01821B930B5A
:1002C000A40BB50B84839583A683B7830DC0220F3F
:1002D000331F441F551F24833583468357838281F0
:1002E000938101979383828324813581468157814D
:1002F000DA01C9010197A109B1098F5F9F4FAF4F83
:10030000BF4328F30BC0918333822282EA0CFB1C8B
:100310000C1D1D1DE482F5820683178383E0808314
:10032000248135814681578157FF1AC0C901AA2708
:1003300097FDA095BA2F81709070A070B0705695FF
:10034000479537952795822B932BA42BB52B848328
:100350009583A683B7838281938101969383828359
:10036000DF0101C0D201CD01CDB7DEB7E2E10C94CF
:100370004D26A0E2B0E0EFEBF1E00C943D2669835E
:100380007A838B839C832D833E834F835887E9E058
:10039000EE2EF12CEC0EFD1ECE010196B7010E944F
:1003A000CA048E010F5E1F4FCE010596B8010E9450
:1003B000CA048A8991E089278A8BC701B801AE01F6
:1003C000475E5F4F0E946D000E94F503A096E6E035
:1003D0000C945926A0E2B0E0E0EFF1E00C943D2649
:1003E00069837A838B839C832D833E834F835887D5
:1003F000F9E0EF2EF12CEC0EFD1ECE010196B701B7
:100400000E94CA048E010F5E1F4FCE010596B801EF
:100410000E94CA04C701B801AE01475E5F4F0E9447
:100420006D000E94F503A096E6E00C945926A0E228
:10043000B0E0EDE1F2E00C94312669837A838B839E
:100440009C832D833E834F835887CE010196BE0146
:10045000675F7F4F0E94CA04CE010596BE016F5EA2
:100460007F4F0E94CA049985923088F08989823032
:10047000C8F0943019F4823051F404C0843029F467
:10048000923081F48BEA90E0C6C0923049F420E0CB
:100490009A858A89981321E02A87CE010996BBC0E4
:1004A000823049F420E09A858A89981321E02A8BCA
:1004B000CE014196B0C02D843E844F8458886D880B
:1004C0007E888F88988CEE24FF248701AA24BB2481
:1004D000650140E050E060E070E0E0E0F0E0C10184
:1004E00081709070892BE9F0E60CF71C081D191D2E
:1004F0009A01AB012A0D3B1D4C1D5D1D80E090E073
:10050000A0E0B0E0E614F7040805190520F481E046
:1005100090E0A0E0B0E0BA01A901480F591F6A1F9E
:100520007B1FAA0CBB1CCC1CDD1C97FE08C081E005
:1005300090E0A0E0B0E0A82AB92ACA2ADB2A3196C6
:10054000E032F10549F0660C771C881C991C569422
:10055000479437942794C3CFFA85EA892B893C893D
:100560008B859C85280F391F2E5F3F4F17C0CA010E
:1005700081709070892B61F016950795F794E79438
:1005800080E090E0A0E0B0E8E82AF92A0A2B1B2BD3
:1005900076956795579547952F5F3F4F77FDE7CF46
:1005A0000CC0440F551F661F771F17FD4160EE0CEE
:1005B000FF1C001F111F21503040403090E05907B0
:1005C00090E0690790E4790760F32B8F3C8FDB01A3
:1005D000CA018F779070A070B07080349105A1052A
:1005E000B10561F447FD0AC0E114F10401051105EC
:1005F00029F0405C5F4F6F4F7F4F40781A8EFE1797
:1006000011F081E08A8F4D8F5E8F6F8F78A383E02A
:10061000898FCE0149960E94F503A096E2E10C94E1
:100620004D26A8E1B0E0E7E1F3E00C943D266983B4
:100630007A838B839C832D833E834F83588789E005
:10064000E82EF12CEC0EFD1ECE010196B7010E94A2
:10065000CA048E010F5E1F4FCE010596B8010E949D
:10066000CA048985823040F08989823028F0C70128
:10067000B8010E94420501C08FEF6896E6E00C9435
:100680005926A8E1B0E0E7E4F3E00C943D26698345
:100690007A838B839C832D833E834F83588789E0A5
:1006A000E82EF12CEC0EFD1ECE010196B7010E9442
:1006B000CA048E010F5E1F4FCE010596B8010E943D
:1006C000CA048985823040F08989823028F0C701C8
:1006D000B8010E94420501C08FEF6896E6E00C94D5
:1006E0005926A8E1B0E0E7E7F3E00C943D266983E2
:1006F0007A838B839C832D833E834F83588789E045
:10070000E82EF12CEC0EFD1ECE010196B7010E94E1
:10071000CA048E010F5E1F4FCE010596B8010E94DC
:10072000CA048985823040F08989823028F0C70167
:10073000B8010E94420501C081E06896E6E00C9491
:100740005926ACE0B0E0E7EAF3E00C944126698377
:100750007A838B839C83CE010196BE016B5F7F4FB2
:100760000E94CA048D81823061F1823050F1843060
:1007700021F48E81882351F12EC02F81388537FDD9
:1007800020C06E812F3131051CF06623F9F023C0A3
:100790008EE190E0821B930B29853A854B855C8521
:1007A00004C056954795379527958A95D2F76623C5
:1007B000B1F050954095309521953F4F4F4F5F4F89
:1007C0000EC020E030E040E050E009C02FEF3FEFE6
:1007D0004FEF5FE704C020E030E040E050E8B901AF
:1007E000CA012C96E2E00C945D26DF92EF92FF9214
:1007F0000F931F93FC01E480F58006811781D1805F
:100800008081823048F480E090E0A0E1B0E0E82A06
:10081000F92A0A2B1B2BA5C0843009F49FC0823013
:1008200021F4EE24FF24870105C0E114F104010541
:10083000110519F4E0E0F0E096C0628173819FEF4A
:10084000623879070CF05BC022E83FEF261B370BBC
:100850002A3131052CF020E030E040E050E02AC0A1
:10086000B801A701022E04C0769567955795479564
:100870000A94D2F781E090E0A0E0B0E004C0880FD5
:10088000991FAA1FBB1F2A95D2F70197A109B10989
:100890008E219F21A023B1230097A105B10521F04E
:1008A00081E090E0A0E0B0E09A01AB01282B392B69
:1008B0004A2B5B2BDA01C9018F779070A070B07062
:1008C00080349105A105B10539F427FF09C0205CEA
:1008D0003F4F4F4F5F4F04C0215C3F4F4F4F5F4F23
:1008E000E0E0F0E02030A0E03A07A0E04A07A0E412
:1008F0005A0710F0E1E0F0E079018A0127C0603882
:10090000710564F5FB01E158FF4FD801C7018F77EE
:100910009070A070B07080349105A105B10539F4D4
:10092000E7FE0DC080E490E0A0E0B0E004C08FE3FB
:1009300090E0A0E0B0E0E80EF91E0A1F1B1F17FFB1
:1009400005C016950795F794E794319687E01695BC
:100950000795F794E7948A95D1F705C0EE24FF2414
:100960008701EFEFF0E06E2F679566276795902F70
:100970009F77D794DD24D7948E2F8695492F462BC9
:10098000582F5D29B701CA011F910F91FF90EF9079
:10099000DF900895FC01DB01408151812281622FAB
:1009A0006F7770E0221F2227221F9381892F880FE3
:1009B000822B282F30E0991F9927991F11969C931D
:1009C000119721153105A9F54115510561057105ED
:1009D00011F482E037C082E89FEF13969C938E93C8
:1009E00012979A01AB0167E0220F331F441F551F76
:1009F0006A95D1F783E08C930DC0220F331F441FFB
:100A0000551F12968D919C911397019713969C9365
:100A10008E931297203080E0380780E0480780E40A
:100A2000580758F314962D933D934D935C93179765
:100A300008952F3F310579F4411551056105710580
:100A400019F484E08C93089564FF03C081E08C93D3
:100A500012C01C9210C02F57304013963C932E9317
:100A6000129783E08C9387E0440F551F661F771F12
:100A70008A95D1F7706414964D935D936D937C9332
:100A8000179708951F93DC01FB019C91923008F4A5
:100A900047C08081823008F443C0943051F41196ED
:100AA0001C91843099F58181682F70E0611B710978
:100AB0003FC0843021F0923031F48230B9F181812D
:100AC000882389F12DC011961C9111978230F1F085
:100AD00081811817D9F412962D913C911397828138
:100AE00093818217930794F028173907BCF0149666
:100AF0008D919D910D90BC91A02D248135814681D1
:100B00005781281739074A075B0718F4112341F06A
:100B10000AC082179307A407B50740F4112319F000
:100B200061E070E005C06FEF7FEF02C060E070E051
:100B3000CB011F910895DF93CF9300D000D00F9287
:100B4000CDB7DEB79A838983E981FA818281282F24
:100B500030E03C832B838B819C810097D1F02B81EB
:100B60003C8121303105F9F4E981FA818081E98104
:100B7000FA819181692F40E00E94F609E981FA81AA
:100B80008081E981FA819181692F41E00E94510BB6
:100B90000AC0E981FA818081E981FA819181692F16
:100BA00040E00E94F6090F900F900F900F900F9069
:100BB000CF91DF910895DF93CF93CDB7DEB727971D
:100BC0000FB6F894DEBF0FBECDBF9B838A83EA8148
:100BD000FB818281282F30E03E832D838D819E8191
:100BE0000097C9F02D813E812130310521F5EA8140
:100BF000FB818081EA81FB819181692F9E012F5FBA
:100C00003F4FA9010E94AC0C89811C828823A1F46A
:100C100031E03C8311C0EA81FB818081EA81FB8164
:100C20009181692F9E012F5F3F4FA9010E94AC0C5B
:100C300089818C8301C002C09C819F838F8127960C
:100C40000FB6F894DEBF0FBECDBFCF91DF910895F0
:100C5000DF93CF9300D000D000D0CDB7DEB789832B
:100C60007B836A83EA81FB8181816FEF0E94080B9D
:100C7000EA81FB8181818D83EA81FB8180818823E8
:100C800049F08981882F90E0FC01ED54FF4F90815D
:100C90009C830AC08981882F90E0FC01ED54FF4FAE
:100CA0008081982F90959C838D816C810E94630C2C
:100CB000EA81FB818281EA81FB819381692F41E096
:100CC0000E94F60926960FB6F894DEBF0FBECDBF80
:100CD000CF91DF910895DF93CF9300D000D00F9292
:100CE000CDB7DEB79A838983E981FA818081282F85
:100CF00030E03C832B838B819C81009731F02B81EA
:100D00003C812130310561F015C0E981FA81828191
:100D1000E981FA819381692F41E00E94510B0AC059
:100D2000E981FA818281E981FA819381692F40E02A
:100D30000E94510B0F900F900F900F900F90CF913A
:100D4000DF910895DF93CF9300D000D00F92CDB7FD
:100D5000DEB79A838983E981FA818081282F30E088
:100D60003C832B838B819C81009731F02B813C81CC
:100D70002130310561F015C0E981FA818281E98174
:100D8000FA819381692F40E00E94510B0AC0E981EA
:100D9000FA818281E981FA819381692F41E00E9481
:100DA000510B0F900F900F900F900F90CF91DF91FC
:100DB0000895DF93CF9300D00F92CDB7DEB79A831B
:100DC0008983E981FA818081E981FA819181692FA2
:100DD00041E00E94F609E981FA818081E981FA8186
:100DE0009181692F41E00E94510B0F900F900F905D
:100DF000CF91DF910895DF93CF9300D00F92CDB7BD
:100E0000DEB79A838983E981FA818081E981FA8159
:100E10009181692F41E00E94F609E981FA81808180
:100E2000E981FA819181692F40E00E94510B0F9076
:100E30000F900F90CF91DF910895DF93CF93CDB7AF
:100E4000DEB72F970FB6F894DEBF0FBECDBF8F87EA
:100E500082E060E040E00E94510B82E061E040E00F
:100E60000E94510B81E06F850E94630C82E062E07A
:100E700041E00E94510B80E090E0A0E0B0E48B875D
:100E80009C87AD87BE876B857C858D859E8520E0A0
:100E900030E04AEF54E40E941702DC01CB018F835B
:100EA0009887A987BA876F81788589859A8520E098
:100EB00030E040E85FE30E94710388232CF481E076
:100EC00090E09E838D833FC06F81788589859A8568
:100ED00020E03FEF4FE757E40E94110318164CF54E
:100EE0006B857C858D859E8520E030E040E251E475
:100EF0000E941702DC01CB01BC01CD010E94410020
:100F0000DC01CB019E838D830FC088EC90E09C8335
:100F10008B838B819C810197F1F79C838B838D81DF
:100F20009E8101979E838D838D819E81009769F7B5
:100F300014C06F81788589859A850E944100DC0103
:100F4000CB019E838D838D819E819A838983898144
:100F50009A810197F1F79A83898382E062E040E009
:100F60000E94510B2F960FB6F894DEBF0FBECDBF77
:100F7000CF91DF910895DF93CF93CDB7DEB72F9751
:100F80000FB6F894DEBF0FBECDBF8F8782E060E062
:100F900041E00E94510B82E061E040E00E94510B71
:100FA00081E06F850E94630C82E062E041E00E9474
:100FB000510B80E090E0A0E0B0E48B879C87AD8788
:100FC000BE876B857C858D859E8520E030E04AEF6D
:100FD00054E40E941702DC01CB018F839887A98714
:100FE000BA876F81788589859A8520E030E040E86E
:100FF0005FE30E94710388232CF481E090E09E83DC
:101000008D833FC06F81788589859A8520E03FEF89
:101010004FE757E40E94110318164CF56B857C8549
:101020008D859E8520E030E040E251E40E94170269
:10103000DC01CB01BC01CD010E944100DC01CB01F0
:101040009E838D830FC088EC90E09C838B838B8183
:101050009C810197F1F79C838B838D819E81019701
:101060009E838D838D819E81009769F714C06F8167
:10107000788589859A850E944100DC01CB019E8399
:101080008D838D819E819A83898389819A8101973D
:10109000F1F79A83898382E062E040E00E94510B7D
:1010A0002F960FB6F894DEBF0FBECDBFCF91DF9164
:1010B0000895DF93CF93CDB7DEB72E970FB6F89490
:1010C000DEBF0FBECDBF80E090E0A0EFB1E48B8724
:1010D0009C87AD87BE876B857C858D859E8520E04E
:1010E00030E04AEF54E40E941702DC01CB018F8309
:1010F0009887A987BA876F81788589859A8520E046
:1011000030E040E85FE30E94710388232CF481E023
:1011100090E09E838D833FC06F81788589859A8515
:1011200020E03FEF4FE757E40E94110318164CF5FB
:101130006B857C858D859E8520E030E040E251E422
:101140000E941702DC01CB01BC01CD010E944100CD
:10115000DC01CB019E838D830FC088EC90E09C83E3
:101160008B838B819C810197F1F79C838B838D818D
:101170009E8101979E838D838D819E81009769F763
:1011800014C06F81788589859A850E944100DC01B1
:10119000CB019E838D838D819E819A8389838981F2
:1011A0009A810197F1F79A83898388E30E941D074A
:1011B0008CE00E941D0781E00E941D072E960FB64D
:1011C000F894DEBF0FBECDBFCF91DF910895DF93BE
:1011D000CF9300D00F92CDB7DEB79B838A8319825D
:1011E0000EC08981282F30E08A819B81FC01E20FAB
:1011F000F31F80810E94BB0789818F5F898389816A
:10120000282F30E08A819B81FC01E20FF31F80814F
:10121000882339F70F900F900F90CF91DF910895A9
:10122000DF93CF9300D00F92CDB7DEB78A836B8365
:101230008A81882319F48B81898306C08A81813051
:1012400019F48B81805C8983898180680E941D07E5
:101250000F900F900F90CF91DF910895DF93CF9370
:10126000CDB7DEB727970FB6F894DEBF0FBECDBF60
:101270009C838B836D834E832F838D81882F90E099
:10128000880F991F880F991F880F991F8A838A8159
:10129000805C0E941D0719820EC08981282F30E0D2
:1012A0008B819C81FC01E20FF31F80810E94BB07B0
:1012B00089818F5F89838981883078F38E816F81FE
:1012C0000E9410098D810E94BB0727960FB6F894E3
:1012D000DEBF0FBECDBFCF91DF910895DF93CF93D7
:1012E000CDB7DEB763970FB6F894DEBF0FBECDBFA4
:1012F000688B798B8A8B9B8B198288899989AA89BB
:10130000BB898B839C83AD83BE8315C089818F5F2E
:1013100089838B819C81AD81BE812AE030E040E0F1
:1013200050E0BC01CD010E940F26DA01C9018B8378
:101330009C83AD83BE838B819C81AD81BE810097F0
:10134000A105B10519F71F8237C088899989AA8933
:10135000BB892AE030E040E050E0BC01CD010E94B2
:101360000F26DC01CB018A8388899989AA89BB89E8
:101370002AE030E040E050E0BC01CD010E940F26A1
:10138000DA01C901888B998BAA8BBB8B8981282FA5
:1013900030E08F81882F90E080959095280F391F3D
:1013A0008A81482F405DCE010896FC01E20FF31FB1
:1013B00040838F818F5F8F839F818981981728F267
:1013C0008981282F30E0CE010896FC01E20FF31F3F
:1013D0001082CE0108960E94E70863960FB6F89433
:1013E000DEBF0FBECDBFCF91DF910895DF93CF93C6
:1013F000CDB7DEB728970FB6F894DEBF0FBECDBFCE
:101400008A836B834C8319828B81883010F081E052
:1014100089838C81882309F078C08A81282F30E065
:1014200038872F838F8198858230910561F12F81D4
:1014300038852330310534F48F81988581309105CA
:1014400069F060C02F8138852330310589F18F81A3
:1014500098858430910509F440C054C0AAE3B0E0F7
:10146000EAE3F0E08081482F8B81282F30E081E093
:1014700090E0022E02C0880F991F0A94E2F780952F
:1014800084238C93BBC0A7E3B0E0E7E3F0E0808166
:10149000482F8B81282F30E081E090E0022E02C09F
:1014A000880F991F0A94E2F7809584238C93A6C035
:1014B000A4E3B0E0E4E3F0E08081482F8B81282FA3
:1014C00030E081E090E0022E02C0880F991F0A945C
:1014D000E2F7809584238C9391C0A1E3B0E0E1E32F
:1014E000F0E08081482F8B81282F30E081E090E070
:1014F000022E02C0880F991F0A94E2F78095842378
:101500008C937CC081E0898379C08C81813009F023
:1015100073C08A81282F30E03E832D838D819E8188
:101520008230910551F12D813E812330310534F413
:101530008D819E818130910561F05BC02D813E815E
:101540002330310571F18D819E8184309105E9F15F
:1015500050C0AAE3B0E0EAE3F0E08081482F8B813D
:10156000282F30E081E090E0022E02C0880F991F02
:101570000A94E2F7842B8C9341C0A7E3B0E0E7E341
:10158000F0E08081482F8B81282F30E081E090E0CF
:10159000022E02C0880F991F0A94E2F7842B8C93C5
:1015A0002DC0A4E3B0E0E4E3F0E08081482F8B811C
:1015B000282F30E081E090E0022E02C0880F991FB2
:1015C0000A94E2F7842B8C9319C0A1E3B0E0E1E325
:1015D000F0E08081482F8B81282F30E081E090E07F
:1015E000022E02C0880F991F0A94E2F7842B8C9375
:1015F00005C081E0898302C081E0898389812896C2
:101600000FB6F894DEBF0FBECDBFCF91DF91089526
:10161000DF93CF9300D000D00F92CDB7DEB78A838F
:101620006B8319828A81282F30E03D832C838C8143
:101630009D8182309105D9F02C813D812330310587
:1016400034F48C819D818130910561F01FC02C8123
:101650003D812330310581F08C819D81843091055D
:1016600081F014C0EAE3F0E08B81808311C0E7E3EE
:10167000F0E08B8180830CC0E4E3F0E08B81808319
:1016800007C0E1E3F0E08B81808302C081E08983C1
:1016900089810F900F900F900F900F90CF91DF9155
:1016A0000895DF93CF93CDB7DEB728970FB6F894A0
:1016B000DEBF0FBECDBF8A836B834C8319828B81C3
:1016C000883010F081E089838C81882309F078C00C
:1016D0008A81282F30E038872F838F819885823048
:1016E000910561F12F8138852330310534F48F81E4
:1016F00098858130910569F060C02F81388523304D
:10170000310589F18F8198858430910509F440C0B5
:1017100054C0ABE3B0E0EBE3F0E08081482F8B8175
:10172000282F30E081E090E0022E02C0880F991F40
:101730000A94E2F7809584238C93BBC0A8E3B0E0C1
:10174000E8E3F0E08081482F8B81282F30E081E0B2
:1017500090E0022E02C0880F991F0A94E2F780954C
:1017600084238C93A6C0A5E3B0E0E5E3F0E080819C
:10177000482F8B81282F30E081E090E0022E02C0BC
:10178000880F991F0A94E2F7809584238C9391C067
:10179000A2E3B0E0E2E3F0E08081482F8B81282FC4
:1017A00030E081E090E0022E02C0880F991F0A9479
:1017B000E2F7809584238C937CC081E0898379C093
:1017C0008C81813009F073C08A81282F30E03E83FC
:1017D0002D838D819E818230910551F12D813E8135
:1017E0002330310534F48D819E818130910561F083
:1017F0005BC02D813E812330310571F18D819E8149
:1018000084309105E9F150C0ABE3B0E0EBE3F0E0E8
:101810008081482F8B81282F30E081E090E0022EDC
:1018200002C0880F991F0A94E2F7842B8C9341C061
:10183000A8E3B0E0E8E3F0E08081482F8B81282F17
:1018400030E081E090E0022E02C0880F991F0A94D8
:10185000E2F7842B8C932DC0A5E3B0E0E5E3F0E044
:101860008081482F8B81282F30E081E090E0022E8C
:1018700002C0880F991F0A94E2F7842B8C9319C039
:10188000A2E3B0E0E2E3F0E08081482F8B81282FD3
:1018900030E081E090E0022E02C0880F991F0A9488
:1018A000E2F7842B8C9305C081E0898302C081E03C
:1018B0008983898128960FB6F894DEBF0FBECDBF0D
:1018C000CF91DF910895DF93CF9300D000D00F9296
:1018D000CDB7DEB78A836B8319828A81282F30E0E7
:1018E0003D832C838C819D8182309105D9F02C81A0
:1018F0003D812330310534F48C819D818130910507
:1019000061F01FC02C813D812330310581F08C8135
:101910009D818430910581F014C0EBE3F0E08B8170
:10192000808311C0E8E3F0E08B8180830CC0E5E3A5
:10193000F0E08B81808307C0E2E3F0E08B8180835D
:1019400002C081E0898389810F900F900F900F90E2
:101950000F90CF91DF910895DF93CF93CDB7DEB78E
:1019600027970FB6F894DEBF0FBECDBF8A836B8377
:101970005D834C8319828C819D81009719F08B8146
:10198000883010F081E089838A81282F30E03F83FE
:101990002E834E815F814230510559F18E819F81A6
:1019A0008330910534F42E813F812130310569F077
:1019B0005CC04E815F814330510579F18E819F81FA
:1019C0008430910509F43DC050C0E9E3F0E0808126
:1019D000282F30E08B81882F90E0A90102C0559517
:1019E00047958A95E2F7CA018170EC81FD81808379
:1019F0003EC0E6E3F0E08081282F30E08B81882F25
:101A000090E0A90102C0559547958A95E2F7CA0171
:101A10008170EC81FD8180832AC0E3E3F0E0808166
:101A2000282F30E08B81882F90E0A90102C05595C6
:101A300047958A95E2F7CA018170EC81FD81808328
:101A400016C0E0E3F0E08081282F30E08B81882F02
:101A500090E0A90102C0559547958A95E2F7CA0121
:101A60008170EC81FD81808302C081E0898389815E
:101A700027960FB6F894DEBF0FBECDBFCF91DF9192
:101A80000895DF93CF9300D000D000D0CDB7DEB75C
:101A90008A837C836B8319828A81282F30E03E837E
:101AA0002D838D819E8182309105E9F02D813E81CB
:101AB0002330310534F48D819E818130910561F0B0
:101AC00027C02D813E8123303105A1F08D819E817B
:101AD00084309105B1F01CC0E9E3F0E08081EB8136
:101AE000FC81808317C0E6E3F0E08081EB81FC811C
:101AF000808310C0E3E3F0E08081EB81FC81808390
:101B000009C0E0E3F0E08081EB81FC81808302C0CA
:101B100081E08983898126960FB6F894DEBF0FBED7
:101B2000CDBFCF91DF9108950F931F93DF93CF9394
:101B3000CDB7DEB7C553D2400FB6F894DEBF0FBEA7
:101B4000CDBF81E06FEF0E94080B82E060E041E0D2
:101B50000E94F60982E061E041E00E94F60982E01D
:101B600062E041E00E94F6090E945908CE018F57B9
:101B70009E4FCB50DE4F99838883C55FD1402DE1C6
:101B800031E0C950DE4F39832883C75FD14038E048
:101B9000C750DE4F3883C95FD140C950DE4FA8819E
:101BA000B981C75FD1400C90C950DE4FE881F981FF
:101BB000C75FD1403196C950DE4FF983E883C75FD4
:101BC000D140CB50DE4FA881B981C55FD1400C9286
:101BD000CB50DE4FE881F981C55FD1403196CB50C3
:101BE000DE4FF983E883C55FD140C750DE4FF881EF
:101BF000C95FD140F150C750DE4FF883C95FD14073
:101C0000C750DE4F2881C95FD140222331F6CE0173
:101C100087579E4FC650DE4F99838883CA5FD14055
:101C200085E191E0C450DE4F99838883CC5FD14039
:101C300098E0C250DE4F9883CE5FD140C450DE4F53
:101C4000A881B981CC5FD1400C90C450DE4FE881AF
:101C5000F981CC5FD1403196C450DE4FF983E883DF
:101C6000CC5FD140C650DE4FA881B981CA5FD14058
:101C70000C92C650DE4FE881F981CA5FD14031969F
:101C8000C650DE4FF983E883CA5FD140C250DE4FB1
:101C9000F881CE5FD140F150C250DE4FF883CE5F65
:101CA000D140C250DE4F2881CE5FD140222331F691
:101CB000CE018F569E4FC150DE4F99838883CF5FF0
:101CC000D1408DE091E0CF5FDD4F99838883C15093
:101CD000D24098E0CD5FDD4F9883C350D240CF5FB4
:101CE000DD4FA881B981C150D2400C90CF5FDD4F4C
:101CF000E881F981C150D2403196CF5FDD4FF98341
:101D0000E883C150D240C150DE4FA881B981CF5F76
:101D1000D1400C92C150DE4FE881F981CF5FD140B4
:101D20003196C150DE4FF983E883CF5FD140CD5F5C
:101D3000DD4FF881C350D240F150CD5FDD4FF883C5
:101D4000C350D240CD5FDD4F2881C350D240222303
:101D500031F6CE0187569E4FCC5FDD4F9983888345
:101D6000C450D24085E091E0CA5FDD4F99838883FB
:101D7000C650D24098E0C85FDD4F9883C850D2402B
:101D8000CA5FDD4FA881B981C650D2400C90CA5FAE
:101D9000DD4FE881F981C650D2403196CA5FDD4FF0
:101DA000F983E883C650D240CC5FDD4FA881B9816A
:101DB000C450D2400C92CC5FDD4FE881F981C45011
:101DC000D2403196CC5FDD4FF983E883C450D240D6
:101DD000C85FDD4FF881C850D240F150C85FDD4F79
:101DE000F883C850D240C85FDD4F2881C850D24028
:101DF000222331F6CE018F559E4FC75FDD4F998369
:101E00008883C950D2408DEF90E0C55FDD4F998344
:101E10008883CB50D24098E0C35FDD4F9883CD508C
:101E2000D240C55FDD4FA881B981CB50D2400C9024
:101E3000C55FDD4FE881F981CB50D2403196C55F57
:101E4000DD4FF983E883CB50D240C75FDD4FA881D7
:101E5000B981C950D2400C92C75FDD4FE881F9814A
:101E6000C950D2403196C75FDD4FF983E883C9502E
:101E7000D240C35FDD4FF881CD50D240F150C35FF7
:101E8000DD4FF883CD50D240C35FDD4F2881CD5068
:101E9000D240222331F6CE0187559E4FC25FDD4FDF
:101EA00099838883CE50D24085EF90E0C05FDD4FAC
:101EB00099838883C051D24098E0CE5EDD4F9883ED
:101EC000C251D240C05FDD4FA881B981C051D2401C
:101ED0000C90C05FDD4FE881F981C051D24031964E
:101EE000C05FDD4FF983E883C051D240C25FDD4F50
:101EF000A881B981CE50D2400C92C25FDD4FE881FB
:101F0000F981CE50D2403196C25FDD4FF983E8832C
:101F1000CE50D240CE5EDD4FF881C251D240F1505A
:101F2000CE5EDD4FF883C251D240CE5EDD4F2881B8
:101F3000C251D240222331F6CE018F549E4FCD5E46
:101F4000DD4F99838883C351D2408DEE90E0CB5E04
:101F5000DD4F99838883C551D24098E0C95EDD4F3B
:101F60009883C751D240CB5EDD4FA881B981C5515E
:101F7000D2400C90CB5EDD4FE881F981C551D24053
:101F80003196CB5EDD4FF983E883C551D240CD5EFB
:101F9000DD4FA881B981C351D2400C92CD5EDD4F97
:101FA000E881F981C351D2403196CD5EDD4FF9838E
:101FB000E883C351D240C95EDD4FF881C751D2409A
:101FC000F150C95EDD4FF883C751D240C95EDD4F85
:101FD0002881C751D240222331F6CE0187549E4F2B
:101FE000C85EDD4F99838883C851D24085EE90E06A
:101FF000C65EDD4F99838883CA51D24098E0C45EA3
:10200000DD4F9883CC51D240C65EDD4FA881B981A7
:10201000CA51D2400C90C65EDD4FE881F981CA51A9
:10202000D2403196C65EDD4FF983E883CA51D24073
:10203000C85EDD4FA881B981C851D2400C92C85EFC
:10204000DD4FE881F981C851D2403196C85EDD4F3D
:10205000F983E883C851D240C45EDD4FF881CC518A
:10206000D240F150C45EDD4FF883CC51D240C45E03
:10207000DD4F2881CC51D240222331F6CE018F533F
:102080009E4FC35EDD4F99838883CD51D2408DED45
:1020900090E0C15EDD4F99838883CF51D24098E0B4
:1020A000CF5DDD4F9883C152D240C15EDD4FA88124
:1020B000B981CF51D2400C90C15EDD4FE881F981EA
:1020C000CF51D2403196C15EDD4FF983E883CF51C5
:1020D000D240C35EDD4FA881B981CD51D2400C9270
:1020E000C35EDD4FE881F981CD51D2403196C35EA8
:1020F000DD4FF983E883CD51D240CF5DDD4FF881CC
:10210000C152D240F150CF5DDD4FF883C152D24071
:10211000CF5DDD4F2881C152D240222331F6CE015E
:1021200087539E4FCE5DDD4F99838883C252D24044
:1021300085ED90E0CC5DDD4F99838883C452D24019
:1021400098E0CA5DDD4F9883C652D240CC5DDD4F2A
:10215000A881B981C452D2400C90CC5DDD4FE8819A
:10216000F981C452D2403196CC5DDD4FF983E883CA
:10217000C452D240CE5DDD4FA881B981C252D24057
:102180000C92CE5DDD4FE881F981C252D24031968A
:10219000CE5DDD4FF983E883C252D240CA5DDD4F88
:1021A000F881C652D240F150CA5DDD4FF883C65265
:1021B000D240CA5DDD4F2881C652D240222331F67B
:1021C000CE018F529E4FC95DDD4F99838883C752E0
:1021D000D2408DEC90E0C75DDD4F99838883C95272
:1021E000D24098E0C55DDD4F9883CB52D240C75DA9
:1021F000DD4FA881B981C952D2400C90C75DDD4F37
:10220000E881F981C952D2403196C75DDD4FF9832B
:10221000E883C952D240C95DDD4FA881B981C75258
:10222000D2400C92C95DDD4FE881F981C752D2409E
:102230003196C95DDD4FF983E883C752D240C55D51
:10224000DD4FF881CB52D240F150C55DDD4FF883B0
:10225000CB52D240C55DDD4F2881CB52D2402223E4
:1022600031F6CE0187529E4FC45DDD4F998388833E
:10227000CC52D24085EC90E0C25DDD4F99838883DB
:10228000CE52D24098E0C05DDD4F9883C053D2401B
:10229000C25DDD4FA881B981CE52D2400C90C25DA3
:1022A000DD4FE881F981CE52D2403196C25DDD4FDB
:1022B000F983E883CE52D240C45DDD4FA881B98155
:1022C000CC52D2400C92C45DDD4FE881F981CC52F2
:1022D000D2403196C45DDD4FF983E883CC52D240C1
:1022E000C05DDD4FF881C053D240F150C05DDD4F7D
:1022F000F883C053D240C05DDD4F2881C053D24027
:10230000222331F6CE018F519E4FCF5CDD4F998352
:102310008883C153D2408DEB90E0CD5CDD4F998333
:102320008883C353D24098E0CB5CDD4F9883C5537C
:10233000D240CD5CDD4FA881B981C353D2400C900F
:10234000CD5CDD4FE881F981C353D2403196CD5C3D
:10235000DD4FF983E883C353D240CF5CDD4FA881C2
:10236000B981C153D2400C92CF5CDD4FE881F98135
:10237000C153D2403196CF5CDD4FF983E883C1531E
:10238000D240CB5CDD4FF881C553D240F150CB5CDD
:10239000DD4FF883C553D240CB5CDD4F2881C55358
:1023A000D240222331F6CE0187519E4F28E0FC0116
:1023B000DF01322F1D923A95E9F7FE01E751FE4FFA
:1023C00080E1808381E00E941D07FE01E958FE4FF5
:1023D00080E090E0AAE7B4E480839183A283B38392
:1023E0008E010D581E4FFE01E958FE4F608171812C
:1023F0008281938120E030E04AEF54E40E9417028A
:10240000DC01CB01F80180839183A283B383FE01B9
:10241000ED58FE4F608171818281938120E030E030
:1024200040E85FE30E947103882344F4FE01EF5803
:10243000FE4F81E090E09183808364C0FE01ED58FF
:10244000FE4F608171818281938120E03FEF4FE7F1
:1024500057E40E94110318160CF043C0FE01E9581E
:10246000FE4F608171818281938120E030E040E203
:1024700051E40E941702DC01CB018E010F581E4F60
:10248000BC01CD010E944100DC01CB01F801918328
:1024900080831FC0FE01E159FE4F88EC90E09183DC
:1024A0008083FE01E159FE4F808191810197F1F710
:1024B000FE01E159FE4F91838083DE01AF58BE4F8C
:1024C000FE01EF58FE4F80819181019711969C93F8
:1024D0008E93FE01EF58FE4F808191810097D1F6D7
:1024E00027C08E010F581E4FFE01ED58FE4F608130
:1024F0007181828193810E944100DC01CB01F8014E
:1025000091838083DE01A359BE4FFE01EF58FE4F39
:10251000808191818D939C93FE01E359FE4F8081D0
:1025200091810197F1F7FE01E359FE4F918380837A
:10253000CE018F579E4F60E040E020E00E942E09C0
:10254000FE01E759FE4F80E090E0AAEFB3E48083FC
:102550009183A283B3838E010B591E4FFE01E7596D
:10256000FE4F608171818281938120E030E04AEFEB
:1025700054E40E941702DC01CB01F80180839183AF
:10258000A283B383FE01EB59FE4F6081718182818A
:10259000938120E030E040E85FE30E9471038823EC
:1025A00044F4FE01ED59FE4F81E090E09183808379
:1025B00064C0FE01EB59FE4F60817181828193817D
:1025C00020E03FEF4FE757E40E94110318160CF08C
:1025D00043C0FE01E759FE4F608171818281938182
:1025E00020E030E040E251E40E941702DC01CB0120
:1025F0008E010D591E4FBC01CD010E944100DC012E
:10260000CB01F801918380831FC0FE01EF59FE4F7B
:1026100088EC90E091838083FE01EF59FE4F80812A
:1026200091810197F1F7FE01EF59FE4F918380836D
:10263000DE01AD59BE4FFE01ED59FE4F8081918103
:10264000019711969C938E93FE01ED59FE4F808168
:1026500091810097D1F627C08E010D591E4FFE01C2
:10266000EB59FE4F60817181828193810E9441000C
:10267000DC01CB01F80191838083DE01A15ABE4FBA
:10268000FE01ED59FE4F808191818D939C93FE0157
:10269000E15AFE4F808191810197F1F7FE01E15AE5
:1026A000FE4F9183808380E062E00E94100980E603
:1026B00090E00E94E70881E063E00E9410098CE648
:1026C00090E00E94E708FE01E55AFE4F80E090E0AE
:1026D000AAE7B4E480839183A283B3838E01095A6D
:1026E0001E4FFE01E55AFE4F608171818281938108
:1026F00020E030E04AEF54E40E941702DC01CB01F5
:10270000F80180839183A283B383FE01E95AFE4FCF
:10271000608171818281938120E030E040E85FE355
:102720000E947103882344F4FE01EB5AFE4F81E0BE
:1027300090E09183808364C0FE01E95AFE4F60817E
:1027400071818281938120E03FEF4FE757E40E943F
:10275000110318160CF043C0FE01E55AFE4F6081CC
:1027600071818281938120E030E040E251E40E9457
:102770001702DC01CB018E010B5A1E4FBC01CD01AB
:102780000E944100DC01CB01F801918380831FC0CE
:10279000FE01ED5AFE4F88EC90E091838083FE01AC
:1027A000ED5AFE4F808191810197F1F7FE01ED5ABC
:1027B000FE4F91838083DE01AB5ABE4FFE01EB5A80
:1027C000FE4F80819181019711969C938E93FE011B
:1027D000EB5AFE4F808191810097D1F627C08E0180
:1027E0000B5A1E4FFE01E95AFE4F608171818281B2
:1027F00093810E944100DC01CB01F8019183808329
:10280000DE01AF5ABE4FFE01EB5AFE4F808191812F
:102810008D939C93FE01EF5AFE4F80819181019729
:10282000F1F7FE01EF5AFE4F9183808381E00E9411
:102830001D07FE01E058FE4F108297C1FE01E058CF
:10284000FE4F8081882F90E081709070009709F092
:10285000C2C0CE0187579E4FFE01E058FE4F60E098
:1028600040E020810E942E09FE01E35BFE4F80E0E4
:1028700090E0A6E9B3E480839183A283B3838E01C1
:10288000075B1E4FFE01E35BFE4F60817181828119
:10289000938120E030E04AEF54E40E941702DC010B
:1028A000CB01F80180839183A283B383FE01E75BB0
:1028B000FE4F608171818281938120E030E040E8A9
:1028C0005FE30E947103882344F4FE01E95BFE4F3D
:1028D00081E090E09183808364C0FE01E75BFE4F5E
:1028E000608171818281938120E03FEF4FE757E45F
:1028F0000E94110318160CF043C0FE01E35BFE4F6B
:10290000608171818281938120E030E040E251E476
:102910000E941702DC01CB018E01095B1E4FBC0136
:10292000CD010E944100DC01CB01F801918380833D
:102930001FC0FE01EB5BFE4F88EC90E0918380832B
:10294000FE01EB5BFE4F808191810197F1F7FE0163
:10295000EB5BFE4F91838083DE01A95BBE4FFE01DE
:10296000E95BFE4F80819181019711969C938E9334
:10297000FE01E95BFE4F808191810097D1F627C06F
:102980008E01095B1E4FFE01E75BFE4F6081718186
:10299000828193810E944100DC01CB01F801918387
:1029A0008083DE01AD5BBE4FFE01E95BFE4F80819F
:1029B00091818D939C93FE01ED5BFE4F808191810F
:1029C0000197F1F7FE01ED5BFE4F9183808381E07B
:1029D0000E941D07C1C0CE018F569E4FFE01E058D8
:1029E000FE4F60E040E020810E942E09FE01E15C84
:1029F000FE4F80E090E0A6E9B3E480839183A28358
:102A0000B3838E01055C1E4FFE01E15CFE4F6081C9
:102A100071818281938120E030E04AEF54E40E948A
:102A20001702DC01CB01F80180839183A283B38379
:102A3000FE01E55CFE4F608171818281938120E01F
:102A400030E040E85FE30E947103882344F4FE0114
:102A5000E75CFE4F81E090E09183808364C0FE01DB
:102A6000E55CFE4F608171818281938120E03FEFC0
:102A70004FE757E40E94110318160CF043C0FE0103
:102A8000E15CFE4F608171818281938120E030E0C2
:102A900040E251E40E941702DC01CB018E01075C89
:102AA0001E4FBC01CD010E944100DC01CB01F801A9
:102AB000918380831FC0FE01E95CFE4F88EC90E0AB
:102AC00091838083FE01E95CFE4F808191810197B3
:102AD000F1F7FE01E95CFE4F91838083DE01A75C84
:102AE000BE4FFE01E75CFE4F8081918101971196F8
:102AF0009C938E93FE01E75CFE4F8081918100974D
:102B0000D1F627C08E01075C1E4FFE01E55CFE4F2B
:102B100060817181828193810E944100DC01CB013F
:102B2000F80191838083DE01AB5CBE4FFE01E75C60
:102B3000FE4F808191818D939C93FE01EB5CFE4F53
:102B4000808191810197F1F7FE01EB5CFE4F91834B
:102B5000808381E00E941D07DE01A058BE4FFE0168
:102B6000E058FE4F80818F5F8C93FE01E058FE4F4E
:102B70008081803108F462CE81E00E941D07CE0181
:102B80008F579E4F60E040E02FE00E942E09FE012B
:102B9000EF5CFE4F80E090E0AAEFB3E48083918386
:102BA000A283B3838E01035D1E4FFE01EF5CFE4FD7
:102BB000608171818281938120E030E04AEF54E4AA
:102BC0000E941702DC01CB01F80180839183A2836C
:102BD000B383FE01E35DFE4F608171818281938149
:102BE00020E030E040E85FE30E947103882344F472
:102BF000FE01E55DFE4F81E090E09183808364C03B
:102C0000FE01E35DFE4F608171818281938120E04E
:102C10003FEF4FE757E40E94110318160CF043C032
:102C2000FE01EF5CFE4F608171818281938120E023
:102C300030E040E251E40E941702DC01CB018E013A
:102C4000055D1E4FBC01CD010E944100DC01CB019E
:102C5000F801918380831FC0FE01E75DFE4F88EC81
:102C600090E091838083FE01E75DFE4F808191813A
:102C70000197F1F7FE01E75DFE4F91838083DE014E
:102C8000A55DBE4FFE01E55DFE4F808191810197FC
:102C900011969C938E93FE01E55DFE4F808191819C
:102CA0000097D1F627C08E01055D1E4FFE01E35D42
:102CB000FE4F60817181828193810E944100DC011D
:102CC000CB01F80191838083DE01A95DBE4FFE0137
:102CD000E55DFE4F808191818D939C93FE01E95DBE
:102CE000FE4F808191810197F1F7FE01E95DFE4F72
:102CF0009183808380E060E00E94100985E790E086
:102D00000E94E70881E060E00E94100980E890E0FE
:102D10000E94E708FE01ED5DFE4F80E090E0AAE72B
:102D2000B4E480839183A283B3838E01015E1E4F3E
:102D3000FE01ED5DFE4F608171818281938120E013
:102D400030E04AEF54E40E941702DC01CB01F801A5
:102D500080839183A283B383FE01E15EFE4F608195
:102D600071818281938120E030E040E85FE30E943E
:102D70007103882344F4FE01E35EFE4F81E090E09E
:102D80009183808364C0FE01E15EFE4F60817181AA
:102D90008281938120E03FEF4FE757E40E941103C7
:102DA00018160CF043C0FE01ED5DFE4F608171818D
:102DB0008281938120E030E040E251E40E941702DA
:102DC000DC01CB018E01035E1E4FBC01CD010E94D0
:102DD0004100DC01CB01F801918380831FC0FE011B
:102DE000E55EFE4F88EC90E091838083FE01E55E16
:102DF000FE4F808191810197F1F7FE01E55EFE4F64
:102E000091838083DE01A35EBE4FFE01E35EFE4F31
:102E100080819181019711969C938E93FE01E35ED0
:102E2000FE4F808191810097D1F628C08E01035E0C
:102E30001E4FFE01E15EFE4F6081718182819381B0
:102E40000E944100DC01CB01F80191838083DE0107
:102E5000A75EBE4FFE01E35EFE4F80819181119619
:102E60009C938E93FE01E75EFE4F808191810197D6
:102E7000F1F7FE01E75EFE4F91838083FE01E1588A
:102E8000FE4F1082C2C6FE01E258FE4F1082ADC650
:102E9000FE01E258FE4F8081282F30E0CD50DE4FFA
:102EA00039832883C35FD140CD50DE4F888199811B
:102EB000C35FD1408230910509F4ABC1CD50DE4FE4
:102EC000A881B981C35FD140A330B1059CF4CD5036
:102ED000DE4FE881F981C35FD140309701F1CD50D9
:102EE000DE4F28813981C35FD1402130310509F49B
:102EF000D3C011C3CD50DE4F88819981C35FD140CB
:102F00008330910509F442C2CD50DE4FA881B981CA
:102F1000C35FD140A430B10509F4F5C2FCC2CE01B3
:102F200087569E4F60E040E02FE00E942E09FE0190
:102F3000EB5EFE4F80E090E0A8E4B3E480839183F1
:102F4000A283B3838E010F5E1E4FFE01EB5EFE4F28
:102F5000608171818281938120E030E04AEF54E406
:102F60000E941702DC01CB01F80180839183A283C8
:102F7000B383FE01EF5EFE4F608171818281938198
:102F800020E030E040E85FE30E947103882344F4CE
:102F9000FE01E15FFE4F81E090E09183808364C099
:102FA000FE01EF5EFE4F608171818281938120E09E
:102FB0003FEF4FE757E40E94110318160CF043C08F
:102FC000FE01EB5EFE4F608171818281938120E082
:102FD00030E040E251E40E941702DC01CB018E0197
:102FE000015F1E4FBC01CD010E944100DC01CB01FD
:102FF000F801918380831FC0FE01E35FFE4F88ECE0
:1030000090E091838083FE01E35FFE4F8081918198
:103010000197F1F7FE01E35FFE4F91838083DE01AC
:10302000A15FBE4FFE01E15FFE4F8081918101975C
:1030300011969C938E93FE01E15FFE4F80819181FA
:103040000097D1F668C28E01015F1E4FFE01EF5E50
:10305000FE4F60817181828193810E944100DC0179
:10306000CB01F80191838083DE01A55FBE4FFE0195
:10307000E15FFE4F8081918111969C938E93FE01BA
:10308000E55FFE4F808191810197F1F7FE01E55FD9
:10309000FE4F918380833FC2CE018F559E4F60E0EB
:1030A00040E02FE00E942E09FE01E95FFE4F80E024
:1030B00090E0A8E4B3E480839183A283B3838E017C
:1030C0000D5F1E4FFE01E95FFE4F608171818281BD
:1030D000938120E030E04AEF54E40E941702DC01C3
:1030E000CB01F80180839183A283B383FE01ED5F5E
:1030F000FE4F608171818281938120E030E040E861
:103100005FE30E947103882344F4FE01EF5FFE4FEA
:1031100081E090E09183808364C0FE01ED5FFE4F0B
:10312000608171818281938120E03FEF4FE757E416
:103130000E94110318160CF043C0FE01E95FFE4F18
:10314000608171818281938120E030E040E251E42E
:103150000E941702DC01CB018E010F5F1E4FBC01E4
:10316000CD010E944100DC01CB01F80191838083F5
:103170001FC0FE01E150FF4F88EC90E091838083F7
:10318000FE01E150FF4F808191810197F1F7FE012F
:10319000E150FF4F91838083DE01AF5FBE4FFE01A0
:1031A000EF5FFE4F80819181019711969C938E93E2
:1031B000FE01EF5FFE4F808191810097D1F6ABC198
:1031C0008E010F5F1E4FFE01ED5FFE4F608171812A
:1031D000828193810E944100DC01CB01F80191833F
:1031E0008083DE01A350BF4FFE01EF5FFE4F808161
:1031F000918111969C938E93FE01E350FF4F808145
:1032000091810197F1F7FE01E350FF4F9183808395
:1032100082C1CE0187559E4F60E040E02FE00E94C2
:103220002E09FE01E750FF4F80E090E0A8E4B3E4F0
:1032300080839183A283B3838E010B501F4FFE01C5
:10324000E750FF4F608171818281938120E030E0FF
:103250004AEF54E40E941702DC01CB01F80180839D
:103260009183A283B383FE01EB50FF4F6081718194
:103270008281938120E030E040E85FE30E947103A7
:10328000882344F4FE01ED50FF4F81E090E09183EC
:10329000808364C0FE01EB50FF4F608171818281A9
:1032A000938120E03FEF4FE757E40E941103181687
:1032B0000CF043C0FE01E750FF4F608171818281B5
:1032C000938120E030E040E251E40E941702DC01EB
:1032D000CB018E010D501F4FBC01CD010E9441005A
:1032E000DC01CB01F801918380831FC0FE01EF5008
:1032F000FF4F88EC90E091838083FE01EF50FF4FF9
:10330000808191810197F1F7FE01EF50FF4F91838A
:103310008083DE01AD50BF4FFE01ED50FF4F808135
:103320009181019711969C938E93FE01ED50FF4F72
:10333000808191810097D1F6EEC08E010D501F4F14
:10334000FE01EB50FF4F60817181828193810E9469
:103350004100DC01CB01F80191838083DE01A151A2
:10336000BF4FFE01ED50FF4F8081918111969C93DC
:103370008E93FE01E151FF4F808191810197F1F71A
:10338000FE01E151FF4F91838083C5C0CE018F5470
:103390009E4F60E040E02FE00E942E09FE01E551C3
:1033A000FF4F80E090E0A8E4B3E480839183A283A0
:1033B000B3838E0109511F4FFE01E551FF4F60811C
:1033C00071818281938120E030E04AEF54E40E94D1
:1033D0001702DC01CB01F80180839183A283B383C0
:1033E000FE01E951FF4F608171818281938120E06C
:1033F00030E040E85FE30E947103882344F4FE015B
:10340000EB51FF4F81E090E09183808364C0FE0127
:10341000E951FF4F608171818281938120E03FEF0C
:103420004FE757E40E94110318160CF043C0FE0149
:10343000E551FF4F608171818281938120E030E00E
:1034400040E251E40E941702DC01CB018E010B51D6
:103450001F4FBC01CD010E944100DC01CB01F801EE
:10346000918380831FC0FE01ED51FF4F88EC90E0F7
:1034700091838083FE01ED51FF4F808191810197FF
:10348000F1F7FE01ED51FF4F91838083DE01AB51D7
:10349000BF4FFE01EB51FF4F808191810197119643
:1034A0009C938E93FE01EB51FF4F80819181009799
:1034B000D1F631C08E010B511F4FFE01E951FF4F74
:1034C00060817181828193810E944100DC01CB0186
:1034D000F80191838083DE01AF51BF4FFE01EB51B4
:1034E000FF4F8081918111969C938E93FE01EF5145
:1034F000FF4F808191810197F1F7FE01EF51FF4F5E
:103500009183808308C0CE0187549E4F60E040E0E5
:103510002FE00E942E09FE01E258FE4F8081843088
:1035200009F05AC3FE01E358FE4F85E080834DC386
:10353000FE01E358FE4F8081282F30E0CF50DE4F50
:1035400039832883C15FD140CF50DE4F8881998174
:10355000C15FD1408330910509F4ACC1CF50DE4F3B
:10356000A881B981C15FD140A430B105ACF4CF507E
:10357000DE4FE881F981C15FD140E130F10509F406
:1035800013C3CF50DE4F28813981C15FD140223033
:10359000310509F44CC210C3CF50DE4F88819981A8
:1035A000C15FD1408430910509F4C7C0CF50DE4FD0
:1035B000A881B981C15FD140A530B10509F0FCC235
:1035C000CE0187549E4F60E040E02FE00E942E091C
:1035D000FE01E352FF4F80E090E0A8E4B3E4808373
:1035E0009183A283B3838E0107521F4FFE01E352E2
:1035F000FF4F608171818281938120E030E04AEF4A
:1036000054E40E941702DC01CB01F801808391830E
:10361000A283B383FE01E752FF4F608171818281F3
:10362000938120E030E040E85FE30E94710388234B
:1036300044F4FE01E952FF4F81E090E091838083E2
:1036400064C0FE01E752FF4F6081718182819381E6
:1036500020E03FEF4FE757E40E94110318160CF0EB
:1036600043C0FE01E352FF4F6081718182819381EB
:1036700020E030E040E251E40E941702DC01CB017F
:103680008E0109521F4FBC01CD010E944100DC0197
:10369000CB01F801918380831FC0FE01EB52FF4FE5
:1036A00088EC90E091838083FE01EB52FF4F808194
:1036B00091810197F1F7FE01EB52FF4F91838083D7
:1036C000DE01A952BF4FFE01E952FF4F8081918177
:1036D000019711969C938E93FE01E952FF4F8081D2
:1036E00091810097D1F668C28E0109521F4FFE01E9
:1036F000E752FF4F60817181828193810E94410076
:10370000DC01CB01F80191838083DE01AD52BF4F14
:10371000FE01E952FF4F8081918111969C938E9317
:10372000FE01ED52FF4F808191810197F1F7FE017B
:10373000ED52FF4F918380833FC2CE018F549E4F45
:1037400060E040E02FE00E942E09FE01E153FF4FB0
:1037500080E090E0A8E4B3E480839183A283B38304
:103760008E0105531F4FFE01E153FF4F60817181B0
:103770008281938120E030E04AEF54E40E941702F6
:10378000DC01CB01F80180839183A283B383FE0126
:10379000E553FF4F608171818281938120E030E0A9
:1037A00040E85FE30E947103882344F4FE01E7537D
:1037B000FF4F81E090E09183808364C0FE01E55378
:1037C000FF4F608171818281938120E03FEF4FE75D
:1037D00057E40E94110318160CF043C0FE01E15398
:1037E000FF4F608171818281938120E030E040E26F
:1037F00051E40E941702DC01CB018E0107531F4FD9
:10380000BC01CD010E944100DC01CB01F801918394
:1038100080831FC0FE01E953FF4F88EC90E0918345
:103820008083FE01E953FF4F808191810197F1F779
:10383000FE01E953FF4F91838083DE01A753BF4F01
:10384000FE01E753FF4F80819181019711969C9370
:103850008E93FE01E753FF4F808191810097D1F64F
:10386000ABC18E0107531F4FFE01E553FF4F60812F
:103870007181828193810E944100DC01CB01F801BA
:1038800091838083DE01AB53BF4FFE01E753FF4FAF
:103890008081918111969C938E93FE01EB53FF4F93
:1038A000808191810197F1F7FE01EB53FF4F9183E6
:1038B000808382C1CE0187559E4F60E040E02FE0BB
:1038C0000E942E09FE01EF53FF4F80E090E0A8E434
:1038D000B3E480839183A283B3838E0103541F4F8B
:1038E000FE01EF53FF4F608171818281938120E05F
:1038F00030E04AEF54E40E941702DC01CB01F801EA
:1039000080839183A283B383FE01E354FF4F6081E0
:1039100071818281938120E030E040E85FE30E9482
:103920007103882344F4FE01E554FF4F81E090E0E9
:103930009183808364C0FE01E354FF4F60817181F5
:103940008281938120E03FEF4FE757E40E9411030B
:1039500018160CF043C0FE01EF53FF4F60817181D8
:103960008281938120E030E040E251E40E9417021E
:10397000DC01CB018E0105541F4FBC01CD010E941B
:103980004100DC01CB01F801918380831FC0FE015F
:10399000E754FF4F88EC90E091838083FE01E75469
:1039A000FF4F808191810197F1F7FE01E754FF4FAE
:1039B00091838083DE01A554BF4FFE01E554FF4F84
:1039C00080819181019711969C938E93FE01E5541D
:1039D000FF4F808191810097D1F6EEC08E01055492
:1039E0001F4FFE01E354FF4F6081718182819381FB
:1039F0000E944100DC01CB01F80191838083DE014C
:103A0000A954BF4FFE01E554FF4F8081918111966B
:103A10009C938E93FE01E954FF4F80819181019721
:103A2000F1F7FE01E954FF4F91838083C5C0CE01B9
:103A30008F559E4F60E040E02FE00E942E09FE016E
:103A4000ED54FF4F80E090E0A8E4B3E480839183DD
:103A5000A283B3838E0101551F4FFE01ED54FF4F2A
:103A6000608171818281938120E030E04AEF54E4EB
:103A70000E941702DC01CB01F80180839183A283AD
:103A8000B383FE01E155FF4F608171818281938193
:103A900020E030E040E85FE30E947103882344F4B3
:103AA000FE01E355FF4F81E090E09183808364C085
:103AB000FE01E155FF4F608171818281938120E099
:103AC0003FEF4FE757E40E94110318160CF043C074
:103AD000FE01ED54FF4F608171818281938120E06E
:103AE00030E040E251E40E941702DC01CB018E017C
:103AF00003551F4FBC01CD010E944100DC01CB01E9
:103B0000F801918380831FC0FE01E555FF4F88ECCB
:103B100090E091838083FE01E555FF4F8081918184
:103B20000197F1F7FE01E555FF4F91838083DE0198
:103B3000A355BF4FFE01E355FF4F8081918101974F
:103B400011969C938E93FE01E355FF4F80819181E6
:103B50000097D1F631C08E0103551F4FFE01E1558C
:103B6000FF4F60817181828193810E944100DC015D
:103B7000CB01F80191838083DE01A755BF4FFE0181
:103B8000E355FF4F8081918111969C938E93FE01A6
:103B9000E755FF4F808191810197F1F7FE01E755CD
:103BA000FF4F9183808308C0CE0187569E4F60E00F
:103BB00040E02FE00E942E09DE01A358BE4FFE0117
:103BC000E358FE4F808181508C93FE01E358FE4FF5
:103BD0008081882309F0ACCCDE01A258BE4FFE01E3
:103BE000E258FE4F80818F5F8C93FE01E258FE4FBA
:103BF0008081853008F44CC9DE01A158BE4FFE011A
:103C0000E158FE4F80818F5F8C93FE01E158FE4F9B
:103C10008081833008F437C981E00E941D07CE01FE
:103C20008F579E4F60E040E02FE00E942E0980E019
:103C300060E00E94100989E890E00E94E70881E0B6
:103C400060E00E94100984E990E00E94E708FE010C
:103C5000EB55FF4F80E090E0AAEFB3E480839183BF
:103C6000A283B3838E010F551F4FFE01EB55FF4F0B
:103C7000608171818281938120E030E04AEF54E4D9
:103C80000E941702DC01CB01F80180839183A2839B
:103C9000B383FE01EF55FF4F608171818281938173
:103CA00020E030E040E85FE30E947103882344F4A1
:103CB000FE01E156FF4F81E090E09183808364C074
:103CC000FE01EF55FF4F608171818281938120E079
:103CD0003FEF4FE757E40E94110318160CF043C062
:103CE000FE01EB55FF4F608171818281938120E05D
:103CF00030E040E251E40E941702DC01CB018E016A
:103D000001561F4FBC01CD010E944100DC01CB01D7
:103D1000F801918380831FC0FE01E356FF4F88ECBA
:103D200090E091838083FE01E356FF4F8081918173
:103D30000197F1F7FE01E356FF4F91838083DE0187
:103D4000A156BF4FFE01E156FF4F8081918101973F
:103D500011969C938E93FE01E156FF4F80819181D5
:103D60000097D1F628C08E0101561F4FFE01EF5576
:103D7000FF4F60817181828193810E944100DC014B
:103D8000CB01F80191838083DE01A556BF4FFE0170
:103D9000E156FF4F8081918111969C938E93FE0195
:103DA000E556FF4F808191810197F1F7FE01E556BD
:103DB000FF4F91838083FE01E458FE4F10828CC137
:103DC000FE01E458FE4F8081882F90E08170907052
:103DD000009709F0BDC0CE018F539E4F60E040E0D8
:103DE0002FE00E942E09FE01E956FF4F80E090E08F
:103DF000AAEFB3E480839183A283B3838E010D562F
:103E00001F4FFE01E956FF4F6081718182819381CE
:103E100020E030E04AEF54E40E941702DC01CB01BD
:103E2000F80180839183A283B383FE01ED56FF4F97
:103E3000608171818281938120E030E040E85FE31E
:103E40000E947103882344F4FE01EF56FF4F81E086
:103E500090E09183808364C0FE01ED56FF4F608146
:103E600071818281938120E03FEF4FE757E40E9408
:103E7000110318160CF043C0FE01E956FF4F608194
:103E800071818281938120E030E040E251E40E9420
:103E90001702DC01CB018E010F561F4FBC01CD0173
:103EA0000E944100DC01CB01F801918380831FC097
:103EB000FE01E157FF4F88EC90E091838083FE0183
:103EC000E157FF4F808191810197F1F7FE01E157A2
:103ED000FF4F91838083DE01AF56BF4FFE01EF5647
:103EE000FF4F80819181019711969C938E93FE01E3
:103EF000EF56FF4F808191810097D1F6E4C08E018B
:103F00000F561F4FFE01ED56FF4F60817181828178
:103F100093810E944100DC01CB01F80191838083F1
:103F2000DE01A357BF4FFE01EF56FF4F8081918105
:103F300011969C938E93FE01E357FF4F80819181F0
:103F40000197F1F7FE01E357FF4F91838083BBC0D8
:103F5000CE0187539E4F60E040E02FE00E942E0983
:103F6000FE01E757FF4F80E090E0AAEFB3E48083C3
:103F70009183A283B3838E010B571F4FFE01E75736
:103F8000FF4F608171818281938120E030E04AEFB0
:103F900054E40E941702DC01CB01F8018083918375
:103FA000A283B383FE01EB57FF4F60817181828151
:103FB000938120E030E040E85FE30E9471038823B2
:103FC00044F4FE01ED57FF4F81E090E09183808340
:103FD00064C0FE01EB57FF4F608171818281938144
:103FE00020E03FEF4FE757E40E94110318160CF052
:103FF00043C0FE01E757FF4F608171818281938149
:1040000020E030E040E251E40E941702DC01CB01E5
:104010008E010D571F4FBC01CD010E944100DC01F4
:10402000CB01F801918380831FC0FE01EF57FF4F42
:1040300088EC90E091838083FE01EF57FF4F8081F1
:1040400091810197F1F7FE01EF57FF4F9183808334
:10405000DE01AD57BF4FFE01ED57FF4F80819181CB
:10406000019711969C938E93FE01ED57FF4F80812F
:1040700091810097D1F627C08E010D571F4FFE0189
:10408000EB57FF4F60817181828193810E944100D3
:10409000DC01CB01F80191838083DE01A158BF4F81
:1040A000FE01ED57FF4F808191818D939C93FE011E
:1040B000E158FF4F808191810197F1F7FE01E158AE
:1040C000FF4F91838083DE01A458BE4FFE01E45868
:1040D000FE4F80818F5F8C93FE01E458FE4F8081FC
:1040E0008A3008F46DCE81E00E941D07CE018F5703
:1040F0009E4F60E040E02FE00E942E09FE01E5584F
:10410000FF4F80E090E0AAE7B4E480839183A2832C
:10411000B3838E0109581F4FFE01E558FF4F6081A0
:1041200071818281938120E030E04AEF54E40E9463
:104130001702DC01CB01F80180839183A283B38352
:10414000FE01E958FF4F608171818281938120E0F7
:1041500030E040E85FE30E947103882344F4FE01ED
:10416000EB58FF4F81E090E09183808364C0FE01B3
:10417000E958FF4F608171818281938120E03FEF98
:104180004FE757E40E94110318160CF043C0FE01DC
:10419000E558FF4F608171818281938120E030E09A
:1041A00040E251E40E941702DC01CB018E010B5862
:1041B0001F4FBC01CD010E944100DC01CB01F80181
:1041C000918380831FC0FE01ED58FF4F88EC90E083
:1041D00091838083FE01ED58FF4F8081918101978B
:1041E000F1F7FE01ED58FF4F91838083DE01AB585C
:1041F000BF4FFE01EB58FF4F8081918101971196CF
:104200009C938E93FE01EB58FF4F80819181009724
:10421000D1F627C08E010B581F4FFE01E958FF4F02
:1042200060817181828193810E944100DC01CB0118
:10423000F80191838083DE01AF58BF4FFE01EB5838
:10424000FF4F808191818D939C93FE01EF58FF4F2A
:10425000808191810197F1F7FE01EF58FF4F918323
:104260008083CE018F529E4F61E040E020E00E94AB
:104270002E09FE01E359FF4F80E090E0AAE7B4E485
:1042800080839183A283B3838E0107591F4FFE0160
:10429000E359FF4F608171818281938120E030E09A
:1042A0004AEF54E40E941702DC01CB01F80180833D
:1042B0009183A283B383FE01E759FF4F608171812F
:1042C0008281938120E030E040E85FE30E94710347
:1042D000882344F4FE01E959FF4F81E090E0918387
:1042E000808364C0FE01E759FF4F60817181828144
:1042F000938120E03FEF4FE757E40E941103181627
:104300000CF043C0FE01E359FF4F6081718182814F
:10431000938120E030E040E251E40E941702DC018A
:10432000CB018E0109591F4FBC01CD010E944100F4
:10433000DC01CB01F801918380831FC0FE01EB59A2
:10434000FF4F88EC90E091838083FE01EB59FF4F93
:10435000808191810197F1F7FE01EB59FF4F918325
:104360008083DE01A959BF4FFE01E959FF4F8081CB
:104370009181019711969C938E93FE01E959FF4F0D
:10438000808191810097D1F627C08E0109591F4F76
:10439000FE01E759FF4F60817181828193810E9404
:1043A0004100DC01CB01F80191838083DE01AD592E
:1043B000BF4FFE01E959FF4F808191818D939C93FE
:1043C000FE01ED59FF4F808191810197F1F7FE01C8
:1043D000ED59FF4F91838083CE0187579E4F60E058
:1043E00040E02FE00E942E09FE01E15AFF4F80E0DD
:1043F00090E0AAE7B4E480839183A283B3838E0123
:10440000055A1F4FFE01E15AFF4F60817181828181
:10441000938120E030E04AEF54E40E941702DC016F
:10442000CB01F80180839183A283B383FE01E55A17
:10443000FF4F608171818281938120E030E040E80C
:104440005FE30E947103882344F4FE01E75AFF4FA3
:1044500081E090E09183808364C0FE01E55AFF4FC4
:10446000608171818281938120E03FEF4FE757E4C3
:104470000E94110318160CF043C0FE01E15AFF4FD1
:10448000608171818281938120E030E040E251E4DB
:104490000E941702DC01CB018E01075A1F4FBC019D
:1044A000CD010E944100DC01CB01F80191838083A2
:1044B0001FC0FE01E95AFF4F88EC90E09183808392
:1044C000FE01E95AFF4F808191810197F1F7FE01CA
:1044D000E95AFF4F91838083DE01A75ABF4FFE0147
:1044E000E75AFF4F80819181019711969C938E939B
:1044F000FE01E75AFF4F808191810097D1F627C0D6
:104500008E01075A1F4FFE01E55AFF4F60817181EE
:10451000828193810E944100DC01CB01F8019183EB
:104520008083DE01AB5ABF4FFE01E75AFF4F808107
:1045300091818D939C93FE01EB5AFF4F8081918175
:104540000197F1F7FE01EB5AFF4F91838083CE0173
:104550008F579E4F60E040E02FE00E942E09FE0141
:10456000EF5AFF4F80E090E0AAE7B4E480839183A4
:10457000A283B3838E01035B1F4FFE01EF5AFF4FEF
:10458000608171818281938120E030E04AEF54E4C0
:104590000E941702DC01CB01F80180839183A28382
:1045A000B383FE01E35BFF4F608171818281938160
:1045B00020E030E040E85FE30E947103882344F488
:1045C000FE01E55BFF4F81E090E09183808364C052
:1045D000FE01E35BFF4F608171818281938120E066
:1045E0003FEF4FE757E40E94110318160CF043C049
:1045F000FE01EF5AFF4F608171818281938120E03B
:1046000030E040E251E40E941702DC01CB018E0150
:10461000055B1F4FBC01CD010E944100DC01CB01B5
:10462000F801918380831FC0FE01E75BFF4F88EC98
:1046300090E091838083FE01E75BFF4F8081918151
:104640000197F1F7FE01E75BFF4F91838083DE0165
:10465000A55BBF4FFE01E55BFF4F80819181019714
:1046600011969C938E93FE01E55BFF4F80819181B3
:104670000097D1F627C08E01055B1F4FFE01E35B5B
:10468000FF4F60817181828193810E944100DC0132
:10469000CB01F80191838083DE01A95BBF4FFE014E
:1046A000E55BFF4F808191818D939C93FE01E95BD7
:1046B000FF4F808191810197F1F7FE01E95BFF4F88
:1046C00091838083CE0187579E4F60E040E02FE0CA
:1046D0000E942E09FE01ED5BFF4F80E090E0AAE70B
:1046E000B4E480839183A283B3838E01015C1F4F66
:1046F000FE01ED5BFF4F608171818281938120E03B
:1047000030E04AEF54E40E941702DC01CB01F801CB
:1047100080839183A283B383FE01FF9660817181C0
:104720008281938120E030E040E85FE30E947103E2
:1047300088232CF481E090E09EAF8DAF46C0FE014F
:10474000FF96608171818281938120E03FEF4FE786
:1047500057E40E941103181664F5FE01ED5BFF4F4C
:10476000608171818281938120E030E040E251E4F8
:104770000E941702DC01CB01BC01CD010E94410067
:10478000DC01CB019EAF8DAF0FC088EC90E09CAFF9
:104790008BAF8BAD9CAD0197F1F79CAF8BAF8DAD1F
:1047A0009EAD01979EAF8DAF8DAD9EAD009769F721
:1047B00016C0FE01FF9660817181828193810E9403
:1047C0004100DC01CB019EAF8DAF8DAD9EAD9AAFA8
:1047D00089AF89AD9AAD0197F1F79AAF89AFCE0154
:1047E00087529E4F60E040E02FE00E942E0981E05A
:1047F00060E00E94100980E090E0AAE7B4E48DAB8D
:104800009EABAFABB8AF6DA97EA98FA998AD20E0E4
:1048100030E04AEF54E40E941702DC01CB0189AB7F
:104820009AABABABBCAB69A97AA98BA99CA920E0D8
:1048300030E040E85FE30E94710388232CF481E0BC
:1048400090E098AB8FA73FC069A97AA98BA99CA9D2
:1048500020E03FEF4FE757E40E94110318164CF594
:104860006DA97EA98FA998AD20E030E040E251E427
:104870000E941702DC01CB01BC01CD010E94410066
:10488000DC01CB0198AB8FA70FC088EC90E09EA70E
:104890008DA78DA59EA50197F1F79EA78DA78FA542
:1048A00098A9019798AB8FA78FA598A9009769F74A
:1048B00014C069A97AA98BA99CA90E944100DC01B6
:1048C000CB0198AB8FA78FA598A99CA78BA78BA589
:1048D0009CA50197F1F79CA78BA78AE990E00E941D
:1048E000E70880E090E0AAEFB4E48FA398A7A9A717
:1048F000BAA76FA178A589A59AA520E030E04AEF74
:1049000054E40E941702DC01CB018BA39CA3ADA34E
:10491000BEA36BA17CA18DA19EA120E030E040E868
:104920005FE30E94710388232CF481E090E09AA356
:1049300089A33FC06BA17CA18DA19EA120E03FEF88
:104940004FE757E40E94110318164CF56FA178A5A4
:1049500089A59AA520E030E040E251E40E941702C8
:10496000DC01CB01BC01CD010E944100DC01CB0187
:104970009AA389A30FC088EC90E098A38F8F8F8DA6
:1049800098A10197F1F798A38F8F89A19AA1019718
:104990009AA389A389A19AA1009769F714C06BA172
:1049A0007CA18DA19EA10E944100DC01CB019AA3B4
:1049B00089A389A19AA19E8F8D8F8D8D9E8D019740
:1049C000F1F79E8F8D8FFE01E558FE4F81E08083C9
:1049D00099C081E00E941D07CE0187529E4F60E082
:1049E00040E02FE00E942E09CE018F529E4F61E0E1
:1049F00040E020E00E942E09CE0187519E4FFE012B
:104A0000E558FE4F62E040E020810E942E0980E0E0
:104A100090E0A8E4B3E4898F9A8FAB8FBC8F698D47
:104A20007A8D8B8D9C8D20E030E04AEF54E40E941B
:104A30001702DC01CB018D8B9E8BAF8BB88F6D89FC
:104A40007E898F89988D20E030E040E85FE30E9406
:104A5000710388232CF481E090E09C8B8B8B3FC00A
:104A60006D897E898F89988D20E03FEF4FE757E46D
:104A70000E94110318164CF5698D7A8D8B8D9C8DD3
:104A800020E030E040E251E40E941702DC01CB015B
:104A9000BC01CD010E944100DC01CB019C8B8B8BC2
:104AA0000FC088EC90E09A8B898B89899A8901974D
:104AB000F1F79A8B898B8B899C8901979C8B8B8BC7
:104AC0008B899C89009769F714C06D897E898F89CD
:104AD000988D0E944100DC01CB019C8B8B8B8B89D4
:104AE0009C89988B8F878F8598890197F1F7988B90
:104AF0008F87DE01A558BE4FFE01E558FE4F80812D
:104B00008F5F8C93FE01E558FE4F80818F3008F453
:104B100060CF81E00E941D07CE018F529E4F61E061
:104B200040E020E00E942E09CE018F519E4F60E0B0
:104B300040E02FE00E942E0980E090E0AAE7B4E474
:104B40008B879C87AD87BE876B857C858D859E8591
:104B500020E030E04AEF54E40E941702DC01CB0170
:104B60008F839887A987BA876F81788589859A8589
:104B700020E030E040E85FE30E94710388232CF4DA
:104B800081E090E09E838D833FC06F817885898529
:104B90009A8520E03FEF4FE757E40E941103181673
:104BA0004CF56B857C858D859E8520E030E040E26C
:104BB00051E40E941702DC01CB01BC01CD010E942F
:104BC0004100DC01CB019E838D830FC088EC90E017
:104BD0009C838B838B819C810197F1F79C838B83D2
:104BE0008D819E8101979E838D838D819E8100970B
:104BF00069F7E9CE6F81788589859A850E944100A1
:104C0000DC01CB019E838D838D819E819A83898374
:104C100089819A810197F1F79A838983D4CEA1E2A1
:104C20001A2EAA1BBB1BFD010DC0AA1FBB1FEE1F26
:104C3000FF1FA217B307E407F50720F0A21BB30B71
:104C4000E40BF50B661F771F881F991F1A9469F7ED
:104C500060957095809590959B01AC01BD01CF0149
:104C600008952F923F924F925F926F927F928F9210
:104C70009F92AF92BF92CF92DF92EF92FF920F93EB
:104C80001F93CF93DF93CDB7DEB7CA1BDB0B0FB6F5
:104C9000F894DEBF0FBECDBF09942A8839884888B2
:104CA0005F846E847D848C849B84AA84B984C88448
:104CB000DF80EE80FD800C811B81AA81B981CE0F3F
:104CC000D11D0FB6F894DEBF0FBECDBFED01089524
:044CD000F894FFCF86
:104CD40048656C6C6F204920616D200048414D4F40
:104CE4004B53484100492063616E20706C61790028
:104CF400666F6F7462616C6C00492063616E206141
:104D04006C736F0044616E636500506C7320446F74
:104D14006E74204B696C6C206D650000000000000F
:104D24000000003F065B4F666D7C077F6F0000004C
:104D3400031F0300000E04151F04040A111F1F148F
:104D44001C181800000E140C0605040A110E0506A2
:104D54000C14040A111707020202020202071702C6
:104D640002020202020707120202020202070702FB
:104D7400120202020207070202121E02020E0E04AF
:104D84000C16040A110E0E0404040404040E041F79
:064D94001515040A1100D0
:00000001FF
