:100000000C942A000C947A110C94AD110C94E0110C
:100010000C9447000C9447000C9447000C94470044
:100020000C9447000C9447000C94A10D0C944700CD
:100030000C9447000C9447000C9447000C94470024
:100040000C94ED0E0C9447000C9447000C94470060
:100050000C94470011241FBECFE5D8E0DEBFCDBF12
:1000600011E0A0E6B0E0ECEDFDE202C005900D92DB
:10007000A439B107D9F711E0A4E9B1E001C01D929C
:10008000A53AB107E1F70E943C160C94EC160C94CB
:100090000000EF92FF920F931F937B018C0120E0F1
:1000A00030E040E05FE40E94490388238CF0C801FF
:1000B000B70120E030E040E05FE40E94C1010E940F
:1000C00007049B01AC01205030404040504806C01E
:1000D000C801B7010E9407049B01AC01B901CA0124
:1000E0001F910F91FF90EF900895A0E0B0E0EBE733
:1000F000F0E00C94B516DC012B01FA019C919230D2
:1001000008F439C1EB018881823008F433C194309E
:1001100069F4843009F02FC111969C91119789815F
:10012000981709F428C1A0E6B0E025C1843009F48D
:1001300021C18230A9F4923009F01DC19A01AD01AC
:1001400088E0EA010990AE01E90109929E0181501F
:10015000C1F7E201898111969C918923818308C1AD
:10016000923009F407C112962D903C901397EB0141
:100170008A819B811496AD90BD90CD90DC901797AD
:10018000EC80FD800E811F819101281B390BB90184
:1001900037FF04C066277727621B730B6032710537
:1001A0000CF061C0121613066CF537014801062EDB
:1001B00004C096948794779467940A94D2F721E0C8
:1001C00030E040E050E004C0220F331F441F551FB1
:1001D0006A95D2F721503040404050402E213F21B7
:1001E00040235123211531054105510521F021E01E
:1001F00030E040E050E079018A01E628F72808293C
:1002000019293CC0232BD1F1260E371E350146019A
:10021000062E04C096948794779467940A94D2F734
:1002200021E030E040E050E004C0220F331F441FC3
:10023000551F6A95D2F721503040404050402A2146
:100240003B214C215D21211531054105510521F04E
:1002500021E030E040E050E059016A01A628B728CB
:10026000C828D9280BC0821593052CF01C01AA249C
:10027000BB24650103C0EE24FF24870111969C91E5
:10028000D20111968C91981709F445C0992339F041
:10029000A80197012A193B094C095D0906C0A6016E
:1002A00095012E193F09400B510B57FD08C01182D3
:1002B0003382228224833583468357831DC081E0A5
:1002C00081833382228288279927DC01821B930B4A
:1002D000A40BB50B84839583A683B7830DC0220F2F
:1002E000331F441F551F24833583468357838281E0
:1002F000938101979383828324813581468157813D
:10030000DA01C9010197A109B1098F5F9F4FAF4F72
:10031000BF4328F30BC0918333822282EA0CFB1C7B
:100320000C1D1D1DE482F5820683178383E0808304
:10033000248135814681578157FF1AC0C901AA27F8
:1003400097FDA095BA2F81709070A070B0705695EF
:10035000479537952795822B932BA42BB52B848318
:100360009583A683B7838281938101969383828349
:10037000DF0101C0D201CD01CDB7DEB7E2E10C94BF
:10038000D116A0E2B0E0E7ECF1E00C94C11669836D
:100390007A838B839C832D833E834F835887E9E048
:1003A000EE2EF12CEC0EFD1ECE010196B7010E943F
:1003B0007F058E010F5E1F4FCE010596B8010E948A
:1003C0007F058A8991E089278A8BC701B801AE0130
:1003D000475E5F4F0E9475000E94AA04A096E6E067
:1003E0000C94DD16A0E2B0E0E8EFF1E00C94C11649
:1003F00069837A838B839C832D833E834F835887C5
:10040000F9E0EF2EF12CEC0EFD1ECE010196B701A6
:100410000E947F058E010F5E1F4FCE010596B80129
:100420000E947F05C701B801AE01475E5F4F0E9481
:1004300075000E94AA04A096E6E00C94DD16A0E2E6
:10044000B0E0E5E2F2E00C94B51669837A838B8321
:100450009C832D833E834F835887CE010196BE0136
:10046000675F7F4F0E947F05CE010596BE016F5EDC
:100470007F4F0E947F059985923088F0898982306C
:10048000C8F0943019F4823051F404C0843029F457
:10049000923081F480E690E0C6C0923049F420E0CA
:1004A0009A858A89981321E02A87CE010996BBC0D4
:1004B000823049F420E09A858A89981321E02A8BBA
:1004C000CE014196B0C02D843E844F8458886D88FB
:1004D0007E888F88988CEE24FF248701AA24BB2471
:1004E000650140E050E060E070E0E0E0F0E0C10174
:1004F00081709070892BE9F0E60CF71C081D191D1E
:100500009A01AB012A0D3B1D4C1D5D1D80E090E062
:10051000A0E0B0E0E614F7040805190520F481E036
:1005200090E0A0E0B0E0BA01A901480F591F6A1F8E
:100530007B1FAA0CBB1CCC1CDD1C97FE08C081E0F5
:1005400090E0A0E0B0E0A82AB92ACA2ADB2A3196B6
:10055000E032F10549F0660C771C881C991C569412
:10056000479437942794C3CFFA85EA892B893C892D
:100570008B859C85280F391F2E5F3F4F17C0CA01FE
:1005800081709070892B61F016950795F794E79428
:1005900080E090E0A0E0B0E8E82AF92A0A2B1B2BC3
:1005A00076956795579547952F5F3F4F77FDE7CF36
:1005B0000CC0440F551F661F771F17FD4160EE0CDE
:1005C000FF1C001F111F21503040403090E05907A0
:1005D00090E0690790E4790760F32B8F3C8FDB0193
:1005E000CA018F779070A070B07080349105A1051A
:1005F000B10561F447FD0AC0E114F10401051105DC
:1006000029F0405C5F4F6F4F7F4F40781A8EFE1786
:1006100011F081E08A8F4D8F5E8F6F8F78A383E01A
:10062000898FCE0149960E94AA04A096E2E10C941B
:10063000D116A8E1B0E0EFE1F3E00C94C1166983B4
:100640007A838B839C832D833E834F83588789E0F5
:10065000E82EF12CEC0EFD1ECE010196B7010E9492
:100660007F058E010F5E1F4FCE010596B8010E94D7
:100670007F058985823040F08989823028F0C70162
:10068000B8010E94F70501C08FEF6896E6E00C9470
:10069000DD16A8E1B0E0EFE4F3E00C94C116698345
:1006A0007A838B839C832D833E834F83588789E095
:1006B000E82EF12CEC0EFD1ECE010196B7010E9432
:1006C0007F058E010F5E1F4FCE010596B8010E9477
:1006D0007F058985823040F08989823028F0C70102
:1006E000B8010E94F70501C08FEF6896E6E00C9410
:1006F000DD16A8E1B0E0EFE7F3E00C94C1166983E2
:100700007A838B839C832D833E834F83588789E034
:10071000E82EF12CEC0EFD1ECE010196B7010E94D1
:100720007F058E010F5E1F4FCE010596B8010E9416
:100730007F058985823040F08989823028F0C701A1
:10074000B8010E94F70501C081E06896E6E00C94CC
:10075000DD16A8E0B0E0EFEAF3E00C94BE169B01D2
:10076000AC0183E08983DA01C9018827B7FD83954D
:100770009927AA27BB27B82E211531054105510518
:1007800019F482E089833AC08823A9F0203080E000
:10079000380780E0480780E8580729F460E070E0F7
:1007A00080E09FEC30C0EE24FF248701E21AF30AB8
:1007B000040B150B02C079018A018EE1C82ED12CE1
:1007C000DC82CB82ED82FE820F831887C801B701DD
:1007D0000E945B0401971816190684F4082E04C0C1
:1007E000EE0CFF1C001F111F0A94D2F7ED82FE824F
:1007F0000F831887C81AD90ADC82CB82BA82CE014D
:1008000001960E94AA042896E9E00C94DA16ACE05E
:10081000B0E0EDE0F4E00C94C51669837A838B8335
:100820009C83CE010196BE016B5F7F4F0E947F05C6
:100830008D81823061F1823050F1843021F48E81DB
:10084000882351F12EC02F81388537FD20C06E815D
:100850002F3131051CF06623F9F023C08EE190E0C2
:10086000821B930B29853A854B855C8504C0569580
:100870004795379527958A95D2F76623B1F050951D
:100880004095309521953F4F4F4F5F4F0EC020E070
:1008900030E040E050E009C02FEF3FEF4FEF5FE75F
:1008A00004C020E030E040E050E8B901CA012C96D5
:1008B000E2E00C94E116EF92FF920F931F937B01FD
:1008C0008C0180E0E81680E0F80681E0080780E00F
:1008D000180788F48FEFE816F1040105110531F0CF
:1008E00028F088E090E0A0E0B0E017C080E090E061
:1008F000A0E0B0E012C080E0E81680E0F80680E0FA
:10090000080781E0180728F088E190E0A0E0B0E057
:1009100004C080E190E0A0E0B0E020E230E040E000
:1009200050E0281B390B4A0B5B0B04C0169507954A
:10093000F794E7948A95D2F7F701E859FF4F808141
:10094000281B310941095109C9011F910F91FF90DD
:10095000EF900895DF92EF92FF920F931F93FC01A7
:10096000E480F58006811781D1808081823048F44F
:1009700080E090E0A0E1B0E0E82AF92A0A2B1B2BE6
:10098000A5C0843009F49FC0823021F4EE24FF24F6
:10099000870105C0E114F1040105110519F4E0E037
:1009A000F0E096C0628173819FEF623879070CF0A6
:1009B0005BC022E83FEF261B370B2A3131052CF0B4
:1009C00020E030E040E050E02AC0B801A701022E4C
:1009D00004C076956795579547950A94D2F781E0BC
:1009E00090E0A0E0B0E004C0880F991FAA1FBB1FD1
:1009F0002A95D2F70197A109B1098E219F21A02341
:100A0000B1230097A105B10521F081E090E0A0E0BD
:100A1000B0E09A01AB01282B392B4A2B5B2BDA0172
:100A2000C9018F779070A070B07080349105A105D6
:100A3000B10539F427FF09C0205C3F4F4F4F5F4F8E
:100A400004C0215C3F4F4F4F5F4FE0E0F0E02030AB
:100A5000A0E03A07A0E04A07A0E45A0710F0E1E05E
:100A6000F0E079018A0127C06038710564F5FB0167
:100A7000E158FF4FD801C7018F779070A070B07018
:100A800080349105A105B10539F4E7FE0DC080E47D
:100A900090E0A0E0B0E004C08FE390E0A0E0B0E020
:100AA000E80EF91E0A1F1B1F17FF05C016950795B4
:100AB000F794E794319687E016950795F794E794B5
:100AC0008A95D1F705C0EE24FF248701EFEFF0E00F
:100AD0006E2F679566276795902F9F77D794DD24B3
:100AE000D7948E2F8695492F462B582F5D29B70115
:100AF000CA011F910F91FF90EF90DF900895FC01C4
:100B0000DB01408151812281622F6F7770E0221FCB
:100B10002227221F9381892F880F822B282F30E0D4
:100B2000991F9927991F11969C93119721153105AB
:100B3000A9F5411551056105710511F482E037C031
:100B400082E89FEF13969C938E9312979A01AB01C4
:100B500067E0220F331F441F551F6A95D1F783E0CA
:100B60008C930DC0220F331F441F551F12968D9179
:100B70009C911397019713969C938E931297203014
:100B800080E0380780E0480780E4580758F314965F
:100B90002D933D934D935C93179708952F3F310507
:100BA00079F4411551056105710519F484E08C93C0
:100BB000089564FF03C081E08C9312C01C9210C0A2
:100BC0002F57304013963C932E93129783E08C93CB
:100BD00087E0440F551F661F771F8A95D1F7706411
:100BE00014964D935D936D937C93179708951F937F
:100BF000DC01FB019C91923008F447C08081823077
:100C000008F443C0943051F411961C91843099F546
:100C10008181682F70E0611B71093FC0843021F031
:100C2000923031F48230B9F18181882389F12DC06D
:100C300011961C9111978230F1F081811817D9F427
:100C400012962D913C91139782819381821793077D
:100C500094F028173907BCF014968D919D910D9052
:100C6000BC91A02D248135814681578128173907F1
:100C70004A075B0718F4112341F00AC08217930753
:100C8000A407B50740F4112319F061E070E005C036
:100C90006FEF7FEF02C060E070E0CB011F9108951D
:100CA000DF93CF9300D000D0CDB7DEB79A8389838E
:100CB000E981FA818281282F30E03C832B838B816C
:100CC0009C810097D1F02B813C8121303105F9F4D2
:100CD000E981FA818081E981FA819181692F40E07F
:100CE0000E941312E981FA818081E981FA81918160
:100CF000692F41E00E946E130AC0E981FA81808168
:100D0000E981FA819181692F40E00E9413120F90CE
:100D10000F900F900F90CF91DF910895DF93CF93B5
:100D2000CDB7DEB727970FB6F894DEBF0FBECDBFA5
:100D30009B838A83EA81FB818281282F30E03E8376
:100D40002D838D819E810097A9F02D813E812130D8
:100D5000310501F5EA81FB818081EA81FB81918186
:100D6000692F9E012F5F3F4FA9010E94C91439814D
:100D70003C8311C0EA81FB818081EA81FB81918102
:100D8000692F9E012F5F3F4FA9010E94C9148981DD
:100D90008C8301C002C09C819F838F8127960FB6F0
:100DA000F894DEBF0FBECDBFCF91DF910895DF93E2
:100DB000CF9300D000D000D0CDB7DEB789837B833E
:100DC0006A83EA81FB8181816FEF0E942513EA81AA
:100DD000FB8181818D83EA81FB818081882349F0B9
:100DE0008981882F90E0FC01E859FE4F90819C8317
:100DF0000AC08981882F90E0FC01E859FE4F80816C
:100E0000982F90959C838D816C810E948014EA813B
:100E1000FB818281EA81FB819381692F41E00E94FD
:100E2000131226960FB6F894DEBF0FBECDBFCF913A
:100E3000DF910895DF93CF9300D000D00F92CDB70C
:100E4000DEB79A838983E981FA818081282F30E097
:100E50003C832B838B819C81009731F02B813C81DB
:100E60002130310561F015C0E981FA818281E98183
:100E7000FA819381692F41E00E946E130AC0E981D3
:100E8000FA818281E981FA819381692F40E00E9491
:100E90006E130F900F900F900F900F90CF91DF91E6
:100EA0000895DF93CF9300D000D00F92CDB7DEB777
:100EB0009A838983E981FA818081282F30E03C83FD
:100EC0002B838B819C81009731F02B813C812130D9
:100ED000310561F015C0E981FA818281E981FA81E9
:100EE0009381692F40E00E946E130AC0E981FA8164
:100EF0008281E981FA819381692F41E00E946E131A
:100F00000F900F900F900F900F90CF91DF91089559
:100F1000DF93CF9300D00F92CDB7DEB79A8389834A
:100F2000E981FA818081E981FA819181692F41E02B
:100F30000E941312E981FA818081E981FA8191810D
:100F4000692F41E00E946E130F900F900F90CF9188
:100F5000DF910895DF93CF9300D00F92CDB7DEB726
:100F60009A838983E981FA818081E981FA8191817B
:100F7000692F41E00E941312E981FA818081E981A1
:100F8000FA819181692F40E00E946E130F900F90BB
:100F90000F90CF91DF910895DF93CF93CDB7DEB758
:100FA000E9970FB6F894DEBF0FBECDBF89AF82E0E0
:100FB00060E040E00E946E1382E061E040E00E9449
:100FC0006E1389AD982F907F81E0692F0E94801465
:100FD00082E062E041E00E946E1380E090E0A0EACF
:100FE000B0E48DAB9EABAFABB8AF6DA97EA98FA9B6
:100FF00098AD20E030E04AEF54E40E941F02DC018B
:10100000CB0189AB9AABABABBCAB69A97AA98BA975
:101010009CA920E030E040E85FE30E947903882348
:101020002CF481E090E098AB8FA73FC069A97AA922
:101030008BA99CA920E03FEF4FE757E40E941903DA
:1010400018164CF56DA97EA98FA998AD20E030E067
:1010500040E251E40E941F02DC01CB01BC01CD0142
:101060000E944900DC01CB0198AB8FA70FC088EC30
:1010700090E09EA78DA78DA59EA50197F1F79EA74D
:101080008DA78FA598A9019798AB8FA78FA598A931
:10109000009769F714C069A97AA98BA99CA90E9435
:1010A0004900DC01CB0198AB8FA78FA598A99CA71D
:1010B0008BA78BA59CA50197F1F79CA78BA782E036
:1010C00062E040E00E946E1380E090E0A8E4B2E4A9
:1010D0008FA398A7A9A7BAA76FA178A589A59AA554
:1010E00020E030E04AEF54E40E941F02DC01CB0113
:1010F0008BA39CA3ADA3BEA36BA17CA18DA19EA13C
:1011000020E030E040E85FE30E94790388232CF47C
:1011100081E090E09AA389A33FC06BA17CA18DA13F
:101120009EA120E03FEF4FE757E40E9419031816F5
:101130004CF56FA178A589A59AA520E030E040E2A2
:1011400051E40E941F02DC01CB01BC01CD010E94D1
:101150004900DC01CB019AA389A30FC088EC90E081
:1011600098A38F8F8F8D98A10197F1F798A38F8FF8
:1011700089A19AA101979AA389A389A19AA100970D
:1011800069F714C06BA17CA18DA19EA10E944900AA
:10119000DC01CB019AA389A389A19AA19E8F8D8F8F
:1011A0008D8D9E8D0197F1F79E8F8D8F89AD982F34
:1011B0009295907F81E0692F0E94801482E062E026
:1011C00041E00E946E1380E090E0A0EAB0E4898FD5
:1011D0009A8FAB8FBC8F698D7A8D8B8D9C8D20E023
:1011E00030E04AEF54E40E941F02DC01CB018D8BFA
:1011F0009E8BAF8BB88F6D897E898F89988D20E00B
:1012000030E040E85FE30E94790388232CF481E01A
:1012100090E09C8B8B8B3FC06D897E898F89988DE8
:1012200020E03FEF4FE757E40E94190318164CF5F2
:10123000698D7A8D8B8D9C8D20E030E040E251E409
:101240000E941F02DC01CB01BC01CD010E944900BC
:10125000DC01CB019C8B8B8B0FC088EC90E09A8BD0
:10126000898B89899A890197F1F79A8B898B8B8968
:101270009C8901979C8B8B8B8B899C89009769F744
:1012800014C06D897E898F89988D0E944900DC0188
:10129000CB019C8B8B8B8B899C89988B8F878F85BF
:1012A00098890197F1F7988B8F8782E062E040E0A0
:1012B0000E946E1380E090E0A8E4B2E48B879C87E4
:1012C000AD87BE876B857C858D859E8520E030E06F
:1012D0004AEF54E40E941F02DC01CB018F83988700
:1012E000A987BA876F81788589859A8520E030E063
:1012F00040E85FE30E94790388232CF481E090E0CA
:101300009E838D833FC06F81788589859A8520E093
:101310003FEF4FE757E40E94190318164CF56B8511
:101320007C858D859E8520E030E040E251E40E947E
:101330001F02DC01CB01BC01CD010E944900DC0190
:10134000CB019E838D830FC088EC90E09C838B83C0
:101350008B819C810197F1F79C838B838D819E818A
:1013600001979E838D838D819E81009769F714C0BC
:101370006F81788589859A850E944900DC01CB01BF
:101380009E838D838D819E819A83898389819A81B1
:101390000197F1F79A838983E9960FB6F894DEBF37
:1013A0000FBECDBFCF91DF910895DF93CF93CDB71F
:1013B000DEB76D970FB6F894DEBF0FBECDBF8D8F31
:1013C00082E060E041E00E946E1382E061E040E074
:1013D0000E946E138D8D982F907F81E0692F0E945F
:1013E000801482E062E041E00E946E1380E090E0B1
:1013F000A0E0B0E4898F9A8FAB8FBC8F698D7A8D16
:101400008B8D9C8D20E030E04AEF54E40E941F0257
:10141000DC01CB018D8B9E8BAF8BB88F6D897E8964
:101420008F89988D20E030E040E85FE30E947903E7
:1014300088232CF481E090E09C8B8B8B3FC06D89DE
:101440007E898F89988D20E03FEF4FE757E40E9417
:10145000190318164CF5698D7A8D8B8D9C8D20E0C3
:1014600030E040E251E40E941F02DC01CB01BC01EC
:10147000CD010E944900DC01CB019C8B8B8B0FC0FE
:1014800088EC90E09A8B898B89899A890197F1F78A
:101490009A8B898B8B899C8901979C8B8B8B8B89F1
:1014A0009C89009769F714C06D897E898F89988D12
:1014B0000E944900DC01CB019C8B8B8B8B899C8922
:1014C000988B8F878F8598890197F1F7988B8F87F5
:1014D00082E062E040E00E946E138D8D982F92951D
:1014E000907F81E0692F0E94801482E062E041E0F9
:1014F0000E946E1380E090E0A0E0B0E48B879C87B0
:10150000AD87BE876B857C858D859E8520E030E02C
:101510004AEF54E40E941F02DC01CB018F839887BD
:10152000A987BA876F81788589859A8520E030E020
:1015300040E85FE30E94790388232CF481E090E087
:101540009E838D833FC06F81788589859A8520E051
:101550003FEF4FE757E40E94190318164CF56B85CF
:101560007C858D859E8520E030E040E251E40E943C
:101570001F02DC01CB01BC01CD010E944900DC014E
:10158000CB019E838D830FC088EC90E09C838B837E
:101590008B819C810197F1F79C838B838D819E8148
:1015A00001979E838D838D819E81009769F714C07A
:1015B0006F81788589859A850E944900DC01CB017D
:1015C0009E838D838D819E819A83898389819A816F
:1015D0000197F1F79A83898382E062E040E00E94FC
:1015E0006E136D960FB6F894DEBF0FBECDBFCF91D0
:1015F000DF910895DF93CF93CDB7DEB72E970FB667
:10160000F894DEBF0FBECDBF80E090E0A0EFB1E464
:101610008B879C87AD87BE876B857C858D859E85F6
:1016200020E030E04AEF54E40E941F02DC01CB01CD
:101630008F839887A987BA876F81788589859A85EE
:1016400020E030E040E85FE30E94790388232CF437
:1016500081E090E09E838D833FC06F81788589858E
:101660009A8520E03FEF4FE757E40E9419031816D0
:101670004CF56B857C858D859E8520E030E040E2D1
:1016800051E40E941F02DC01CB01BC01CD010E948C
:101690004900DC01CB019E838D830FC088EC90E074
:1016A0009C838B838B819C810197F1F79C838B8337
:1016B0008D819E8101979E838D838D819E81009770
:1016C00069F714C06F81788589859A850E944900E1
:1016D000DC01CB019E838D838D819E819A838983DA
:1016E00089819A810197F1F79A83898382E00E9428
:1016F000CC0788E20E94CC078CE00E94CC0786E0F1
:101700000E94CC072E960FB6F894DEBF0FBECDBF59
:10171000CF91DF910895DF93CF9300D00F92CDB793
:10172000DEB79B838A8319820EC08981282F30E01F
:101730008A819B81FC01E20FF31F80810E94D50901
:1017400089818F5F89838981282F30E08A819B81FD
:10175000FC01E20FF31F8081882339F70F900F906F
:101760000F90CF91DF910895DF93CF9300D00F9228
:10177000CDB7DEB78A836B838A81882319F48B8186
:10178000898306C08A81813019F48B81805C8983CA
:10179000898180680E94CC070F900F900F90CF91A5
:1017A000DF910895DF93CF93CDB7DEB727970FB6BC
:1017B000F894DEBF0FBECDBF9C838B836D834E83B9
:1017C0002F838D81882F90E0880F991F880F991F94
:1017D000880F991F8A838A81805C0E94CC071982B6
:1017E0000EC08981282F30E08B819C81FC01E20FA3
:1017F000F31F80810E94D50989818F5F8983898148
:10180000883078F38E816F810E94B40B8D810E94A5
:10181000D50927960FB6F894DEBF0FBECDBFCF9186
:10182000DF910895DF93CF93CDB7DEB763970FB6FF
:10183000F894DEBF0FBECDBF688B798B8A8B9B8BF4
:10184000198288899989AA89BB898B839C83AD83F6
:10185000BE8315C089818F5F89838B819C81AD8117
:10186000BE812AE030E040E050E0BC01CD010E94A2
:101870007816DA01C9018B839C83AD83BE838B818B
:101880009C81AD81BE810097A105B10519F78981C1
:10189000882319F480E30E94D5091F8237C0888904
:1018A0009989AA89BB892AE030E040E050E0BC0178
:1018B000CD010E947816DC01CB018A838889998941
:1018C000AA89BB892AE030E040E050E0BC01CD01AC
:1018D0000E947816DA01C901888B998BAA8BBB8B81
:1018E0008981282F30E08F81882F90E08095909516
:1018F000280F391F8A81482F405DCE010896FC01D0
:10190000E20FF31F40838F818F5F8F839F818981D7
:10191000981728F28981282F30E0CE010896FC0123
:10192000E20FF31F1082CE0108960E948B0B639684
:101930000FB6F894DEBF0FBECDBFCF91DF910895F3
:10194000DF93CF9300D000D00F92CDB7DEB783E006
:101950006FE00E94251383E06FEF0E9480148FEFE9
:101960008B831A826AC08A81882F90E0FC01EA5832
:10197000FE4F908183E0692F40E00E946E13198230
:1019800049C08981882F90E0FC01EE58FE4F90817C
:101990009E012C5F3F4F83E0692FA9010E94C9146B
:1019A0008C818823A1F58981482F50E08A81282FD6
:1019B00030E0CA01880F991F880F991F820F931F6B
:1019C000FC01E658FE4F80818B830FC08981882FF0
:1019D00090E0FC01EE58FE4F90819E012C5F3F4F3E
:1019E00083E0692FA9010E94C9148C81882371F3B7
:1019F0008A81882F90E0FC01EA58FE4F908183E0B5
:101A0000692F41E00E946E138B818D831CC08981F8
:101A10008F5F89838981843008F4B3CF8A81882FCE
:101A200090E0FC01EA58FE4F908183E0692F41E08D
:101A30000E946E138A818F5F8A838A81843008F4C2
:101A400092CF8B818D838D810F900F900F900F908F
:101A50000F90CF91DF910895DF93CF93CDB7DEB78D
:101A6000EAE3F0E080EF8083E7E3F0E087E0808363
:101A7000E4E3F0E08FE08083E1E3F0E01082EBE369
:101A8000F0E01082E8E3F0E01082E5E3F0E08FEFB1
:101A90008083E2E3F0E01082CF91DF910895DF933D
:101AA000CF93CDB7DEB7A3E5B0E0E3E5F0E080810A
:101AB00088608C93A3E5B0E0E3E5F0E080818F7B64
:101AC0008C93A9E5B0E0E9E5F0E0808182608C9339
:101AD000ECE5F0E08AEF8083A3E5B0E0E3E5F0E039
:101AE00080818B7F8C93A3E5B0E0E3E5F0E080811B
:101AF00082608C93A3E5B0E0E3E5F0E080818E7F27
:101B00008C93CF91DF910895DF93CF9300D00F9204
:101B1000CDB7DEB79B838A8319828A819B81009728
:101B200039F08A819B81909395018093940102C042
:101B300083E0898389810F900F900F90CF91DF917F
:101B400008951F920F920FB60F9211242F933F9377
:101B50004F935F936F937F938F939F93AF93BF93B5
:101B6000EF93FF93DF93CF93CDB7DEB780919401CE
:101B7000909195010097D1F08091960190919701F5
:101B80000196909397018093960180919601909190
:101B900097012FE0803A920749F4E0919401F09187
:101BA000950109951092970110929601CF91DF91BE
:101BB000FF91EF91BF91AF919F918F917F916F9125
:101BC0005F914F913F912F910F900FBE0F901F90FB
:101BD0001895DF93CF93CDB7DEB7A7E2B0E0E7E289
:101BE000F0E0808180648C93A7E2B0E0E7E2F0E06F
:101BF00080818F778C93A7E2B0E0E7E2F0E080810C
:101C000080628C93A6E2B0E0E6E2F0E08081887F1B
:101C10008C93A6E2B0E0E6E2F0E0808187608C93EE
:101C2000A6E2B0E0E6E2F0E0808180688C93CF919C
:101C3000DF910895DF93CF93CDB7DEB728970FB626
:101C4000F894DEBF0FBECDBF8E8378876F831D8271
:101C500080919C01882309F05FC081E080939C0102
:101C600019821A821B821C82A7E2B0E0E7E2F0E050
:101C70008081807E8C93A7E2B0E0E7E2F0E0908183
:101C80008E81892B8C93A6E2B0E0E6E2F0E08081C1
:101C900080648C930BC089819A81AB81BC81019651
:101CA000A11DB11D89839A83AB83BC83E6E2F0E07A
:101CB000808182958F70882F90E08170907000975E
:101CC00061F489819A81AB81BC81803523EC9207D4
:101CD00020E0A20720E0B207F1F689819A81AB816A
:101CE000BC81803523EC920720E0A20720E0B207F8
:101CF00019F481E08D8312C0A6E2B0E0E6E2F0E0E4
:101D0000808180618C93E5E2F0E08081EF81F8854D
:101D1000808310929C0102C082E08D838D81289681
:101D20000FB6F894DEBF0FBECDBFCF91DF910895FF
:101D3000DF93CF9300D000D000D0CDB7DEB78A8339
:101D40007C836B835E834D83198280919C01882301
:101D5000C1F58D819E81009721F08B819C81009738
:101D600019F481E089832FC081E080939C018D81EB
:101D70009E8190939B0180939A018B819C8190938B
:101D8000990180939801A7E2B0E0E7E2F0E080815A
:101D9000807E8C93A7E2B0E0E7E2F0E090818A8158
:101DA000892B8C93A6E2B0E0E6E2F0E080818064CB
:101DB0008C93A6E2B0E0E6E2F0E0808188608C934C
:101DC00002C082E08983898126960FB6F894DEBF2F
:101DD0000FBECDBFCF91DF9108951F920F920FB626
:101DE0000F9211242F933F934F935F936F937F93A1
:101DF0008F939F93AF93BF93EF93FF93DF93CF9313
:101E0000CDB7DEB7A0919801B0919901E5E2F0E07D
:101E100080818C9310929C01E0919A01F0919B013A
:101E20000995A6E2B0E0E6E2F0E08081877F8C933E
:101E3000CF91DF91FF91EF91BF91AF919F918F91E2
:101E40007F916F915F914F913F912F910F900FBEB6
:101E50000F901F901895DF93CF93CDB7DEB7AFE506
:101E6000B0E0EFE5F0E0808180688C93CF91DF9166
:101E70000895DF93CF93CDB7DEB7AFE5B0E0EFE5E0
:101E8000F0E080818F778C93CF91DF910895DF937D
:101E9000CF93CDB7DEB7A5E5B0E0E5E5F0E0808112
:101EA00082608C93A5E5B0E0E5E5F0E080818E7F6F
:101EB0008C93ABE5B0E0EBE5F0E0808180648C933F
:101EC000CF91DF910895DF93CF93CDB7DEB7A5E52E
:101ED000B0E0E5E5F0E0808188608C93A5E5B0E0B6
:101EE000E5E5F0E080818B7F8C93ABE5B0E0EBE53E
:101EF000F0E0808180688C93CF91DF910895DF932B
:101F0000CF93CDB7DEB7A4E5B0E0E4E5F0E08081A3
:101F10008F7B8C93ABE5B0E0EBE5F0E080818062F5
:101F20008C93CF91DF910895DF93CF93CDB7DEB738
:101F300029970FB6F894DEBF0FBECDBF8A836B839F
:101F400019828A81813009F05FC08B81282F30E0AF
:101F500039872887888599858230910529F12885D8
:101F600039852330310534F4888599858130910590
:101F700061F047C0288539852330310599F188857E
:101F8000998584309105F9F03CC0A5E5B0E0E5E520
:101F9000F0E080818D7F8C93A5E5B0E0E5E5F0E091
:101FA00080818E7F8C93BAC0A5E5B0E0E5E5F0E0D6
:101FB00080818D7F8C93A5E5B0E0E5E5F0E0808140
:101FC00081608C93ABC0A5E5B0E0E5E5F0E08081F1
:101FD00082608C93A5E5B0E0E5E5F0E0808181606A
:101FE0008C939CC0A5E5B0E0E5E5F0E080818260DF
:101FF0008C93A5E5B0E0E5E5F0E080818E7F8C93E1
:102000008DC081E089838AC08A81823009F05FC0F7
:102010008B81282F30E03F832E838E819F818230F9
:10202000910529F12E813F812330310534F48E81D1
:102030009F818130910561F047C02E813F8123301F
:10204000310599F18E819F8184309105F9F03CC072
:10205000A5E5B0E0E5E5F0E080818B7F8C93A5E518
:10206000B0E0E5E5F0E08081877F8C9357C0A5E57F
:10207000B0E0E5E5F0E08081877F8C93A5E5B0E0F6
:10208000E5E5F0E0808184608C9348C0A5E5B0E090
:10209000E5E5F0E0808184608C93A5E5B0E0E5E5BE
:1020A000F0E0808188608C9339C0A5E5B0E0E5E57B
:1020B000F0E0808188608C93A5E5B0E0E5E5F0E094
:1020C00080818B7F8C932AC081E0898327C08A819D
:1020D000833011F58B81282F30E03D832C838C8158
:1020E0009D818330910569F02C813D81243031053B
:1020F00081F4A4E5B0E0E4E5F0E0808180648C93B5
:102100000DC0A4E5B0E0E4E5F0E080818F7B8C9326
:1021100005C081E0898302C081E089838981299695
:102120000FB6F894DEBF0FBECDBFCF91DF910895FB
:10213000DF93CF93CDB7DEB729970FB6F894DEBF04
:102140000FBECDBF8A836B8319828A81813019F5D6
:102150008B81282F30E039872887888599858130C1
:10216000910531F0288539852230310549F010C0BC
:10217000ABE5B0E0EBE5F0E0808180648C9359C082
:10218000ABE5B0E0EBE5F0E080818F7B8C9351C054
:1021900081E089834EC08A81823019F58B81282F96
:1021A00030E03F832E838E819F818130910531F015
:1021B0002E813F812230310549F010C0ABE5B0E0FF
:1021C000EBE5F0E0808180688C9333C0ABE5B0E054
:1021D000EBE5F0E080818F778C932BC081E08983E1
:1021E00028C08A81833019F58B81282F30E03D8308
:1021F0002C838C819D818130910531F02C813D8132
:102200002230310549F010C0ABE5B0E0EBE5F0E07D
:10221000808180628C930DC0ABE5B0E0EBE5F0E02F
:1022200080818F7D8C9305C081E0898302C081E02D
:102230008983898129960FB6F894DEBF0FBECDBF82
:10224000CF91DF910895DF93CF9300D00F92CDB758
:10225000DEB79B838A8319828A819B81009739F03C
:102260008A819B8190939E0180939D0102C082E0B0
:10227000898389810F900F900F90CF91DF910895FE
:10228000DF93CF9300D00F92CDB7DEB79B838A83C5
:1022900019828A819B81009739F08A819B81909372
:1022A000A00180939F0102C082E0898389810F9001
:1022B0000F900F90CF91DF910895DF93CF9300D0CF
:1022C0000F92CDB7DEB79B838A8319828A819B8167
:1022D000009739F08A819B819093A2018093A1019C
:1022E00002C082E0898389810F900F900F90CF9177
:1022F000DF9108951F920F920FB60F9211242F9322
:102300003F934F935F936F937F938F939F93AF937D
:10231000BF93EF93FF93DF93CF93CDB7DEB7809159
:102320009D0190919E01009729F0E0919D01F0910F
:102330009E010995CF91DF91FF91EF91BF91AF91F0
:102340009F918F917F916F915F914F913F912F91CD
:102350000F900FBE0F901F9018951F920F920FB6FF
:102360000F9211242F933F934F935F936F937F931B
:102370008F939F93AF93BF93EF93FF93DF93CF938D
:10238000CDB7DEB780919F019091A001009729F011
:10239000E0919F01F091A0010995CF91DF91FF910C
:1023A000EF91BF91AF919F918F917F916F915F91CD
:1023B0004F913F912F910F900FBE0F901F90189546
:1023C0001F920F920FB60F9211242F933F934F93AA
:1023D0005F936F937F938F939F93AF93BF93EF938D
:1023E000FF93DF93CF93CDB7DEB78091A10190919A
:1023F000A201009729F0E091A101F091A2010995B5
:10240000CF91DF91FF91EF91BF91AF919F918F910C
:102410007F916F915F914F913F912F910F900FBEE0
:102420000F901F901895DF93CF93CDB7DEB7289705
:102430000FB6F894DEBF0FBECDBF8A836B834C838B
:1024400019828B81883010F081E089838C81882308
:1024500009F078C08A81282F30E038872F838F8158
:1024600098858230910561F12F81388523303105BF
:1024700034F48F8198858130910569F060C02F8197
:1024800038852330310589F18F8198858430910515
:1024900009F440C054C0AAE3B0E0EAE3F0E0808170
:1024A000482F8B81282F30E081E090E0022E02C07F
:1024B000880F991F0A94E2F7809584238C93BBC000
:1024C000A7E3B0E0E7E3F0E08081482F8B81282F7D
:1024D00030E081E090E0022E02C0880F991F0A943C
:1024E000E2F7809584238C93A6C0A4E3B0E0E4E3F4
:1024F000F0E08081482F8B81282F30E081E090E050
:10250000022E02C0880F991F0A94E2F78095842357
:102510008C9391C0A1E3B0E0E1E3F0E08081482F2B
:102520008B81282F30E081E090E0022E02C0880FDE
:10253000991F0A94E2F7809584238C937CC081E0F4
:10254000898379C08C81813009F073C08A81282FFA
:1025500030E03E832D838D819E818230910551F143
:102560002D813E812330310534F48D819E8181306F
:10257000910561F05BC02D813E812330310571F101
:102580008D819E8184309105E9F150C0AAE3B0E0CD
:10259000EAE3F0E08081482F8B81282F30E081E052
:1025A00090E0022E02C0880F991F0A94E2F7842B54
:1025B0008C9341C0A7E3B0E0E7E3F0E08081482FCF
:1025C0008B81282F30E081E090E0022E02C0880F3E
:1025D000991F0A94E2F7842B8C932DC0A4E3B0E0FA
:1025E000E4E3F0E08081482F8B81282F30E081E008
:1025F00090E0022E02C0880F991F0A94E2F7842B04
:102600008C9319C0A1E3B0E0E1E3F0E08081482FB2
:102610008B81282F30E081E090E0022E02C0880FED
:10262000991F0A94E2F7842B8C9305C081E089837B
:1026300002C081E08983898128960FB6F894DEBFB5
:102640000FBECDBFCF91DF910895DF93CF9300D020
:1026500000D00F92CDB7DEB78A836B8319828A814F
:10266000282F30E03D832C838C819D818230910521
:10267000D9F02C813D812330310534F48C819D814A
:102680008130910561F01FC02C813D8123303105DF
:1026900081F08C819D818430910581F014C0EAE342
:1026A000F0E08B81808311C0E7E3F0E08B818083D1
:1026B0000CC0E4E3F0E08B81808307C0E1E3F0E04D
:1026C0008B81808302C081E0898389810F900F9084
:1026D0000F900F900F90CF91DF910895DF93CF93DC
:1026E000CDB7DEB728970FB6F894DEBF0FBECDBFCB
:1026F0008A836B834C8319828B81883010F081E050
:1027000089838C81882309F078C08A81282F30E062
:1027100038872F838F8198858230910561F12F81D1
:1027200038852330310534F48F81988581309105C7
:1027300069F060C02F8138852330310589F18F81A0
:1027400098858430910509F440C054C0ABE3B0E0F3
:10275000EBE3F0E08081482F8B81282F30E081E08F
:1027600090E0022E02C0880F991F0A94E2F780952C
:1027700084238C93BBC0A8E3B0E0E8E3F0E0808161
:10278000482F8B81282F30E081E090E0022E02C09C
:10279000880F991F0A94E2F7809584238C93A6C032
:1027A000A5E3B0E0E5E3F0E08081482F8B81282F9E
:1027B00030E081E090E0022E02C0880F991F0A9459
:1027C000E2F7809584238C9391C0A2E3B0E0E2E32A
:1027D000F0E08081482F8B81282F30E081E090E06D
:1027E000022E02C0880F991F0A94E2F78095842375
:1027F0008C937CC081E0898379C08C81813009F021
:1028000073C08A81282F30E03E832D838D819E8185
:102810008230910551F12D813E812330310534F410
:102820008D819E818130910561F05BC02D813E815B
:102830002330310571F18D819E8184309105E9F15C
:1028400050C0ABE3B0E0EBE3F0E08081482F8B8138
:10285000282F30E081E090E0022E02C0880F991FFF
:102860000A94E2F7842B8C9341C0A8E3B0E0E8E33C
:10287000F0E08081482F8B81282F30E081E090E0CC
:10288000022E02C0880F991F0A94E2F7842B8C93C2
:102890002DC0A5E3B0E0E5E3F0E08081482F8B8117
:1028A000282F30E081E090E0022E02C0880F991FAF
:1028B0000A94E2F7842B8C9319C0A2E3B0E0E2E320
:1028C000F0E08081482F8B81282F30E081E090E07C
:1028D000022E02C0880F991F0A94E2F7842B8C9372
:1028E00005C081E0898302C081E0898389812896BF
:1028F0000FB6F894DEBF0FBECDBFCF91DF91089524
:10290000DF93CF9300D000D00F92CDB7DEB78A838C
:102910006B8319828A81282F30E03D832C838C8140
:102920009D8182309105D9F02C813D812330310584
:1029300034F48C819D818130910561F01FC02C8120
:102940003D812330310581F08C819D81843091055A
:1029500081F014C0EBE3F0E08B81808311C0E8E3E9
:10296000F0E08B8180830CC0E5E3F0E08B81808315
:1029700007C0E2E3F0E08B81808302C081E08983BD
:1029800089810F900F900F900F900F90CF91DF9152
:102990000895DF93CF93CDB7DEB727970FB6F8949E
:1029A000DEBF0FBECDBF8A836B835D834C831982EC
:1029B0008C819D81009719F08B81883010F081E027
:1029C00089838A81282F30E03F832E834E815F8167
:1029D0004230510559F18E819F818330910534F445
:1029E0002E813F812130310569F05CC04E815F81CD
:1029F0004330510579F18E819F818430910509F42E
:102A00003DC050C0E9E3F0E08081282F30E08B81A9
:102A1000882F90E0A90102C0559547958A95E2F765
:102A2000CA018170EC81FD8180833EC0E6E3F0E065
:102A30008081282F30E08B81882F90E0A90102C08F
:102A4000559547958A95E2F7CA018170EC81FD8121
:102A500080832AC0E3E3F0E08081282F30E08B817F
:102A6000882F90E0A90102C0559547958A95E2F715
:102A7000CA018170EC81FD81808316C0E0E3F0E043
:102A80008081282F30E08B81882F90E0A90102C03F
:102A9000559547958A95E2F7CA018170EC81FD81D1
:102AA000808302C081E08983898127960FB6F894DC
:102AB000DEBF0FBECDBFCF91DF910895DF93CF93DF
:102AC00000D000D000D0CDB7DEB78A837C836B8383
:102AD00019828A81282F30E03E832D838D819E814B
:102AE00082309105E9F02D813E812330310534F4A7
:102AF0008D819E818130910561F027C02D813E81BD
:102B000023303105A1F08D819E8184309105B1F093
:102B10001CC0E9E3F0E08081EB81FC81808317C079
:102B2000E6E3F0E08081EB81FC81808310C0E3E389
:102B3000F0E08081EB81FC81808309C0E0E3F0E07C
:102B40008081EB81FC81808302C081E0898389815F
:102B500026960FB6F894DEBF0FBECDBFCF91DF91A2
:102B60000895AF92BF92CF92DF92EF92FF920F93B0
:102B70001F93DF93CF93CDB7DEB768970FB6F89466
:102B8000DEBF0FBECDBF69877A878B879C872D8775
:102B90003E874F87588BE98AFA8A0B8B1C8BAD8A4C
:102BA000BE8ACF8AD88E2DA13EA14FA158A58D896E
:102BB0009E89AF89B88D79018A01E81AF90A0A0B52
:102BC0001B0B29853A854B855C858D859E85AF8558
:102BD000B889281B390B4A0B5B0BC801B7010E944F
:102BE00059167B018C0129893A894B895C898D852D
:102BF0009E85AF85B889281B390B4A0B5B0BC80132
:102C0000B7010E949A16DA01C901BC01CD010E94E8
:102C1000A903DC01CB018D839E83AF83B8876D89C7
:102C20007E898F89988D0E94A903DC01CB01BC01AC
:102C3000CD012D813E814F8158850E94F201DC013A
:102C4000CB0189839A83AB83BC8389819A81AB81D1
:102C5000BC81BC01CD0168960FB6F894DEBF0FBEF3
:102C6000CDBFCF91DF911F910F91FF90EF90DF903B
:102C7000CF90BF90AF900895DF93CF930F92CDB7D1
:102C8000DEB70E942C0D0E94FA0A81E00E94CC0758
:102C90000E94A00C89830E94A00C8F3FC9F38981F8
:102CA000882F90E0A0E0B0E0BC01CD010E94120CA2
:102CB000EFCF629FD001739FF001829FE00DF11D65
:102CC000649FE00DF11D929FF00D839FF00D749FA6
:102CD000F00D659FF00D9927729FB00DE11DF91F52
:102CE000639FB00DE11DF91FBD01CF0111240895AF
:102CF000A1E21A2EAA1BBB1BFD010DC0AA1FBB1F00
:102D0000EE1FFF1FA217B307E407F50720F0A21B71
:102D1000B30BE40BF50B661F771F881F991F1A94DE
:102D200069F760957095809590959B01AC01BD0108
:102D3000CF01089597FB092E05260ED057FD04D02C
:102D4000D7DF0AD0001C38F4509540953095219576
:102D50003F4F4F4F5F4F0895F6F7909580957095D0
:102D600061957F4F8F4F9F4F08952F923F924F92C3
:102D70005F926F927F928F929F92AF92BF92CF920B
:102D8000DF92EF92FF920F931F93CF93DF93CDB714
:102D9000DEB7CA1BDB0B0FB6F894DEBF0FBECDBF8C
:102DA00009942A88398848885F846E847D848C845D
:102DB0009B84AA84B984C884DF80EE80FD800C8166
:102DC0001B81AA81B981CE0FD11D0FB6F894DEBF49
:0C2DD0000FBECDBFED010895F894FFCFB9
:102DDC0000000000000000000001020203030303D6
:102DEC00040404040404040405050505050505058F
:102DFC00050505050505050506060606060606066F
:102E0C000606060606060606060606060606060656
:102E1C00060606060606060607070707070707073E
:102E2C000707070707070707070707070707070726
:102E3C000707070707070707070707070707070716
:102E4C000707070707070707070707070707070706
:102E5C0007070707070707070808080808080808EE
:102E6C0008080808080808080808080808080808D6
:102E7C0008080808080808080808080808080808C6
:102E8C0008080808080808080808080808080808B6
:102E9C0008080808080808080808080808080808A6
:102EAC000808080808080808080808080808080896
:102EBC000808080808080808080808080808080886
:102ECC000808080808080808080808080808080876
:102EDC0008080808080808083F065B4F666D7C0761
:102EEC007F6F04050607000102030708092F04057C
:102EFC00062A0102032D2E003D2B3F065B4F666D0B
:042F0C007C077F6F50
:00000001FF
