:100000000C942A000C9447000C9447000C94470071
:100010000C9447000C9447000C9447000C94470044
:100020000C9447000C9447000C9447000C94470034
:100030000C9447000C9447000C9447000C94470024
:100040000C9447000C9447000C9447000C94470014
:100050000C94470011241FBECFE5D8E0DEBFCDBF12
:1000600010E0A0E6B0E0EEE3FFE202C005900D92E2
:10007000AC3DB107D9F710E0ACEDB0E001C01D9286
:10008000A03EB107E1F70E94910E0C949D170C94CD
:100090000000EF92FF920F931F937B018C0120E0F1
:1000A00030E040E05FE40E94490388238CF0C801FF
:1000B000B70120E030E040E05FE40E94C1010E940F
:1000C000A9039B01AC01205030404040504806C07D
:1000D000C801B7010E94A9039B01AC01B901CA0183
:1000E0001F910F91FF90EF900895A0E0B0E0EBE733
:1000F000F0E00C946617DC012B01FA019C91923020
:1001000008F439C1EB018881823008F433C194309E
:1001100069F4843009F02FC111969C91119789815F
:10012000981709F428C1A9E9B0E025C1843009F481
:1001300021C18230A9F4923009F01DC19A01AD01AC
:1001400088E0EA010990AE01E90109929E0181501F
:10015000C1F7E201898111969C918923818308C1AD
:10016000923009F407C112962D903C901397EB0141
:100170008A819B811496AD90BD90CD90DC901797AD
:10018000EC80FD800E811F819101281B390BB90184
:1001900037FF04C066277727621B730B6032710537
:1001A0000CF061C0121613066CF537014801062EDB
:1001B00004C096948794779467940A94D2F721E0C8
:1001C00030E040E050E004C0220F331F441F551FB1
:1001D0006A95D2F721503040404050402E213F21B7
:1001E00040235123211531054105510521F021E01E
:1001F00030E040E050E079018A01E628F72808293C
:1002000019293CC0232BD1F1260E371E350146019A
:10021000062E04C096948794779467940A94D2F734
:1002200021E030E040E050E004C0220F331F441FC3
:10023000551F6A95D2F721503040404050402A2146
:100240003B214C215D21211531054105510521F04E
:1002500021E030E040E050E059016A01A628B728CB
:10026000C828D9280BC0821593052CF01C01AA249C
:10027000BB24650103C0EE24FF24870111969C91E5
:10028000D20111968C91981709F445C0992339F041
:10029000A80197012A193B094C095D0906C0A6016E
:1002A00095012E193F09400B510B57FD08C01182D3
:1002B0003382228224833583468357831DC081E0A5
:1002C00081833382228288279927DC01821B930B4A
:1002D000A40BB50B84839583A683B7830DC0220F2F
:1002E000331F441F551F24833583468357838281E0
:1002F000938101979383828324813581468157813D
:10030000DA01C9010197A109B1098F5F9F4FAF4F72
:10031000BF4328F30BC0918333822282EA0CFB1C7B
:100320000C1D1D1DE482F5820683178383E0808304
:10033000248135814681578157FF1AC0C901AA27F8
:1003400097FDA095BA2F81709070A070B0705695EF
:10035000479537952795822B932BA42BB52B848318
:100360009583A683B7838281938101969383828349
:10037000DF0101C0D201CD01CDB7DEB7E2E10C94BF
:100380008217A0E2B0E0E7ECF1E00C947217698309
:100390007A838B839C832D833E834F835887E9E048
:1003A000EE2EF12CEC0EFD1ECE010196B7010E943F
:1003B000D2048E010F5E1F4FCE010596B8010E9438
:1003C000D2048A8991E089278A8BC701B801AE01DE
:1003D000475E5F4F0E9475000E94FD03A096E6E015
:1003E0000C948E17A0E2B0E0E8EFF1E00C947217E5
:1003F00069837A838B839C832D833E834F835887C5
:10040000F9E0EF2EF12CEC0EFD1ECE010196B701A6
:100410000E94D2048E010F5E1F4FCE010596B801D7
:100420000E94D204C701B801AE01475E5F4F0E942F
:1004300075000E94FD03A096E6E00C948E17A0E2E2
:10044000B0E0E5E2F2E00C94661769837A838B836F
:100450009C832D833E834F835887CE010196BE0136
:10046000675F7F4F0E94D204CE010596BE016F5E8A
:100470007F4F0E94D2049985923088F0898982301A
:10048000C8F0943019F4823051F404C0843029F457
:10049000923081F489E990E0C6C0923049F420E0BE
:1004A0009A858A89981321E02A87CE010996BBC0D4
:1004B000823049F420E09A858A89981321E02A8BBA
:1004C000CE014196B0C02D843E844F8458886D88FB
:1004D0007E888F88988CEE24FF248701AA24BB2471
:1004E000650140E050E060E070E0E0E0F0E0C10174
:1004F00081709070892BE9F0E60CF71C081D191D1E
:100500009A01AB012A0D3B1D4C1D5D1D80E090E062
:10051000A0E0B0E0E614F7040805190520F481E036
:1005200090E0A0E0B0E0BA01A901480F591F6A1F8E
:100530007B1FAA0CBB1CCC1CDD1C97FE08C081E0F5
:1005400090E0A0E0B0E0A82AB92ACA2ADB2A3196B6
:10055000E032F10549F0660C771C881C991C569412
:10056000479437942794C3CFFA85EA892B893C892D
:100570008B859C85280F391F2E5F3F4F17C0CA01FE
:1005800081709070892B61F016950795F794E79428
:1005900080E090E0A0E0B0E8E82AF92A0A2B1B2BC3
:1005A00076956795579547952F5F3F4F77FDE7CF36
:1005B0000CC0440F551F661F771F17FD4160EE0CDE
:1005C000FF1C001F111F21503040403090E05907A0
:1005D00090E0690790E4790760F32B8F3C8FDB0193
:1005E000CA018F779070A070B07080349105A1051A
:1005F000B10561F447FD0AC0E114F10401051105DC
:1006000029F0405C5F4F6F4F7F4F40781A8EFE1786
:1006100011F081E08A8F4D8F5E8F6F8F78A383E01A
:10062000898FCE0149960E94FD03A096E2E10C94C9
:100630008217A8E1B0E0EFE1F3E00C947217698350
:100640007A838B839C832D833E834F83588789E0F5
:10065000E82EF12CEC0EFD1ECE010196B7010E9492
:10066000D2048E010F5E1F4FCE010596B8010E9485
:10067000D2048985823040F08989823028F0C70110
:10068000B8010E944A0501C08FEF6896E6E00C941D
:100690008E17A8E1B0E0EFE4F3E00C9472176983E1
:1006A0007A838B839C832D833E834F83588789E095
:1006B000E82EF12CEC0EFD1ECE010196B7010E9432
:1006C000D2048E010F5E1F4FCE010596B8010E9425
:1006D000D2048985823040F08989823028F0C701B0
:1006E000B8010E944A0501C08FEF6896E6E00C94BD
:1006F0008E17A8E1B0E0EFE7F3E00C94721769837E
:100700007A838B839C832D833E834F83588789E034
:10071000E82EF12CEC0EFD1ECE010196B7010E94D1
:10072000D2048E010F5E1F4FCE010596B8010E94C4
:10073000D2048985823040F08989823028F0C7014F
:10074000B8010E944A0501C081E06896E6E00C9479
:100750008E17ACE0B0E0EFEAF3E00C947617698313
:100760007A838B839C83CE010196BE016B5F7F4FA2
:100770000E94D2048D81823061F1823050F1843048
:1007800021F48E81882351F12EC02F81388537FDC9
:1007900020C06E812F3131051CF06623F9F023C093
:1007A0008EE190E0821B930B29853A854B855C8511
:1007B00004C056954795379527958A95D2F76623B5
:1007C000B1F050954095309521953F4F4F4F5F4F79
:1007D0000EC020E030E040E050E009C02FEF3FEFD6
:1007E0004FEF5FE704C020E030E040E050E8B9019F
:1007F000CA012C96E2E00C949217DF92EF92FF92DE
:100800000F931F93FC01E480F58006811781D1804E
:100810008081823048F480E090E0A0E1B0E0E82AF6
:10082000F92A0A2B1B2BA5C0843009F49FC0823003
:1008300021F4EE24FF24870105C0E114F104010531
:10084000110519F4E0E0F0E096C0628173819FEF3A
:10085000623879070CF05BC022E83FEF261B370BAC
:100860002A3131052CF020E030E040E050E02AC091
:10087000B801A701022E04C0769567955795479554
:100880000A94D2F781E090E0A0E0B0E004C0880FC5
:10089000991FAA1FBB1F2A95D2F70197A109B10979
:1008A0008E219F21A023B1230097A105B10521F03E
:1008B00081E090E0A0E0B0E09A01AB01282B392B59
:1008C0004A2B5B2BDA01C9018F779070A070B07052
:1008D00080349105A105B10539F427FF09C0205CDA
:1008E0003F4F4F4F5F4F04C0215C3F4F4F4F5F4F13
:1008F000E0E0F0E02030A0E03A07A0E04A07A0E402
:100900005A0710F0E1E0F0E079018A0127C0603871
:10091000710564F5FB01E158FF4FD801C7018F77DE
:100920009070A070B07080349105A105B10539F4C4
:10093000E7FE0DC080E490E0A0E0B0E004C08FE3EB
:1009400090E0A0E0B0E0E80EF91E0A1F1B1F17FFA1
:1009500005C016950795F794E794319687E01695AC
:100960000795F794E7948A95D1F705C0EE24FF2404
:100970008701EFEFF0E06E2F679566276795902F60
:100980009F77D794DD24D7948E2F8695492F462BB9
:10099000582F5D29B701CA011F910F91FF90EF9069
:1009A000DF900895FC01DB01408151812281622F9B
:1009B0006F7770E0221F2227221F9381892F880FD3
:1009C000822B282F30E0991F9927991F11969C930D
:1009D000119721153105A9F54115510561057105DD
:1009E00011F482E037C082E89FEF13969C938E93B8
:1009F00012979A01AB0167E0220F331F441F551F66
:100A00006A95D1F783E08C930DC0220F331F441FEA
:100A1000551F12968D919C911397019713969C9355
:100A20008E931297203080E0380780E0480780E4FA
:100A3000580758F314962D933D934D935C93179755
:100A400008952F3F310579F4411551056105710570
:100A500019F484E08C93089564FF03C081E08C93C3
:100A600012C01C9210C02F57304013963C932E9307
:100A7000129783E08C9387E0440F551F661F771F02
:100A80008A95D1F7706414964D935D936D937C9322
:100A9000179708951F93DC01FB019C91923008F495
:100AA00047C08081823008F443C0943051F41196DD
:100AB0001C91843099F58181682F70E0611B710968
:100AC0003FC0843021F0923031F48230B9F181811D
:100AD000882389F12DC011961C9111978230F1F075
:100AE00081811817D9F412962D913C911397828128
:100AF00093818217930794F028173907BCF0149656
:100B00008D919D910D90BC91A02D248135814681C0
:100B10005781281739074A075B0718F4112341F05A
:100B20000AC082179307A407B50740F4112319F0F0
:100B300061E070E005C06FEF7FEF02C060E070E041
:100B4000CB011F910895DF93CF9300D000D0CDB794
:100B5000DEB79A838983E981FA818281282F30E088
:100B60003C832B838B819C810097D1F02B813C812E
:100B700021303105F9F4E981FA818081E981FA8136
:100B80009181692F40E00E94F30AE981FA81808116
:100B9000E981FA819181692F41E00E944E0C0AC0DF
:100BA000E981FA818081E981FA819181692F40E0B0
:100BB0000E94F30A0F900F900F900F90CF91DF914A
:100BC0000895DF93CF93CDB7DEB727970FB6F8948C
:100BD000DEBF0FBECDBF9B838A83EA81FB8182810A
:100BE000282F30E03E832D838D819E810097A9F0D0
:100BF0002D813E812130310501F5EA81FB81808123
:100C0000EA81FB819181692F9E012F5F3F4FA901EE
:100C10000E94A90D39813C8311C0EA81FB8180814A
:100C2000EA81FB819181692F9E012F5F3F4FA901CE
:100C30000E94A90D89818C8301C002C09C819F8381
:100C40008F8127960FB6F894DEBF0FBECDBFCF9130
:100C5000DF910895DF93CF9300D000D000D0CDB7BF
:100C6000DEB789837B836A83EA81FB8181816FEFB1
:100C70000E94050CEA81FB8181818D83EA81FB81E1
:100C80008081882349F08981882F90E0FC01EF550D
:100C9000FF4F90819C830AC08981882F90E0FC01DE
:100CA000EF55FF4F8081982F90959C838D816C81AB
:100CB0000E94600DEA81FB818281EA81FB81938140
:100CC000692F41E00E94F30A26960FB6F894DEBF22
:100CD0000FBECDBFCF91DF910895DF93CF9300D0AA
:100CE00000D00F92CDB7DEB79A838983E981FA816C
:100CF0008081282F30E03C832B838B819C8100975F
:100D000031F02B813C812130310561F015C0E98142
:100D1000FA818281E981FA819381692F41E00E9401
:100D20004E0C0AC0E981FA818281E981FA819381BE
:100D3000692F40E00E944E0C0F900F900F900F9083
:100D40000F90CF91DF910895DF93CF9300D000D023
:100D50000F92CDB7DEB79A838983E981FA818081CA
:100D6000282F30E03C832B838B819C81009731F0CE
:100D70002B813C812130310561F015C0E981FA8178
:100D80008281E981FA819381692F40E00E944E0CB3
:100D90000AC0E981FA818281E981FA819381692F10
:100DA00041E00E944E0C0F900F900F900F900F900B
:100DB000CF91DF910895DF93CF9300D00F92CDB7FD
:100DC000DEB79A838983E981FA818081E981FA819A
:100DD0009181692F41E00E94F30AE981FA818081C3
:100DE000E981FA819181692F41E00E944E0C0F90B8
:100DF0000F900F90CF91DF910895DF93CF9300D0A4
:100E00000F92CDB7DEB79A838983E981FA81808119
:100E1000E981FA819181692F41E00E94F30AE98119
:100E2000FA818081E981FA819181692F40E00E94F5
:100E30004E0C0F900F900F90CF91DF910895DF939C
:100E4000CF93CDB7DEB72F970FB6F894DEBF0FBEA6
:100E5000CDBF8F8782E060E040E00E944E0C82E0D0
:100E600061E040E00E944E0C81E06F850E94600DC1
:100E700082E062E041E00E944E0C80E090E0A0E061
:100E8000B0E48B879C87AD87BE876B857C858D851D
:100E90009E8520E030E04AEF54E40E941F02DC010E
:100EA000CB018F839887A987BA876F8178858985D9
:100EB0009A8520E030E040E85FE30E9479038823D0
:100EC0002CF481E090E09E838D833FC06F81788514
:100ED00089859A8520E03FEF4FE757E40E94190388
:100EE00018164CF56B857C858D859E8520E030E05D
:100EF00040E251E40E941F02DC01CB01BC01CD01A4
:100F00000E944900DC01CB019E838D830FC088ECD9
:100F100090E09C838B838B819C810197F1F79C836C
:100F20008B838D819E8101979E838D838D819E8190
:100F3000009769F714C06F81788589859A850E942A
:100F40004900DC01CB019E838D838D819E819A8334
:100F5000898389819A810197F1F79A83898382E055
:100F600062E040E00E944E0C2F960FB6F894DEBF70
:100F70000FBECDBFCF91DF910895DF93CF93CDB753
:100F8000DEB72F970FB6F894DEBF0FBECDBF8F87A9
:100F900082E060E041E00E944E0C82E061E040E0CF
:100FA0000E944E0C81E06F850E94600D82E062E03D
:100FB00041E00E944E0C80E090E0A0E0B0E48B871E
:100FC0009C87AD87BE876B857C858D859E8520E05F
:100FD00030E04AEF54E40E941F02DC01CB018F8312
:100FE0009887A987BA876F81788589859A8520E057
:100FF00030E040E85FE30E94790388232CF481E02D
:1010000090E09E838D833FC06F81788589859A8526
:1010100020E03FEF4FE757E40E94190318164CF504
:101020006B857C858D859E8520E030E040E251E433
:101030000E941F02DC01CB01BC01CD010E944900CE
:10104000DC01CB019E838D830FC088EC90E09C83F4
:101050008B838B819C810197F1F79C838B838D819E
:101060009E8101979E838D838D819E81009769F774
:1010700014C06F81788589859A850E944900DC01BA
:10108000CB019E838D838D819E819A838983898103
:101090009A810197F1F79A83898382E062E040E0C8
:1010A0000E944E0C2F960FB6F894DEBF0FBECDBF38
:1010B000CF91DF910895DF93CF93CDB7DEB72E9711
:1010C0000FB6F894DEBF0FBECDBF80E090E0A0EF7A
:1010D000B1E48B879C87AD87BE876B857C858D85CA
:1010E0009E8520E030E04AEF54E40E941F02DC01BC
:1010F000CB018F839887A987BA876F817885898587
:101100009A8520E030E040E85FE30E94790388237D
:101110002CF481E090E09E838D833FC06F817885C1
:1011200089859A8520E03FEF4FE757E40E94190335
:1011300018164CF56B857C858D859E8520E030E00A
:1011400040E251E40E941F02DC01CB01BC01CD0151
:101150000E944900DC01CB019E838D830FC088EC87
:1011600090E09C838B838B819C810197F1F79C831A
:101170008B838D819E8101979E838D838D819E813E
:10118000009769F714C06F81788589859A850E94D8
:101190004900DC01CB019E838D838D819E819A83E2
:1011A000898389819A810197F1F79A83898388E3FA
:1011B0000E941F078CE00E941F0781E00E941F070A
:1011C0002E960FB6F894DEBF0FBECDBFCF91DF9144
:1011D0000895DF93CF9300D00F92CDB7DEB79B83F6
:1011E0008A8319820EC08981282F30E08A819B81F1
:1011F000FC01E20FF31F80810E94BD0789818F5F90
:1012000089838981282F30E08A819B81FC01E20F4C
:10121000F31F8081882339F70F900F900F90CF91A3
:10122000DF910895DF93CF9300D00F92CDB7DEB753
:101230008A836B838A81882319F48B81898306C012
:101240008A81813019F48B81805C898389818068EF
:101250000E941F070F900F900F90CF91DF9108957C
:10126000DF93CF93CDB7DEB727970FB6F894DEBFE5
:101270000FBECDBF9C838B836D834E832F838D8167
:10128000882F90E0880F991F880F991F880F991F4A
:101290008A838A81805C0E941F0719820EC089811F
:1012A000282F30E08B819C81FC01E20FF31F8081AD
:1012B0000E94BD0789818F5F89838981883078F397
:1012C0008E816F810E9412098D810E94BD07279631
:1012D0000FB6F894DEBF0FBECDBFCF91DF9108955A
:1012E000DF93CF93CDB7DEB763970FB6F894DEBF29
:1012F0000FBECDBF688B798B8A8B9B8B19828889B7
:101300009989AA89BB898B839C83AD83BE8315C0D1
:1013100089818F5F89838B819C81AD81BE812AE029
:1013200030E040E050E0BC01CD010E944417DA01FA
:10133000C9018B839C83AD83BE838B819C81AD81EE
:10134000BE810097A105B10519F78981882319F499
:1013500080E30E94BD071F8237C088899989AA89C6
:10136000BB892AE030E040E050E0BC01CD010E94A2
:101370004417DC01CB018A8388899989AA89BB89B2
:101380002AE030E040E050E0BC01CD010E9444176B
:10139000DA01C901888B998BAA8BBB8B8981282F95
:1013A00030E08F81882F90E080959095280F391F2D
:1013B0008A81482F405DCE010896FC01E20FF31FA1
:1013C00040838F818F5F8F839F818981981728F257
:1013D0008981282F30E0CE010896FC01E20FF31F2F
:1013E0001082CE0108960E94E90863960FB6F89421
:1013F000DEBF0FBECDBFCF91DF910895DF93CF93B6
:1014000000D000D00F92CDB7DEB784E06FE00E942D
:10141000050C84E06FEF0E94600D8FEF8B831A82C2
:101420006AC08A81882F90E0FC01E155FF4F9081CE
:1014300084E0692F40E00E944E0C198249C08981E6
:10144000882F90E0FC01E555FF4F90819E012C5FB5
:101450003F4F84E0692FA9010E94A90D8C81882348
:10146000A1F58981482F50E08A81282F30E0CA01F8
:10147000880F991F880F991F820F931FFC01ED544D
:10148000FF4F80818B830FC08981882F90E0FC0102
:10149000E555FF4F90819E012C5F3F4F84E0692FFF
:1014A000A9010E94A90D8C81882371F38A81882F5C
:1014B00090E0FC01E155FF4F908184E0692F41E00D
:1014C0000E944E0C8B818D831CC089818F5F898324
:1014D0008981843008F4B3CF8A81882F90E0FC01A1
:1014E000E155FF4F908184E0692F41E00E944E0C4E
:1014F0008A818F5F8A838A81843008F492CF8B81BE
:101500008D838D810F900F900F900F900F90CF9142
:10151000DF910895DF93CF93CDB7DEB7AFE5B0E0AD
:10152000EFE5F0E0808180688C93CF91DF910895A2
:10153000DF93CF93CDB7DEB7AFE5B0E0EFE5F0E0F6
:1015400080818F778C93CF91DF910895DF93CF9334
:10155000CDB7DEB7A5E5B0E0E5E5F0E080818260DB
:101560008C93A5E5B0E0E5E5F0E080818E7F8C937B
:10157000ABE5B0E0EBE5F0E0808180648C93CF9147
:10158000DF910895DF93CF93CDB7DEB7A5E5B0E047
:10159000E5E5F0E0808182608C93A5E5B0E0E5E5CB
:1015A000F0E080818E7F8C93ABE5B0E0EBE5F0E07E
:1015B000808180688C93CF91DF910895DF93CF93E2
:1015C000CDB7DEB7A4E5B0E0E4E5F0E080818F7B45
:1015D0008C93ABE5B0E0EBE5F0E0808180628C932A
:1015E000CF91DF910895DF93CF93CDB7DEB72897E2
:1015F0000FB6F894DEBF0FBECDBF8A836B834C83DA
:1016000019828B81883010F081E089838C81882356
:1016100009F078C08A81282F30E038872F838F81A6
:1016200098858230910561F12F813885233031050D
:1016300034F48F8198858130910569F060C02F81E5
:1016400038852330310589F18F8198858430910563
:1016500009F440C054C0AAE3B0E0EAE3F0E08081BE
:10166000482F8B81282F30E081E090E0022E02C0CD
:10167000880F991F0A94E2F7809584238C93BBC04E
:10168000A7E3B0E0E7E3F0E08081482F8B81282FCB
:1016900030E081E090E0022E02C0880F991F0A948A
:1016A000E2F7809584238C93A6C0A4E3B0E0E4E342
:1016B000F0E08081482F8B81282F30E081E090E09E
:1016C000022E02C0880F991F0A94E2F780958423A6
:1016D0008C9391C0A1E3B0E0E1E3F0E08081482F7A
:1016E0008B81282F30E081E090E0022E02C0880F2D
:1016F000991F0A94E2F7809584238C937CC081E043
:10170000898379C08C81813009F073C08A81282F48
:1017100030E03E832D838D819E818230910551F191
:101720002D813E812330310534F48D819E818130BD
:10173000910561F05BC02D813E812330310571F14F
:101740008D819E8184309105E9F150C0AAE3B0E01B
:10175000EAE3F0E08081482F8B81282F30E081E0A0
:1017600090E0022E02C0880F991F0A94E2F7842BA2
:101770008C9341C0A7E3B0E0E7E3F0E08081482F1D
:101780008B81282F30E081E090E0022E02C0880F8C
:10179000991F0A94E2F7842B8C932DC0A4E3B0E048
:1017A000E4E3F0E08081482F8B81282F30E081E056
:1017B00090E0022E02C0880F991F0A94E2F7842B52
:1017C0008C9319C0A1E3B0E0E1E3F0E08081482F01
:1017D0008B81282F30E081E090E0022E02C0880F3C
:1017E000991F0A94E2F7842B8C9305C081E08983CA
:1017F00002C081E08983898128960FB6F894DEBF04
:101800000FBECDBFCF91DF910895DF93CF9300D06E
:1018100000D00F92CDB7DEB78A836B8319828A819D
:10182000282F30E03D832C838C819D81823091056F
:10183000D9F02C813D812330310534F48C819D8198
:101840008130910561F01FC02C813D81233031052D
:1018500081F08C819D818430910581F014C0EAE390
:10186000F0E08B81808311C0E7E3F0E08B8180831F
:101870000CC0E4E3F0E08B81808307C0E1E3F0E09B
:101880008B81808302C081E0898389810F900F90D2
:101890000F900F900F90CF91DF910895DF93CF932A
:1018A000CDB7DEB728970FB6F894DEBF0FBECDBF19
:1018B0008A836B834C8319828B81883010F081E09E
:1018C00089838C81882309F078C08A81282F30E0B1
:1018D00038872F838F8198858230910561F12F8120
:1018E00038852330310534F48F8198858130910516
:1018F00069F060C02F8138852330310589F18F81EF
:1019000098858430910509F440C054C0ABE3B0E041
:10191000EBE3F0E08081482F8B81282F30E081E0DD
:1019200090E0022E02C0880F991F0A94E2F780957A
:1019300084238C93BBC0A8E3B0E0E8E3F0E08081AF
:10194000482F8B81282F30E081E090E0022E02C0EA
:10195000880F991F0A94E2F7809584238C93A6C080
:10196000A5E3B0E0E5E3F0E08081482F8B81282FEC
:1019700030E081E090E0022E02C0880F991F0A94A7
:10198000E2F7809584238C9391C0A2E3B0E0E2E378
:10199000F0E08081482F8B81282F30E081E090E0BB
:1019A000022E02C0880F991F0A94E2F780958423C3
:1019B0008C937CC081E0898379C08C81813009F06F
:1019C00073C08A81282F30E03E832D838D819E81D4
:1019D0008230910551F12D813E812330310534F45F
:1019E0008D819E818130910561F05BC02D813E81AA
:1019F0002330310571F18D819E8184309105E9F1AB
:101A000050C0ABE3B0E0EBE3F0E08081482F8B8186
:101A1000282F30E081E090E0022E02C0880F991F4D
:101A20000A94E2F7842B8C9341C0A8E3B0E0E8E38A
:101A3000F0E08081482F8B81282F30E081E090E01A
:101A4000022E02C0880F991F0A94E2F7842B8C9310
:101A50002DC0A5E3B0E0E5E3F0E08081482F8B8165
:101A6000282F30E081E090E0022E02C0880F991FFD
:101A70000A94E2F7842B8C9319C0A2E3B0E0E2E36E
:101A8000F0E08081482F8B81282F30E081E090E0CA
:101A9000022E02C0880F991F0A94E2F7842B8C93C0
:101AA00005C081E0898302C081E08983898128960D
:101AB0000FB6F894DEBF0FBECDBFCF91DF91089572
:101AC000DF93CF9300D000D00F92CDB7DEB78A83DB
:101AD0006B8319828A81282F30E03D832C838C818F
:101AE0009D8182309105D9F02C813D8123303105D3
:101AF00034F48C819D818130910561F01FC02C816F
:101B00003D812330310581F08C819D8184309105A8
:101B100081F014C0EBE3F0E08B81808311C0E8E337
:101B2000F0E08B8180830CC0E5E3F0E08B81808363
:101B300007C0E2E3F0E08B81808302C081E089830B
:101B400089810F900F900F900F900F90CF91DF91A0
:101B50000895DF93CF93CDB7DEB727970FB6F894EC
:101B6000DEBF0FBECDBF8A836B835D834C8319823A
:101B70008C819D81009719F08B81883010F081E075
:101B800089838A81282F30E03F832E834E815F81B5
:101B90004230510559F18E819F818330910534F493
:101BA0002E813F812130310569F05CC04E815F811B
:101BB0004330510579F18E819F818430910509F47C
:101BC0003DC050C0E9E3F0E08081282F30E08B81F8
:101BD000882F90E0A90102C0559547958A95E2F7B4
:101BE000CA018170EC81FD8180833EC0E6E3F0E0B4
:101BF0008081282F30E08B81882F90E0A90102C0DE
:101C0000559547958A95E2F7CA018170EC81FD816F
:101C100080832AC0E3E3F0E08081282F30E08B81CD
:101C2000882F90E0A90102C0559547958A95E2F763
:101C3000CA018170EC81FD81808316C0E0E3F0E091
:101C40008081282F30E08B81882F90E0A90102C08D
:101C5000559547958A95E2F7CA018170EC81FD811F
:101C6000808302C081E08983898127960FB6F8942A
:101C7000DEBF0FBECDBFCF91DF910895DF93CF932D
:101C800000D000D000D0CDB7DEB78A837C836B83D1
:101C900019828A81282F30E03E832D838D819E8199
:101CA00082309105E9F02D813E812330310534F4F5
:101CB0008D819E818130910561F027C02D813E810B
:101CC00023303105A1F08D819E8184309105B1F0E2
:101CD0001CC0E9E3F0E08081EB81FC81808317C0C8
:101CE000E6E3F0E08081EB81FC81808310C0E3E3D8
:101CF000F0E08081EB81FC81808309C0E0E3F0E0CB
:101D00008081EB81FC81808302C081E089838981AD
:101D100026960FB6F894DEBF0FBECDBFCF91DF91F0
:101D200008950F931F93DF93CF93CDB7DEB7C35BB7
:101D3000D0400FB6F894DEBF0FBECDBF84E062E0A6
:101D400040E00E94F30A84E063E040E00E94F30A6E
:101D500084E064E040E00E94F30A84E062E041E055
:101D60000E944E0C84E063E041E00E944E0C84E04F
:101D700064E041E00E944E0C81E06FEF0E94050C90
:101D800082E060E041E00E94F30A82E061E041E02D
:101D90000E94F30A82E062E041E00E94F30A82E0DE
:101DA00063E041E00E94F30A82E064E041E00E94C7
:101DB000F30A0E945B08CE0183579F4FCB55DF4F3C
:101DC00099838883C55AD04083ED90E0C955DF4F91
:101DD00099838883C75AD04098E0C755DF4F9883CE
:101DE000C95AD040C955DF4FE881F981C75AD04060
:101DF0000080C955DF4F88819981C75AD04001962C
:101E0000C955DF4F99838883C75AD040CB55DF4FE0
:101E1000E881F981C55AD0400082CB55DF4F8881D7
:101E20009981C55AD0400196CB55DF4F998388835D
:101E3000C55AD040C755DF4F9881C95AD0409150FC
:101E4000C755DF4F9883C95AD040C755DF4FE88147
:101E5000C95AD040EE2331F6CE018B569F4FC6555E
:101E6000DF4F99838883CA5AD0408BEC90E0C455E9
:101E7000DF4F99838883CC5AD04098E0C255DF4F1A
:101E80009883CE5AD040C455DF4FE881F981CC5AAF
:101E9000D0400080C455DF4F88819981CC5AD04012
:101EA0000196C455DF4F99838883CC5AD040C655DC
:101EB000DF4FE881F981CA5AD0400082C655DF4F12
:101EC00088819981CA5AD0400196C655DF4F9983BF
:101ED0008883CA5AD040C255DF4F9881CE5AD0402D
:101EE0009150C255DF4F9883CE5AD040C255DF4F34
:101EF000E881CE5AD040EE2331F6CE0183569F4F73
:101F0000C155DF4F99838883CF5AD04083EC90E04E
:101F1000CF54DF4F99838883C15BD04098E0CD5484
:101F2000DF4F9883C35BD040CF54DF4FE881F98106
:101F3000C15BD0400080CF54DF4F88819981C15B65
:101F4000D0400196CF54DF4F99838883C15BD04046
:101F5000C155DF4FE881F981CF5AD0400082C15589
:101F6000DF4F88819981CF5AD0400196C155DF4F0C
:101F700099838883CF5AD040CD54DF4F9881C35B7B
:101F8000D0409150CD54DF4F9883C35BD040CD54A7
:101F9000DF4FE881C35BD040EE2331F683E060E0A1
:101FA00041E00E94F30A83E061E041E00E94F30A0D
:101FB00083E062E041E00E94F30A83E063E041E0F5
:101FC0000E94F30A83E060E041E00E944E0C83E04F
:101FD00061E041E00E944E0C83E062E041E00E943B
:101FE0004E0C83E063E041E00E944E0C80E060E034
:101FF0000E94120980E690E00E94E90881E060E01A
:102000000E94120981E790E00E94E9082DED30E07E
:1020100084E062E0A9010E94A90D2FED30E084E088
:1020200063E0A9010E94A90D8091DD00882309F0D9
:1020300006C181E00E941F0780E060E00E94120953
:1020400082E890E00E94E90881E060E00E941209C5
:1020500082E990E00E94E908FE01E757FF4F80E027
:1020600090E0AAEFB3E480839183A283B3838E01CF
:102070000B571F4FFE01E757FF4F6081718182812F
:10208000938120E030E04AEF54E40E941F02DC011B
:10209000CB01F80180839183A283B383FE01EB57C8
:1020A000FF4F608171818281938120E030E040E8C0
:1020B0005FE30E947903882344F4FE01ED57FF4F4C
:1020C00081E090E09183808364C0FE01EB57FF4F75
:1020D000608171818281938120E03FEF4FE757E477
:1020E0000E94190318160CF043C0FE01E757FF4F7A
:1020F000608171818281938120E030E040E251E48F
:102100000E941F02DC01CB018E010D571F4FBC0145
:10211000CD010E944900DC01CB01F801918380834D
:102120001FC0FE01EF57FF4F88EC90E09183808342
:10213000FE01EF57FF4F808191810197F1F7FE017A
:10214000EF57FF4F91838083DE01AD57BF4FFE01F4
:10215000ED57FF4F80819181019711969C938E934B
:10216000FE01ED57FF4F808191810097D1F627C086
:102170008E010D571F4FFE01EB57FF4F608171819C
:10218000828193810E944900DC01CB01F801918397
:102190008083DE01A158BF4FFE01ED57FF4F8081C4
:1021A00091818D939C93FE01E158FF4F8081918135
:1021B0000197F1F7FE01E158FF4F918380832DEDE8
:1021C00030E084E062E0A9010E94A90D2FED30E02B
:1021D00084E063E0A9010E94A90D2EED30E084E0C7
:1021E00064E0A9010E94A90D8091DD00882351F4CB
:1021F00082E063E041E00E944E0C82E064E040E057
:102200000E944E0C8091DF00882351F482E063E04D
:1022100040E00E944E0C82E064E041E00E944E0CDF
:102220008091DE00882359F682E063E040E00E945E
:102230004E0C82E064E040E00E944E0CD7CE8091CC
:10224000DF00882309F0D2CEFE01E558FF4F80E081
:1022500090E0AAEFB3E480839183A283B3838E01DD
:1022600009581F4FFE01E558FF4F6081718182813F
:10227000938120E030E04AEF54E40E941F02DC0129
:10228000CB01F80180839183A283B383FE01E958D7
:10229000FF4F608171818281938120E030E040E8CE
:1022A0005FE30E947903882344F4FE01EB58FF4F5B
:1022B00081E090E09183808364C0FE01E958FF4F84
:1022C000608171818281938120E03FEF4FE757E485
:1022D0000E94190318160CF043C0FE01E558FF4F89
:1022E000608171818281938120E030E040E251E49D
:1022F0000E941F02DC01CB018E010B581F4FBC0155
:10230000CD010E944900DC01CB01F801918380835B
:102310001FC0FE01ED58FF4F88EC90E09183808351
:10232000FE01ED58FF4F808191810197F1F7FE0189
:10233000ED58FF4F91838083DE01AB58BF4FFE0104
:10234000EB58FF4F80819181019711969C938E935A
:10235000FE01EB58FF4F808191810097D1F627C095
:102360008E010B581F4FFE01E958FF4F60817181AC
:10237000828193810E944900DC01CB01F8019183A5
:102380008083DE01AF58BF4FFE01EB58FF4F8081C5
:1023900091818D939C93FE01EF58FF4F8081918135
:1023A0000197F1F7FE01EF58FF4F9183808381E0A1
:1023B0000E941F0780E060E00E94120982E890E01E
:1023C0000E94E90881E060E00E94120982E990E041
:1023D0000E94E9082DED30E084E062E0A9010E944E
:1023E000A90D2FED30E084E063E0A9010E94A90D62
:1023F0002EED30E084E064E0A9010E94A90D8091F7
:10240000DD00882309F0FBC283E060E040E00E9429
:102410004E0C83E061E041E00E944E0C83E062E0FC
:1024200041E00E944E0C83E063E041E00E944E0CCC
:10243000FE01E359FF4F80E090E0A0E0B0E480832C
:102440009183A283B3838E0107591F4FFE01E35985
:10245000FF4F608171818281938120E030E04AEFFB
:1024600054E40E941F02DC01CB01F80180839183B8
:10247000A283B383FE01E759FF4F6081718182819E
:10248000938120E030E040E85FE30E9479038823F5
:1024900044F4FE01E959FF4F81E090E0918380838D
:1024A00064C0FE01E759FF4F608171818281938191
:1024B00020E03FEF4FE757E40E94190318160CF095
:1024C00043C0FE01E359FF4F608171818281938196
:1024D00020E030E040E251E40E941F02DC01CB0129
:1024E0008E0109591F4FBC01CD010E944900DC013A
:1024F000CB01F801918380831FC0FE01EB59FF4F90
:1025000088EC90E091838083FE01EB59FF4F80813E
:1025100091810197F1F7FE01EB59FF4F9183808381
:10252000DE01A959BF4FFE01E959FF4F808191811A
:10253000019711969C938E93FE01E959FF4F80817C
:1025400091810097D1F627C08E0109591F4FFE01D6
:10255000E759FF4F60817181828193810E94490018
:10256000DC01CB01F80191838083DE01AD59BF4FBF
:10257000FE01E959FF4F808191818D939C93FE016B
:10258000ED59FF4F808191810197F1F7FE01ED59DF
:10259000FF4F9183808383E060E041E00E944E0C16
:1025A00083E061E040E00E944E0C83E062E041E0A5
:1025B0000E944E0C83E063E041E00E944E0CFE015D
:1025C000E15AFF4F80E090E0A0E0B0E48083918387
:1025D000A283B3838E01055A1F4FFE01E15AFF4FBC
:1025E000608171818281938120E030E04AEF54E480
:1025F0000E941F02DC01CB01F80180839183A2833A
:10260000B383FE01E55AFF4F60817181828193811E
:1026100020E030E040E85FE30E947903882344F43F
:10262000FE01E75AFF4F81E090E09183808364C010
:10263000FE01E55AFF4F608171818281938120E024
:102640003FEF4FE757E40E94190318160CF043C000
:10265000FE01E15AFF4F608171818281938120E008
:1026600030E040E251E40E941F02DC01CB018E0108
:10267000075A1F4FBC01CD010E944900DC01CB016C
:10268000F801918380831FC0FE01E95AFF4F88EC57
:1026900090E091838083FE01E95AFF4F8081918110
:1026A0000197F1F7FE01E95AFF4F91838083DE0124
:1026B000A75ABF4FFE01E75AFF4F808191810197D2
:1026C00011969C938E93FE01E75AFF4F8081918172
:1026D0000097D1F627C08E01075A1F4FFE01E55A19
:1026E000FF4F60817181828193810E944900DC01EA
:1026F000CB01F80191838083DE01AB5ABF4FFE010D
:10270000E75AFF4F808191818D939C93FE01EB5A94
:10271000FF4F808191810197F1F7FE01EB5AFF4F46
:102720009183808383E060E041E00E944E0C83E06F
:1027300061E041E00E944E0C83E062E040E00E94D4
:102740004E0C83E063E041E00E944E0CFE01EF5A24
:10275000FF4F80E090E0A0E0B0E480839183A2830B
:10276000B3838E01035B1F4FFE01EF5AFF4F608161
:1027700071818281938120E030E04AEF54E40E942D
:102780001F02DC01CB01F80180839183A283B38314
:10279000FE01E35BFF4F608171818281938120E0C4
:1027A00030E040E85FE30E947903882344F4FE01AF
:1027B000E55BFF4F81E090E09183808364C0FE0180
:1027C000E35BFF4F608171818281938120E03FEF65
:1027D0004FE757E40E94190318160CF043C0FE019E
:1027E000EF5AFF4F608171818281938120E030E058
:1027F00040E251E40E941F02DC01CB018E01055B27
:102800001F4FBC01CD010E944900DC01CB01F80142
:10281000918380831FC0FE01E75BFF4F88EC90E04F
:1028200091838083FE01E75BFF4F80819181019757
:10283000F1F7FE01E75BFF4F91838083DE01A55B2B
:10284000BF4FFE01E55BFF4F80819181019711969B
:102850009C938E93FE01E55BFF4F808191810097F1
:10286000D1F627C08E01055B1F4FFE01E35BFF4FD2
:1028700060817181828193810E944900DC01CB01DA
:10288000F80191838083DE01A95BBF4FFE01E55B08
:10289000FF4F808191818D939C93FE01E95BFF4FF7
:1028A000808191810197F1F7FE01E95BFF4F9183F0
:1028B000808383E060E041E00E944E0C83E061E0B1
:1028C00041E00E944E0C83E062E041E00E944E0C29
:1028D00083E063E040E00E944E0CFE01ED5BFF4FA1
:1028E00080E090E0A0E0B0E480839183A283B38392
:1028F0008E01015C1F4FFE01ED5BFF4F6081718116
:102900008281938120E030E04AEF54E40E941F026C
:10291000DC01CB01F80180839183A283B383FE01A4
:10292000FF96608171818281938120E030E040E8F0
:102930005FE30E94790388232CF481E090E09EAF4E
:102940008DAF46C0FE01FF966081718182819381C7
:1029500020E03FEF4FE757E40E941903181664F593
:10296000FE01ED5BFF4F608171818281938120E0E8
:1029700030E040E251E40E941F02DC01CB01BC01C7
:10298000CD010E944900DC01CB019EAF8DAF0FC08D
:1029900088EC90E09CAF8BAF8BAD9CAD0197F1F7CD
:1029A0009CAF8BAF8DAD9EAD01979EAF8DAF8DADC2
:1029B0009EAD009769F716C0FE01FF966081718198
:1029C000828193810E944900DC01CB019EAF8DAFD3
:1029D0008DAD9EAD9AAF89AF89AD9AAD0197F1F7F4
:1029E0009AAF89AF2EED30E084E064E0A9010E9447
:1029F000A90D8091DE00882309F42CC205CD8091B9
:102A0000DF00882309F026C20E94980A83E060E074
:102A100041E00E944E0C83E061E041E00E944E0CD8
:102A200083E062E041E00E944E0C83E063E040E01E
:102A30000E944E0C80E090E0A0E0B0E48DAB9EAB35
:102A4000AFABB8AF6DA97EA98FA998AD20E030E0FB
:102A50004AEF54E40E941F02DC01CB0189AB9AAB20
:102A6000ABABBCAB69A97AA98BA99CA920E030E0EB
:102A700040E85FE30E94790388232CF481E090E032
:102A800098AB8FA73FC069A97AA98BA99CA920E020
:102A90003FEF4FE757E40E94190318164CF56DA954
:102AA0007EA98FA998AD20E030E040E251E40E9479
:102AB0001F02DC01CB01BC01CD010E944900DC01F9
:102AC000CB0198AB8FA70FC088EC90E09EA78DA795
:102AD0008DA59EA50197F1F79EA78DA78FA598A913
:102AE000019798AB8FA78FA598A9009769F714C095
:102AF00069A97AA98BA99CA90E944900DC01CB0194
:102B000098AB8FA78FA598A99CA78BA78BA59CA5F1
:102B10000197F1F79CA78BA783E060E041E00E945A
:102B20004E0C83E061E041E00E944E0C83E062E0E5
:102B300040E00E944E0C83E063E041E00E944E0CB6
:102B400080E090E0A0E0B0E48FA398A7A9A7BAA77F
:102B50006FA178A589A59AA520E030E04AEF54E45A
:102B60000E941F02DC01CB018BA39CA3ADA3BEA3DB
:102B70006BA17CA18DA19EA120E030E040E85FE345
:102B80000E94790388232CF481E090E09AA389A322
:102B90003FC06BA17CA18DA19EA120E03FEF4FE73C
:102BA00057E40E94190318164CF56FA178A589A562
:102BB0009AA520E030E040E251E40E941F02DC01CF
:102BC000CB01BC01CD010E944900DC01CB019AA3DD
:102BD00089A30FC088EC90E098A38F8F8F8D98A168
:102BE0000197F1F798A38F8F89A19AA101979AA3D2
:102BF00089A389A19AA1009769F714C06BA17CA150
:102C00008DA19EA10E944900DC01CB019AA389A35A
:102C100089A19AA19E8F8D8F8D8D9E8D0197F1F741
:102C20009E8F8D8F83E060E041E00E944E0C83E038
:102C300061E040E00E944E0C83E062E041E00E94CF
:102C40004E0C83E063E041E00E944E0C80E090E097
:102C5000A0E0B0E4898F9A8FAB8FBC8F698D7A8D9D
:102C60008B8D9C8D20E030E04AEF54E40E941F02DF
:102C7000DC01CB018D8B9E8BAF8BB88F6D897E89EC
:102C80008F89988D20E030E040E85FE30E9479036F
:102C900088232CF481E090E09C8B8B8B3FC06D8966
:102CA0007E898F89988D20E03FEF4FE757E40E949F
:102CB000190318164CF5698D7A8D8B8D9C8D20E04B
:102CC00030E040E251E40E941F02DC01CB01BC0174
:102CD000CD010E944900DC01CB019C8B8B8B0FC086
:102CE00088EC90E09A8B898B89899A890197F1F712
:102CF0009A8B898B8B899C8901979C8B8B8B8B8979
:102D00009C89009769F714C06D897E898F89988D99
:102D10000E944900DC01CB019C8B8B8B8B899C89A9
:102D2000988B8F878F8598890197F1F7988B8F877C
:102D300083E060E040E00E944E0C83E061E041E00F
:102D40000E944E0C83E062E041E00E944E0C83E062
:102D500063E041E00E944E0C80E090E0A0E0B0E42F
:102D60008B879C87AD87BE876B857C858D859E858F
:102D700020E030E04AEF54E40E941F02DC01CB0166
:102D80008F839887A987BA876F81788589859A8587
:102D900020E030E040E85FE30E94790388232CF4D0
:102DA00081E090E09E838D833FC06F817885898527
:102DB0009A8520E03FEF4FE757E40E941903181669
:102DC0004CF56B857C858D859E8520E030E040E26A
:102DD00051E40E941F02DC01CB01BC01CD010E9425
:102DE0004900DC01CB019E838D830FC088EC90E00D
:102DF0009C838B838B819C810197F1F79C838B83D0
:102E00008D819E8101979E838D838D819E81009708
:102E100069F714C06F81788589859A850E94490079
:102E2000DC01CB019E838D838D819E819A83898372
:102E300089819A810197F1F79A8389832EED30E099
:102E400084E064E0A9010E94A90D8091DE0088233E
:102E500009F0DACD8091DE00882309F0ABCA83E067
:102E600060E041E00E944E0C83E061E041E00E949E
:102E70004E0C83E062E041E00E944E0C83E063E090
:102E800041E00E944E0CB2C8A1E21A2EAA1BBB1B45
:102E9000FD010DC0AA1FBB1FEE1FFF1FA217B30726
:102EA000E407F50720F0A21BB30BE40BF50B661F3C
:102EB000771F881F991F1A9469F760957095809500
:102EC00090959B01AC01BD01CF0108952F923F92D7
:102ED0004F925F926F927F928F929F92AF92BF922A
:102EE000CF92DF92EF92FF920F931F93CF93DF93D6
:102EF000CDB7DEB7CA1BDB0B0FB6F894DEBF0FBE33
:102F0000CDBF09942A88398848885F846E847D847F
:102F10008C849B84AA84B984C884DF80EE80FD8081
:102F20000C811B81AA81B981CE0FD11D0FB6F894F7
:0E2F3000DEBF0FBECDBFED010895F894FFCFB8
:102F3E005072657373203A203120666F72204443BD
:102F4E00002020203220666F7220537465707065E9
:102F5E007200313A432E57202F20323A432E432E01
:102F6E005700333A4241434B00000000000000007E
:102F7E00003F065B4F666D7C077F6F0405060700FA
:102F8E00010203000102030405060708090A0B2BC0
:102F9E002D2A2F0E0E040C16040A110E0E04040414
:0C2FAE000404040E041F1515040A110091
:00000001FF
