:100000000C942A000C9447000C9447000C94470071
:100010000C9447000C9447000C94870C0C944700F8
:100020000C9447000C9447000C94210C0C94540C35
:100030000C9447000C9447000C9447000C94470024
:100040000C9447000C9447000C9447000C94470014
:100050000C94470011241FBECFE5D8E0DEBFCDBF12
:1000600011E0A0E6B0E0ECEDF5E202C005900D92E3
:10007000AA36B107D9F711E0AAE6B1E001C01D9296
:10008000A737B107E1F70E9439110C94EC120C94D8
:100090000000EF92FF920F931F937B018C0120E0F1
:1000A00030E040E05FE40E94490388238CF0C801FF
:1000B000B70120E030E040E05FE40E94C1010E940F
:1000C00007049B01AC01205030404040504806C01E
:1000D000C801B7010E9407049B01AC01B901CA0124
:1000E0001F910F91FF90EF900895A0E0B0E0EBE733
:1000F000F0E00C94B512DC012B01FA019C919230D6
:1001000008F439C1EB018881823008F433C194309E
:1001100069F4843009F02FC111969C91119789815F
:10012000981709F428C1A0E6B0E025C1843009F48D
:1001300021C18230A9F4923009F01DC19A01AD01AC
:1001400088E0EA010990AE01E90109929E0181501F
:10015000C1F7E201898111969C918923818308C1AD
:10016000923009F407C112962D903C901397EB0141
:100170008A819B811496AD90BD90CD90DC901797AD
:10018000EC80FD800E811F819101281B390BB90184
:1001900037FF04C066277727621B730B6032710537
:1001A0000CF061C0121613066CF537014801062EDB
:1001B00004C096948794779467940A94D2F721E0C8
:1001C00030E040E050E004C0220F331F441F551FB1
:1001D0006A95D2F721503040404050402E213F21B7
:1001E00040235123211531054105510521F021E01E
:1001F00030E040E050E079018A01E628F72808293C
:1002000019293CC0232BD1F1260E371E350146019A
:10021000062E04C096948794779467940A94D2F734
:1002200021E030E040E050E004C0220F331F441FC3
:10023000551F6A95D2F721503040404050402A2146
:100240003B214C215D21211531054105510521F04E
:1002500021E030E040E050E059016A01A628B728CB
:10026000C828D9280BC0821593052CF01C01AA249C
:10027000BB24650103C0EE24FF24870111969C91E5
:10028000D20111968C91981709F445C0992339F041
:10029000A80197012A193B094C095D0906C0A6016E
:1002A00095012E193F09400B510B57FD08C01182D3
:1002B0003382228224833583468357831DC081E0A5
:1002C00081833382228288279927DC01821B930B4A
:1002D000A40BB50B84839583A683B7830DC0220F2F
:1002E000331F441F551F24833583468357838281E0
:1002F000938101979383828324813581468157813D
:10030000DA01C9010197A109B1098F5F9F4FAF4F72
:10031000BF4328F30BC0918333822282EA0CFB1C7B
:100320000C1D1D1DE482F5820683178383E0808304
:10033000248135814681578157FF1AC0C901AA27F8
:1003400097FDA095BA2F81709070A070B0705695EF
:10035000479537952795822B932BA42BB52B848318
:100360009583A683B7838281938101969383828349
:10037000DF0101C0D201CD01CDB7DEB7E2E10C94BF
:10038000D112A0E2B0E0E7ECF1E00C94C112698375
:100390007A838B839C832D833E834F835887E9E048
:1003A000EE2EF12CEC0EFD1ECE010196B7010E943F
:1003B0007F058E010F5E1F4FCE010596B8010E948A
:1003C0007F058A8991E089278A8BC701B801AE0130
:1003D000475E5F4F0E9475000E94AA04A096E6E067
:1003E0000C94DD12A0E2B0E0E8EFF1E00C94C11251
:1003F00069837A838B839C832D833E834F835887C5
:10040000F9E0EF2EF12CEC0EFD1ECE010196B701A6
:100410000E947F058E010F5E1F4FCE010596B80129
:100420000E947F05C701B801AE01475E5F4F0E9481
:1004300075000E94AA04A096E6E00C94DD12A0E2EA
:10044000B0E0E5E2F2E00C94B51269837A838B8325
:100450009C832D833E834F835887CE010196BE0136
:10046000675F7F4F0E947F05CE010596BE016F5EDC
:100470007F4F0E947F059985923088F0898982306C
:10048000C8F0943019F4823051F404C0843029F457
:10049000923081F480E690E0C6C0923049F420E0CA
:1004A0009A858A89981321E02A87CE010996BBC0D4
:1004B000823049F420E09A858A89981321E02A8BBA
:1004C000CE014196B0C02D843E844F8458886D88FB
:1004D0007E888F88988CEE24FF248701AA24BB2471
:1004E000650140E050E060E070E0E0E0F0E0C10174
:1004F00081709070892BE9F0E60CF71C081D191D1E
:100500009A01AB012A0D3B1D4C1D5D1D80E090E062
:10051000A0E0B0E0E614F7040805190520F481E036
:1005200090E0A0E0B0E0BA01A901480F591F6A1F8E
:100530007B1FAA0CBB1CCC1CDD1C97FE08C081E0F5
:1005400090E0A0E0B0E0A82AB92ACA2ADB2A3196B6
:10055000E032F10549F0660C771C881C991C569412
:10056000479437942794C3CFFA85EA892B893C892D
:100570008B859C85280F391F2E5F3F4F17C0CA01FE
:1005800081709070892B61F016950795F794E79428
:1005900080E090E0A0E0B0E8E82AF92A0A2B1B2BC3
:1005A00076956795579547952F5F3F4F77FDE7CF36
:1005B0000CC0440F551F661F771F17FD4160EE0CDE
:1005C000FF1C001F111F21503040403090E05907A0
:1005D00090E0690790E4790760F32B8F3C8FDB0193
:1005E000CA018F779070A070B07080349105A1051A
:1005F000B10561F447FD0AC0E114F10401051105DC
:1006000029F0405C5F4F6F4F7F4F40781A8EFE1786
:1006100011F081E08A8F4D8F5E8F6F8F78A383E01A
:10062000898FCE0149960E94AA04A096E2E10C941B
:10063000D112A8E1B0E0EFE1F3E00C94C1126983BC
:100640007A838B839C832D833E834F83588789E0F5
:10065000E82EF12CEC0EFD1ECE010196B7010E9492
:100660007F058E010F5E1F4FCE010596B8010E94D7
:100670007F058985823040F08989823028F0C70162
:10068000B8010E94F70501C08FEF6896E6E00C9470
:10069000DD12A8E1B0E0EFE4F3E00C94C11269834D
:1006A0007A838B839C832D833E834F83588789E095
:1006B000E82EF12CEC0EFD1ECE010196B7010E9432
:1006C0007F058E010F5E1F4FCE010596B8010E9477
:1006D0007F058985823040F08989823028F0C70102
:1006E000B8010E94F70501C08FEF6896E6E00C9410
:1006F000DD12A8E1B0E0EFE7F3E00C94C1126983EA
:100700007A838B839C832D833E834F83588789E034
:10071000E82EF12CEC0EFD1ECE010196B7010E94D1
:100720007F058E010F5E1F4FCE010596B8010E9416
:100730007F058985823040F08989823028F0C701A1
:10074000B8010E94F70501C081E06896E6E00C94CC
:10075000DD12A8E0B0E0EFEAF3E00C94BE129B01DA
:10076000AC0183E08983DA01C9018827B7FD83954D
:100770009927AA27BB27B82E211531054105510518
:1007800019F482E089833AC08823A9F0203080E000
:10079000380780E0480780E8580729F460E070E0F7
:1007A00080E09FEC30C0EE24FF248701E21AF30AB8
:1007B000040B150B02C079018A018EE1C82ED12CE1
:1007C000DC82CB82ED82FE820F831887C801B701DD
:1007D0000E945B0401971816190684F4082E04C0C1
:1007E000EE0CFF1C001F111F0A94D2F7ED82FE824F
:1007F0000F831887C81AD90ADC82CB82BA82CE014D
:1008000001960E94AA042896E9E00C94DA12ACE062
:10081000B0E0EDE0F4E00C94C51269837A838B8339
:100820009C83CE010196BE016B5F7F4F0E947F05C6
:100830008D81823061F1823050F1843021F48E81DB
:10084000882351F12EC02F81388537FD20C06E815D
:100850002F3131051CF06623F9F023C08EE190E0C2
:10086000821B930B29853A854B855C8504C0569580
:100870004795379527958A95D2F76623B1F050951D
:100880004095309521953F4F4F4F5F4F0EC020E070
:1008900030E040E050E009C02FEF3FEF4FEF5FE75F
:1008A00004C020E030E040E050E8B901CA012C96D5
:1008B000E2E00C94E112EF92FF920F931F937B0101
:1008C0008C0180E0E81680E0F80681E0080780E00F
:1008D000180788F48FEFE816F1040105110531F0CF
:1008E00028F088E090E0A0E0B0E017C080E090E061
:1008F000A0E0B0E012C080E0E81680E0F80680E0FA
:10090000080781E0180728F088E190E0A0E0B0E057
:1009100004C080E190E0A0E0B0E020E230E040E000
:1009200050E0281B390B4A0B5B0B04C0169507954A
:10093000F794E7948A95D2F7F701E859FF4F808141
:10094000281B310941095109C9011F910F91FF90DD
:10095000EF900895DF92EF92FF920F931F93FC01A7
:10096000E480F58006811781D1808081823048F44F
:1009700080E090E0A0E1B0E0E82AF92A0A2B1B2BE6
:10098000A5C0843009F49FC0823021F4EE24FF24F6
:10099000870105C0E114F1040105110519F4E0E037
:1009A000F0E096C0628173819FEF623879070CF0A6
:1009B0005BC022E83FEF261B370B2A3131052CF0B4
:1009C00020E030E040E050E02AC0B801A701022E4C
:1009D00004C076956795579547950A94D2F781E0BC
:1009E00090E0A0E0B0E004C0880F991FAA1FBB1FD1
:1009F0002A95D2F70197A109B1098E219F21A02341
:100A0000B1230097A105B10521F081E090E0A0E0BD
:100A1000B0E09A01AB01282B392B4A2B5B2BDA0172
:100A2000C9018F779070A070B07080349105A105D6
:100A3000B10539F427FF09C0205C3F4F4F4F5F4F8E
:100A400004C0215C3F4F4F4F5F4FE0E0F0E02030AB
:100A5000A0E03A07A0E04A07A0E45A0710F0E1E05E
:100A6000F0E079018A0127C06038710564F5FB0167
:100A7000E158FF4FD801C7018F779070A070B07018
:100A800080349105A105B10539F4E7FE0DC080E47D
:100A900090E0A0E0B0E004C08FE390E0A0E0B0E020
:100AA000E80EF91E0A1F1B1F17FF05C016950795B4
:100AB000F794E794319687E016950795F794E794B5
:100AC0008A95D1F705C0EE24FF248701EFEFF0E00F
:100AD0006E2F679566276795902F9F77D794DD24B3
:100AE000D7948E2F8695492F462B582F5D29B70115
:100AF000CA011F910F91FF90EF90DF900895FC01C4
:100B0000DB01408151812281622F6F7770E0221FCB
:100B10002227221F9381892F880F822B282F30E0D4
:100B2000991F9927991F11969C93119721153105AB
:100B3000A9F5411551056105710511F482E037C031
:100B400082E89FEF13969C938E9312979A01AB01C4
:100B500067E0220F331F441F551F6A95D1F783E0CA
:100B60008C930DC0220F331F441F551F12968D9179
:100B70009C911397019713969C938E931297203014
:100B800080E0380780E0480780E4580758F314965F
:100B90002D933D934D935C93179708952F3F310507
:100BA00079F4411551056105710519F484E08C93C0
:100BB000089564FF03C081E08C9312C01C9210C0A2
:100BC0002F57304013963C932E93129783E08C93CB
:100BD00087E0440F551F661F771F8A95D1F7706411
:100BE00014964D935D936D937C93179708951F937F
:100BF000DC01FB019C91923008F447C08081823077
:100C000008F443C0943051F411961C91843099F546
:100C10008181682F70E0611B71093FC0843021F031
:100C2000923031F48230B9F18181882389F12DC06D
:100C300011961C9111978230F1F081811817D9F427
:100C400012962D913C91139782819381821793077D
:100C500094F028173907BCF014968D919D910D9052
:100C6000BC91A02D248135814681578128173907F1
:100C70004A075B0718F4112341F00AC08217930753
:100C8000A407B50740F4112319F061E070E005C036
:100C90006FEF7FEF02C060E070E0CB011F9108951D
:100CA000DF93CF93CDB7DEB7EAE3F0E08FEF808339
:100CB000E7E3F0E01082E4E3F0E01082E1E3F0E04B
:100CC0001082EBE3F0E01082E8E3F0E01082E5E36D
:100CD000F0E01082E2E3F0E01082CF91DF9108951E
:100CE000DF93CF93CDB7DEB7809174018F5F809390
:100CF000740180917301813021F5809174018430F9
:100D000059F4809175019091760101969093760146
:100D100080937501109274012091750130917601D4
:100D2000809171019091720128173907A1F5E09126
:100D30006A01F0916B01099510927601109275018C
:100D40002AC080917301823031F580917401843022
:100D500059F48091750190917601019690937601F6
:100D60008093750110927401209175013091760184
:100D700080917101909172012817390761F4E09117
:100D80006A01F0916B01099510927601109275013C
:100D900082E00E943F09CF91DF910895DF93CF93C6
:100DA00000D000D000D0CDB7DEB789836A838981B7
:100DB000809370018981282F30E03E832D838D81BF
:100DC0009E818230910529F12D813E8123303105AC
:100DD00034F48D819E818130910561F046C02D8172
:100DE0003E812330310521F18D819E818430910532
:100DF00071F13BC0A3E5B0E0E3E5F0E080818F7BDB
:100E00008C93A3E5B0E0E3E5F0E08081877F8C93ED
:100E10002CC0A3E5B0E0E3E5F0E0808180648C9332
:100E2000A3E5B0E0E3E5F0E08081877F8C931DC00F
:100E3000A3E5B0E0E3E5F0E080818F7B8C93A3E550
:100E4000B0E0E3E5F0E0808188608C930EC0A3E51C
:100E5000B0E0E3E5F0E0808180648C93A3E5B0E04E
:100E6000E3E5F0E0808188608C938A81282F30E070
:100E70003C832B838B819C818430910509F471C064
:100E80002B813C81253031058CF48B819C81823013
:100E90009105D9F12B813C81233031050CF04BC0F9
:100EA0008B819C8181309105D1F0C8C02B813C8120
:100EB0002630310509F481C08B819C8186309105F3
:100EC0000CF465C02B813C812730310509F48BC0BF
:100ED0008B819C818830910509F49BC0AFC0A3E54C
:100EE000B0E0E3E5F0E080818E7F8C93A3E5B0E095
:100EF000E3E5F0E080818D7F8C93A3E5B0E0E3E54E
:100F0000F0E080818B7F8C9399C0A3E5B0E0E3E5AE
:100F1000F0E0808181608C93A3E5B0E0E3E5F0E050
:100F200080818D7F8C93A3E5B0E0E3E5F0E08081E4
:100F30008B7F8C9383C0A3E5B0E0E3E5F0E0808194
:100F40008E7F8C93A3E5B0E0E3E5F0E080818260E2
:100F50008C93A3E5B0E0E3E5F0E080818B7F8C9398
:100F60006DC0A3E5B0E0E3E5F0E0808181608C93A3
:100F7000A3E5B0E0E3E5F0E0808182608C93A3E537
:100F8000B0E0E3E5F0E080818B7F8C9357C0A3E570
:100F9000B0E0E3E5F0E080818E7F8C93A3E5B0E0E4
:100FA000E3E5F0E080818D7F8C93A3E5B0E0E3E59D
:100FB000F0E0808184608C9341C0A3E5B0E0E3E57C
:100FC000F0E0808181608C93A3E5B0E0E3E5F0E0A0
:100FD00080818D7F8C93A3E5B0E0E3E5F0E0808134
:100FE00084608C932BC0A3E5B0E0E3E5F0E0808162
:100FF0008E7F8C93A3E5B0E0E3E5F0E08081826032
:101000008C93A3E5B0E0E3E5F0E0808184608C930D
:1010100015C0A3E5B0E0E3E5F0E0808181608C934A
:10102000A3E5B0E0E3E5F0E0808182608C93A3E586
:10103000B0E0E3E5F0E0808184608C9326960FB603
:10104000F894DEBF0FBECDBFCF91DF910895DF933F
:10105000CF930F92CDB7DEB78983ECE5F0E08981BD
:1010600080830F90CF91DF910895DF93CF93CDB719
:10107000DEB729970FB6F894DEBF0FBECDBF8983C8
:1010800080917001282F30E03987288788859985DD
:101090008230910509F468C02885398524303105EE
:1010A00009F4A4C0888599858130910509F0DEC0D6
:1010B0008981282F30E03F832E838E819F8182306B
:1010C000910529F12E813F812330310534F48E8141
:1010D0009F818130910561F0C9C02E813F8123300D
:1010E000310521F18E819F818430910571F1BEC05F
:1010F000A3E5B0E0E3E5F0E080818F7E8C93A3E58B
:10110000B0E0E3E5F0E080818F7D8C93AFC0A3E594
:10111000B0E0E3E5F0E0808180618C93A3E5B0E08E
:10112000E3E5F0E080818F7D8C93A0C0A3E5B0E083
:10113000E3E5F0E080818F7E8C93A3E5B0E0E3E50A
:10114000F0E0808180628C9391C0A3E5B0E0E3E59C
:10115000F0E0808180618C93A3E5B0E0E3E5F0E00E
:10116000808180628C9382C08981282F30E03D830A
:101170002C838C819D8183309105D1F02C813D8120
:101180002430310521F18C819D818130910509F058
:101190006DC0A3E5B0E0E3E5F0E080818F7E8C9345
:1011A000A3E5B0E0E3E5F0E080818F7D8C935EC045
:1011B000A3E5B0E0E3E5F0E080818F7E8C93A3E5CA
:1011C000B0E0E3E5F0E0808180628C934FC0A3E55E
:1011D000B0E0E3E5F0E0808180618C93A3E5B0E0CE
:1011E000E3E5F0E0808180628C9340C08981282F04
:1011F00030E03B832A838A819B8183309105C9F04B
:101200002A813B812430310519F18A819B8181300B
:10121000910561F5A3E5B0E0E3E5F0E080818F7E24
:101220008C93A3E5B0E0E3E5F0E080818F7D8C93C3
:101230001DC0A3E5B0E0E3E5F0E080818F7E8C93F4
:10124000A3E5B0E0E3E5F0E0808180628C930EC01E
:10125000A3E5B0E0E3E5F0E0808180618C93A3E555
:10126000B0E0E3E5F0E0808180628C9329960FB6D0
:10127000F894DEBF0FBECDBFCF91DF910895DF930D
:10128000CF9300D00F92CDB7DEB789838981282F05
:1012900030E03B832A838A819B818130910531F044
:1012A0002A813B812230310549F00FC0A9E5B0E029
:1012B000E9E5F0E0808182608C9307C0A9E5B0E0A9
:1012C000E9E5F0E080818D7F8C930F900F900F9077
:1012D000CF91DF910895DF93CF9300D00F92CDB7D8
:1012E000DEB789838981282F30E03B832A838A8176
:1012F0009B818130910531F02A813B81223031057B
:1013000049F00FC0A9E5B0E0E9E5F0E08081816037
:101310008C9307C0A9E5B0E0E9E5F0E080818E7F1D
:101320008C930F900F900F90CF91DF910895DF93E2
:10133000CF9300D00F92CDB7DEB79B838A831982FB
:101340008A819B81009739F08A819B8190936B0100
:1013500080936A0102C083E0898389810F900F9096
:101360000F90CF91DF910895DF93CF9300D00F922C
:10137000CDB7DEB79B838A8319828A819B810097D0
:1013800039F08A819B8190936D0180936C0102C03A
:1013900083E0898389810F900F900F90CF91DF9127
:1013A0000895DF93CF9300D000D00F92CDB7DEB772
:1013B0009A8389837C836B834D838091680181301C
:1013C000E1F483E063E00E94CE068AEF0E942708E2
:1013D00081E00E943F098D818093730189819A8108
:1013E00090937201809371018B819C8190936B012A
:1013F00080936A0182E08093680180E796E00E9412
:1014000097090F900F900F900F900F90CF91DF9151
:101410000895DF93CF93CDB7DEB7AFE4B0E0EFE44C
:10142000F0E080818E7F8C93AFE4B0E0EFE4F0E0F9
:1014300080818D7F8C93AEE4B0E0EEE4F0E08081BB
:10144000877F8C93AEE4B0E0EEE4F0E080818F7EA5
:101450008C93AEE4B0E0EEE4F0E0808182608C93A7
:10146000AEE4B0E0EEE4F0E080818E7F8C93AEE4F9
:10147000B0E0EEE4F0E080818B7F8C93CF91DF9140
:101480000895DF93CF9300D0CDB7DEB79A838983D9
:10149000E6E4F0E089819A81918380830F900F9038
:1014A000CF91DF910895DF93CF9300D0CDB7DEB712
:1014B0009A838983EAE4F0E089819A819183808329
:1014C0000F900F90CF91DF910895DF93CF9300D0CD
:1014D000CDB7DEB79A838983ECE4F0E089819A8105
:1014E000918380830F900F90CF91DF910895DF93C8
:1014F000CF93CDB7DEB7ECE4F0E080819181CF915E
:10150000DF910895DF93CF93CDB7DEB7AEE4B0E0BF
:10151000EEE4F0E0808180648C93A9E5B0E0E9E539
:10152000F0E0808180628C93CF91DF910895DF930A
:10153000CF9300D00F92CDB7DEB789838981282F52
:1015400030E03B832A838A819B818130910531F091
:101550002A813B812230310549F00FC0AEE4B0E072
:10156000EEE4F0E080818F7B8C9307C0AEE4B0E0C6
:10157000EEE4F0E0808180648C930F900F900F90E8
:10158000CF91DF910895DF93CF9300D00F92CDB725
:10159000DEB789838981282F30E03B832A838A81C3
:1015A0009B818130910531F02A813B8122303105C8
:1015B00049F00FC0A9E5B0E0E9E5F0E08081806284
:1015C0008C9307C0A9E5B0E0E9E5F0E080818F7D6C
:1015D0008C930F900F900F90CF91DF910895DF9330
:1015E000CF93CDB7DEB7E6E4F0E080819181CF9173
:1015F000DF910895DF93CF9300D00F92CDB7DEB780
:101600009B838A8319828A819B81009739F08A8122
:101610009B8190936F0180936E0102C083E0898368
:1016200089810F900F900F90CF91DF910895DF93F4
:10163000CF9300D00F92CDB7DEB78983A1E4B0E09D
:10164000E1E4F0E0808188608C938981282F30E08C
:101650003B832A838A819B818330910509F470C082
:101660002A813B812430310584F48A819B81813039
:101670009105D1F12A813B81223031050CF04AC01D
:101680008A819B810097D1F0C8C02A813B81253097
:10169000310509F481C08A819B81853091050CF464
:1016A00065C02A813B812630310509F48BC08A81CF
:1016B0009B818730910509F49BC0AFC0A1E4B0E0E5
:1016C000E1E4F0E080818E7F8C93A1E4B0E0E1E47E
:1016D000F0E080818D7F8C93A1E4B0E0E1E4F0E064
:1016E00080818B7F8C9399C0A1E4B0E0E1E4F0E0CD
:1016F000808181608C93A1E4B0E0E1E4F0E080813E
:101700008D7F8C93A1E4B0E0E1E4F0E080818B7FF9
:101710008C9383C0A1E4B0E0E1E4F0E080818E7FAF
:101720008C93A1E4B0E0E1E4F0E0808182608C93EE
:10173000A1E4B0E0E1E4F0E080818B7F8C936DC0A8
:10174000A1E4B0E0E1E4F0E0808181608C93A1E469
:10175000B0E0E1E4F0E0808182608C93A1E4B0E04D
:10176000E1E4F0E080818B7F8C9357C0A1E4B0E08E
:10177000E1E4F0E080818E7F8C93A1E4B0E0E1E4CD
:10178000F0E080818D7F8C93A1E4B0E0E1E4F0E0B3
:10179000808184608C9341C0A1E4B0E0E1E4F0E09A
:1017A000808181608C93A1E4B0E0E1E4F0E080818D
:1017B0008D7F8C93A1E4B0E0E1E4F0E0808184606F
:1017C0008C932BC0A1E4B0E0E1E4F0E080818E7F57
:1017D0008C93A1E4B0E0E1E4F0E0808182608C933E
:1017E000A1E4B0E0E1E4F0E0808184608C9315C076
:1017F000A1E4B0E0E1E4F0E0808181608C93A1E4B9
:10180000B0E0E1E4F0E0808182608C93A1E4B0E09C
:10181000E1E4F0E0808184608C930F900F900F9052
:10182000CF91DF910895DF93CF93CDB7DEB7E1E499
:10183000F0E088E18083E1E4F0E01082CF91DF9175
:1018400008951F920F920FB60F9211242F933F937A
:101850004F935F936F937F938F939F93AF93BF93B8
:10186000EF93FF93DF93CF93CDB7DEB780916A01FB
:1018700090916B01009729F0E0916A01F0916B0162
:101880000995CF91DF91FF91EF91BF91AF919F911A
:101890008F917F916F915F914F913F912F910F9019
:1018A0000FBE0F901F9018951F920F920FB60F92B8
:1018B00011242F933F934F935F936F937F938F9355
:1018C0009F93AF93BF93EF93FF93DF93CF93CDB7E6
:1018D000DEB780916C0190916D01009729F0E09145
:1018E0006C01F0916D010995CF91DF91FF91EF911E
:1018F000BF91AF919F918F917F916F915F914F9128
:101900003F912F910F900FBE0F901F9018951F922F
:101910000F920FB60F9211242F933F934F935F9323
:101920006F937F938F939F93AF93BF93EF93FF93A7
:10193000DF93CF93CDB7DEB780916E0190916F01A9
:10194000009729F0E0916E01F0916F010995CF9118
:10195000DF91FF91EF91BF91AF919F918F917F9117
:101960006F915F914F913F912F910F900FBE0F900C
:101970001F901895DF93CF93CDB7DEB728970FB69A
:10198000F894DEBF0FBECDBF8A836B834C83198270
:101990008B81883010F081E089838C81882309F065
:1019A00078C08A81282F30E038872F838F819885EF
:1019B0008230910561F12F8138852330310534F46F
:1019C0008F8198858130910569F060C02F813885BD
:1019D0002330310589F18F8198858430910509F490
:1019E00040C054C0AAE3B0E0EAE3F0E08081482FB1
:1019F0008B81282F30E081E090E0022E02C0880F1A
:101A0000991F0A94E2F7809584238C93BBC0A7E3C7
:101A1000B0E0E7E3F0E08081482F8B81282F30E0B1
:101A200081E090E0022E02C0880F991F0A94E2F72D
:101A3000809584238C93A6C0A4E3B0E0E4E3F0E0B7
:101A40008081482F8B81282F30E081E090E0022EAA
:101A500002C0880F991F0A94E2F7809584238C9323
:101A600091C0A1E3B0E0E1E3F0E08081482F8B81F9
:101A7000282F30E081E090E0022E02C0880F991FED
:101A80000A94E2F7809584238C937CC081E089835B
:101A900079C08C81813009F073C08A81282F30E0B1
:101AA0003E832D838D819E818230910551F12D8160
:101AB0003E812330310534F48D819E818130910542
:101AC00061F05BC02D813E812330310571F18D8144
:101AD0009E8184309105E9F150C0AAE3B0E0EAE3C9
:101AE000F0E08081482F8B81282F30E081E090E06A
:101AF000022E02C0880F991F0A94E2F7842B8C9360
:101B000041C0A7E3B0E0E7E3F0E08081482F8B819C
:101B1000282F30E081E090E0022E02C0880F991F4C
:101B20000A94E2F7842B8C932DC0A4E3B0E0E4E3A5
:101B3000F0E08081482F8B81282F30E081E090E019
:101B4000022E02C0880F991F0A94E2F7842B8C930F
:101B500019C0A1E3B0E0E1E3F0E08081482F8B8180
:101B6000282F30E081E090E0022E02C0880F991FFC
:101B70000A94E2F7842B8C9305C081E0898302C02C
:101B800081E08983898128960FB6F894DEBF0FBE65
:101B9000CDBFCF91DF910895DF93CF9300D000D0D8
:101BA0000F92CDB7DEB78A836B8319828A81282F83
:101BB00030E03D832C838C819D8182309105D9F06A
:101BC0002C813D812330310534F48C819D8181301D
:101BD000910561F01FC02C813D812330310581F0DA
:101BE0008C819D818430910581F014C0EAE3F0E09E
:101BF0008B81808311C0E7E3F0E08B8180830CC090
:101C0000E4E3F0E08B81808307C0E1E3F0E08B81C7
:101C1000808302C081E0898389810F900F900F90AB
:101C20000F900F90CF91DF910895DF93CF93CDB7B1
:101C3000DEB728970FB6F894DEBF0FBECDBF8A83FC
:101C40006B834C8319828B81883010F081E089830B
:101C50008C81882309F078C08A81282F30E038876A
:101C60002F838F8198858230910561F12F8138858E
:101C70002330310534F48F8198858130910569F0E6
:101C800060C02F8138852330310589F18F81988597
:101C90008430910509F440C054C0ABE3B0E0EBE3FD
:101CA000F0E08081482F8B81282F30E081E090E0A8
:101CB000022E02C0880F991F0A94E2F780958423B0
:101CC0008C93BBC0A8E3B0E0E8E3F0E08081482F4C
:101CD0008B81282F30E081E090E0022E02C0880F37
:101CE000991F0A94E2F7809584238C93A6C0A5E3FC
:101CF000B0E0E5E3F0E08081482F8B81282F30E0D1
:101D000081E090E0022E02C0880F991F0A94E2F74A
:101D1000809584238C9391C0A2E3B0E0E2E3F0E0ED
:101D20008081482F8B81282F30E081E090E0022EC7
:101D300002C0880F991F0A94E2F7809584238C9340
:101D40007CC081E0898379C08C81813009F073C0C7
:101D50008A81282F30E03E832D838D819E818230C1
:101D6000910551F12D813E812330310534F48D816F
:101D70009E818130910561F05BC02D813E812330D1
:101D8000310571F18D819E8184309105E9F150C05A
:101D9000ABE3B0E0EBE3F0E08081482F8B81282FAC
:101DA00030E081E090E0022E02C0880F991F0A9473
:101DB000E2F7842B8C9341C0A8E3B0E0E8E3F0E0C5
:101DC0008081482F8B81282F30E081E090E0022E27
:101DD00002C0880F991F0A94E2F7842B8C932DC0C0
:101DE000A5E3B0E0E5E3F0E08081482F8B81282F68
:101DF00030E081E090E0022E02C0880F991F0A9423
:101E0000E2F7842B8C9319C0A2E3B0E0E2E3F0E0A8
:101E10008081482F8B81282F30E081E090E0022ED6
:101E200002C0880F991F0A94E2F7842B8C9305C097
:101E300081E0898302C081E08983898128960FB679
:101E4000F894DEBF0FBECDBFCF91DF910895DF9331
:101E5000CF9300D000D00F92CDB7DEB78A836B83CB
:101E600019828A81282F30E03D832C838C819D81CB
:101E700082309105D9F02C813D812330310534F435
:101E80008C819D818130910561F01FC02C813D8145
:101E90002330310581F08C819D818430910581F062
:101EA00014C0EBE3F0E08B81808311C0E8E3F0E045
:101EB0008B8180830CC0E5E3F0E08B81808307C0D9
:101EC000E2E3F0E08B81808302C081E08983898135
:101ED0000F900F900F900F900F90CF91DF9108957A
:101EE000DF93CF93CDB7DEB727970FB6F894DEBF59
:101EF0000FBECDBF8A836B835D834C8319828C8137
:101F00009D81009719F08B81883010F081E08983E2
:101F10008A81282F30E03F832E834E815F814230BB
:101F2000510559F18E819F818330910534F42E81C2
:101F30003F812130310569F05CC04E815F814330C3
:101F4000510579F18E819F818430910509F43DC05E
:101F500050C0E9E3F0E08081282F30E08B81882FAA
:101F600090E0A90102C0559547958A95E2F7CA010C
:101F70008170EC81FD8180833EC0E6E3F0E08081EA
:101F8000282F30E08B81882F90E0A90102C0559561
:101F900047958A95E2F7CA018170EC81FD818083C3
:101FA0002AC0E3E3F0E08081282F30E08B81882F86
:101FB00090E0A90102C0559547958A95E2F7CA01BC
:101FC0008170EC81FD81808316C0E0E3F0E08081C8
:101FD000282F30E08B81882F90E0A90102C0559511
:101FE00047958A95E2F7CA018170EC81FD81808373
:101FF00002C081E08983898127960FB6F894DEBFFD
:102000000FBECDBFCF91DF910895DF93CF9300D066
:1020100000D000D0CDB7DEB78A837C836B83198272
:102020008A81282F30E03E832D838D819E818230EE
:102030009105E9F02D813E812330310534F48D8105
:102040009E818130910561F027C02D813E81233032
:102050003105A1F08D819E8184309105B1F01CC0C5
:10206000E9E3F0E08081EB81FC81808317C0E6E347
:10207000F0E08081EB81FC81808310C0E3E3F0E03D
:102080008081EB81FC81808309C0E0E3F0E0808106
:10209000EB81FC81808302C081E08983898126965F
:1020A0000FB6F894DEBF0FBECDBFCF91DF9108957C
:1020B000AF92BF92CF92DF92EF92FF920F931F9356
:1020C000DF93CF93CDB7DEB768970FB6F894DEBF36
:1020D0000FBECDBF69877A878B879C872D873E8708
:1020E0004F87588BE98AFA8A0B8B1C8BAD8ABE8A84
:1020F000CF8AD88E2DA13EA14FA158A58D899E894A
:10210000AF89B88D79018A01E81AF90A0A0B1B0B0D
:1021100029853A854B855C858D859E85AF85B889F7
:10212000281B390B4A0B5B0BC801B7010E94321206
:102130007B018C0129893A894B895C898D859E8533
:10214000AF85B889281B390B4A0B5B0BC801B70157
:102150000E946412DA01C901BC01CD010E94A903E9
:10216000DC01CB018D839E83AF83B8876D897E8927
:102170008F89988D0E94A903DC01CB01BC01CD01A0
:102180002D813E814F8158850E94F201DC01CB01F7
:1021900089839A83AB83BC8389819A81AB81BC811B
:1021A000BC01CD0168960FB6F894DEBF0FBECDBF5F
:1021B000CF91DF911F910F91FF90EF90DF90CF9023
:1021C000BF90AF900895DF93CF9300D0CDB7DEB727
:1021D000AFE4B0E0EFE4F0E08081826A8C93AEE49B
:1021E000B0E0EEE4F0E080818B618C93E6E4F0E017
:1021F00087E893E191838083A1E3B0E0E1E3F0E03D
:10220000808180638C930F900F90CF91DF91089520
:10221000DF93CF9300D000D000D0CDB7DEB79A8344
:102220008983EAE4F0E049815A81CA019C01220FC6
:10223000331F240F351FC901880F991F880F991F5D
:10224000880F991F821B930B840F951F29E030E0A4
:10225000B9010E945112CB0180569F4F9183808318
:1022600026960FB6F894DEBF0FBECDBFCF91DF919B
:102270000895DF93CF93CDB7DEB76C970FB6F89480
:10228000DEBF0FBECDBF0E94E31080E090E00E9451
:10229000081180E090E0AAE7B4E4898F9A8FAB8FB1
:1022A000BC8F698D7A8D8B8D9C8D20E030E04AEF5C
:1022B00054E40E941F02DC01CB018D8B9E8BAF8BFF
:1022C000B88F6D897E898F89988D20E030E040E855
:1022D0005FE30E94790388232CF481E090E09C8BDB
:1022E0008B8B3FC06D897E898F89988D20E03FEF71
:1022F0004FE757E40E94190318164CF5698D7A8D43
:102300008B8D9C8D20E030E040E251E40E941F0262
:10231000DC01CB01BC01CD010E944900DC01CB01F5
:102320009C8B8B8B0FC088EC90E09A8B898B898972
:102330009A890197F1F79A8B898B8B899C890197F0
:102340009C8B8B8B8B899C89009769F714C06D8956
:102350007E898F89988D0E944900DC01CB019C8B7E
:102360008B8B8B899C89988B8F878F859889019718
:10237000F1F7988B8F8784EB90E00E94081180E042
:1023800090E0AAE7B4E48B879C87AD87BE876B8516
:102390007C858D859E8520E030E04AEF54E40E94E4
:1023A0001F02DC01CB018F839887A987BA876F81D1
:1023B000788589859A8520E030E040E85FE30E94D7
:1023C000790388232CF481E090E09E838D833FC0C5
:1023D0006F81788589859A8520E03FEF4FE757E444
:1023E0000E94190318164CF56B857C858D859E859A
:1023F00020E030E040E251E40E941F02DC01CB010A
:10240000BC01CD010E944900DC01CB019E838D837C
:102410000FC088EC90E09C838B838B819C8101971B
:10242000F1F79C838B838D819E8101979E838D83A1
:102430008D819E81009769F728CF6F817885898586
:102440009A850E944900DC01CB019E838D838D819A
:102450009E819A83898389819A810197F1F79A8372
:10246000898313CF629FD001739FF001829FE00D9B
:10247000F11D649FE00DF11D929FF00D839FF00D03
:10248000749FF00D659FF00D9927729FB00DE11DAF
:10249000F91F639FB00DE11DF91FBD01CF0111248C
:1024A000089597FB092E07260AD077FD04D027D080
:1024B00006D000201AF4709561957F4F0895F6F7C5
:1024C000909581959F4F089597FB092E05260ED074
:1024D00057FD04D028D00AD0001C38F45095409500
:1024E000309521953F4F4F4F5F4F0895F6F79095E8
:1024F0008095709561957F4F8F4F9F4F0895AA1BD0
:10250000BB1B51E107C0AA1FBB1FA617B70710F0DE
:10251000A61BB70B881F991F5A95A9F78095909510
:10252000BC01CD010895A1E21A2EAA1BBB1BFD011F
:102530000DC0AA1FBB1FEE1FFF1FA217B307E407A2
:10254000F50720F0A21BB30BE40BF50B661F771FFA
:10255000881F991F1A9469F76095709580959095DA
:102560009B01AC01BD01CF0108952F923F924F9284
:102570005F926F927F928F929F92AF92BF92CF9213
:10258000DF92EF92FF920F931F93CF93DF93CDB71C
:10259000DEB7CA1BDB0B0FB6F894DEBF0FBECDBF94
:1025A00009942A88398848885F846E847D848C8465
:1025B0009B84AA84B984C884DF80EE80FD800C816E
:1025C0001B81AA81B981CE0FD11D0FB6F894DEBF51
:0C25D0000FBECDBFED010895F894FFCFC1
:1025DC0000000000000000000001020203030303DE
:1025EC000404040404040404050505050505050597
:1025FC000505050505050505060606060606060677
:10260C00060606060606060606060606060606065E
:10261C000606060606060606070707070707070746
:10262C00070707070707070707070707070707072E
:10263C00070707070707070707070707070707071E
:10264C00070707070707070707070707070707070E
:10265C0007070707070707070808080808080808F6
:10266C0008080808080808080808080808080808DE
:10267C0008080808080808080808080808080808CE
:10268C0008080808080808080808080808080808BE
:10269C0008080808080808080808080808080808AE
:1026AC00080808080808080808080808080808089E
:1026BC00080808080808080808080808080808088E
:1026CC00080808080808080808080808080808087E
:0A26DC0008080808080808080100B3
:00000001FF
