:100000000C942A000C9434000C9434000C943400AA
:100010000C9434000C9434000C9434000C94340090
:100020000C9434000C9434000C9434000C94340080
:100030000C9434000C9434000C9434000C94340070
:100040000C9434000C9434000C9434000C94340060
:100050000C94340011241FBECFE5D8E0DEBFCDBF25
:100060000E948E030C949B030C940000DF93CF93AB
:10007000CDB7DEB728970FB6F894DEBF0FBECDBF61
:1000800089836A834B838B81813009F06EC08981BB
:10009000282F30E03F832E838E819F818130910510
:1000A00049F12E813F81223031052CF48E819F81D0
:1000B000009761F05AC02E813F812230310571F1E5
:1000C0008E819F8183309105E9F14FC0AAE3B0E0B2
:1000D000EAE3F0E08081482F8A81282F30E081E038
:1000E00090E0022E02C0880F991F0A94E2F7842B39
:1000F0008C933BC0A7E3B0E0E7E3F0E08081482FBA
:100100008A81282F30E081E090E0022E02C0880F23
:10011000991F0A94E2F7842B8C9327C0A4E3B0E0E4
:10012000E4E3F0E08081482F8A81282F30E081E0ED
:1001300090E0022E02C0880F991F0A94E2F7842BE8
:100140008C9313C0A1E3B0E0E1E3F0E08081482F9D
:100150008A81282F30E081E090E0022E02C0880FD3
:10016000991F0A94E2F7842B8C938B81882309F0E2
:1001700073C08981282F30E03D832C838C819D8141
:100180008130910559F12C813D81223031052CF4CB
:100190008C819D81009769F05FC02C813D81223068
:1001A000310589F18C819D818330910509F440C02E
:1001B00053C0AAE3B0E0EAE3F0E08081482F8A81EF
:1001C000282F30E081E090E0022E02C0880F991FB6
:1001D0000A94E2F7809584238C933EC0A7E3B0E0B5
:1001E000E7E3F0E08081482F8A81282F30E081E02A
:1001F00090E0022E02C0880F991F0A94E2F78095C2
:1002000084238C9329C0A4E3B0E0E4E3F0E0808190
:10021000482F8A81282F30E081E090E0022E02C032
:10022000880F991F0A94E2F7809584238C9314C059
:10023000A1E3B0E0E1E3F0E08081482F8A81282F3C
:1002400030E081E090E0022E02C0880F991F0A94EE
:10025000E2F7809584238C9328960FB6F894DEBF3E
:100260000FBECDBFCF91DF910895DF93CF9300D024
:1002700000D00F92CDB7DEB789836A838981282F9A
:1002800030E03C832B838B819C8181309105D1F0C0
:100290002B813C81223031052CF48B819C8100978D
:1002A00061F01EC02B813C812230310581F08B81B1
:1002B0009C818330910581F013C0EAE3F0E08A81EC
:1002C00080830EC0E7E3F0E08A81808309C0E4E325
:1002D000F0E08A81808304C0E1E3F0E08A818083DA
:1002E0000F900F900F900F900F90CF91DF91089586
:1002F000DF93CF93CDB7DEB728970FB6F894DEBF64
:100300000FBECDBF89836A834B838B81813009F017
:100310006EC08981282F30E03F832E838E819F819C
:100320008130910549F12E813F81223031052CF435
:100330008E819F81009761F05AC02E813F812230CB
:10034000310571F18E819F8183309105E9F14FC0B4
:10035000ABE3B0E0EBE3F0E08081482F8A81282F07
:1003600030E081E090E0022E02C0880F991F0A94CD
:10037000E2F7842B8C933BC0A8E3B0E0E8E3F0E025
:100380008081482F8A81282F30E081E090E0022E82
:1003900002C0880F991F0A94E2F7842B8C9327C020
:1003A000A5E3B0E0E5E3F0E08081482F8A81282FC3
:1003B00030E081E090E0022E02C0880F991F0A947D
:1003C000E2F7842B8C9313C0A2E3B0E0E2E3F0E009
:1003D0008081482F8A81282F30E081E090E0022E32
:1003E00002C0880F991F0A94E2F7842B8C938B81AB
:1003F000882309F073C08981282F30E03D832C8346
:100400008C819D818130910559F12C813D81223073
:1004100031052CF48C819D81009769F05FC02C819F
:100420003D812230310589F18C819D818330910598
:1004300009F440C053C0ABE3B0E0EBE3F0E08081EF
:10044000482F8A81282F30E081E090E0022E02C000
:10045000880F991F0A94E2F7809584238C933EC0FD
:10046000A8E3B0E0E8E3F0E08081482F8A81282FFC
:1004700030E081E090E0022E02C0880F991F0A94BC
:10048000E2F7809584238C9329C0A5E3B0E0E5E3EF
:10049000F0E08081482F8A81282F30E081E090E0D1
:1004A000022E02C0880F991F0A94E2F780958423D8
:1004B0008C9314C0A2E3B0E0E2E3F0E08081482F27
:1004C0008A81282F30E081E090E0022E02C0880F60
:1004D000991F0A94E2F7809584238C9328960FB68F
:1004E000F894DEBF0FBECDBFCF91DF910895DF93AB
:1004F000CF9300D000D00F92CDB7DEB789836A8347
:100500008981282F30E03C832B838B819C81813033
:100510009105D1F02B813C81223031052CF48B8167
:100520009C81009761F01EC02B813C8122303105F7
:1005300081F08B819C818330910581F013C0EBE3C6
:10054000F0E08A8180830EC0E8E3F0E08A81808356
:1005500009C0E5E3F0E08A81808304C0E2E3F0E0D3
:100560008A8180830F900F900F900F900F90CF9102
:10057000DF910895DF93CF93CDB7DEB727970FB6FE
:10058000F894DEBF0FBECDBF89836A835C834B8343
:100590008981282F30E03E832D834D815E8141305B
:1005A000510559F18D819E818230910534F42D8160
:1005B0003E812115310569F05BC04D815E8142307D
:1005C000510579F18D819E818330910509F43DC0FB
:1005D0004FC0E9E3F0E08081282F30E08A81882F46
:1005E00090E0A90102C0559547958A95E2F7CA01A6
:1005F0008170EB81FC8180833BC0E6E3F0E0808189
:10060000282F30E08A81882F90E0A90102C05595FB
:1006100047958A95E2F7CA018170EB81FC8180835E
:1006200027C0E3E3F0E08081282F30E08A81882F23
:1006300090E0A90102C0559547958A95E2F7CA0155
:100640008170EB81FC81808313C0E0E3F0E0808166
:10065000282F30E08A81882F90E0A90102C05595AB
:1006600047958A95E2F7CA018170EB81FC8180830E
:1006700027960FB6F894DEBF0FBECDBFCF91DF91A6
:100680000895DF93CF9300D000D000D0CDB7DEB770
:1006900089837B836A838981282F30E03D832C8383
:1006A0008C819D8181309105E1F02C813D8122304A
:1006B00031052CF48C819D81009761F026C02C813E
:1006C0003D8122303105A1F08C819D8183309105DF
:1006D000B1F01BC0E9E3F0E08081EA81FB81808317
:1006E00014C0E6E3F0E08081EA81FB8180830DC0E5
:1006F000E3E3F0E08081EA81FB81808306C0E0E3F0
:10070000F0E08081EA81FB81808326960FB6F89421
:10071000DEBF0FBECDBFCF91DF910895DF93CF93A2
:10072000CDB7DEB782E06FEF0E94350182E06FEF58
:0A0730000E947702FBCFF894FFCF80
:00000001FF
