:100000000C942A000C9447000C9447000C94470071
:100010000C9447000C9447000C9447000C941B155B
:100020000C9447000C9447000C9447000C94470034
:100030000C9447000C9447000C9447000C94470024
:100040000C9447000C9447000C9447000C94470014
:100050000C94470011241FBECFE5D8E0DEBFCDBF12
:1000600011E0A0E6B0E0ECE7F2E402C005900D92EA
:10007000A238B107D9F716E0A2E8B1E001C01D929D
:10008000A030B107E1F70E94F8110C943C210C94C8
:100090000000EF92FF920F931F937B018C0120E0F1
:1000A00030E040E05FE40E94490388238CF0C801FF
:1000B000B70120E030E040E05FE40E94C1010E940F
:1000C00007049B01AC01205030404040504806C01E
:1000D000C801B7010E9407049B01AC01B901CA0124
:1000E0001F910F91FF90EF900895A0E0B0E0EBE733
:1000F000F0E00C94E620DC012B01FA019C91923097
:1001000008F439C1EB018881823008F433C194309E
:1001100069F4843009F02FC111969C91119789815F
:10012000981709F428C1A7E7B0E025C1843009F485
:1001300021C18230A9F4923009F01DC19A01AD01AC
:1001400088E0EA010990AE01E90109929E0181501F
:10015000C1F7E201898111969C918923818308C1AD
:10016000923009F407C112962D903C901397EB0141
:100170008A819B811496AD90BD90CD90DC901797AD
:10018000EC80FD800E811F819101281B390BB90184
:1001900037FF04C066277727621B730B6032710537
:1001A0000CF061C0121613066CF537014801062EDB
:1001B00004C096948794779467940A94D2F721E0C8
:1001C00030E040E050E004C0220F331F441F551FB1
:1001D0006A95D2F721503040404050402E213F21B7
:1001E00040235123211531054105510521F021E01E
:1001F00030E040E050E079018A01E628F72808293C
:1002000019293CC0232BD1F1260E371E350146019A
:10021000062E04C096948794779467940A94D2F734
:1002200021E030E040E050E004C0220F331F441FC3
:10023000551F6A95D2F721503040404050402A2146
:100240003B214C215D21211531054105510521F04E
:1002500021E030E040E050E059016A01A628B728CB
:10026000C828D9280BC0821593052CF01C01AA249C
:10027000BB24650103C0EE24FF24870111969C91E5
:10028000D20111968C91981709F445C0992339F041
:10029000A80197012A193B094C095D0906C0A6016E
:1002A00095012E193F09400B510B57FD08C01182D3
:1002B0003382228224833583468357831DC081E0A5
:1002C00081833382228288279927DC01821B930B4A
:1002D000A40BB50B84839583A683B7830DC0220F2F
:1002E000331F441F551F24833583468357838281E0
:1002F000938101979383828324813581468157813D
:10030000DA01C9010197A109B1098F5F9F4FAF4F72
:10031000BF4328F30BC0918333822282EA0CFB1C7B
:100320000C1D1D1DE482F5820683178383E0808304
:10033000248135814681578157FF1AC0C901AA27F8
:1003400097FDA095BA2F81709070A070B0705695EF
:10035000479537952795822B932BA42BB52B848318
:100360009583A683B7838281938101969383828349
:10037000DF0101C0D201CD01CDB7DEB7E2E10C94BF
:100380000221A0E2B0E0E7ECF1E00C94F2206983F6
:100390007A838B839C832D833E834F835887E9E048
:1003A000EE2EF12CEC0EFD1ECE010196B7010E943F
:1003B0007F058E010F5E1F4FCE010596B8010E948A
:1003C0007F058A8991E089278A8BC701B801AE0130
:1003D000475E5F4F0E9475000E94AA04A096E6E067
:1003E0000C940E21A0E2B0E0E8EFF1E00C94F220D2
:1003F00069837A838B839C832D833E834F835887C5
:10040000F9E0EF2EF12CEC0EFD1ECE010196B701A6
:100410000E947F058E010F5E1F4FCE010596B80129
:100420000E947F05C701B801AE01475E5F4F0E9481
:1004300075000E94AA04A096E6E00C940E21A0E2AA
:10044000B0E0E5E2F2E00C94E62069837A838B83E6
:100450009C832D833E834F835887CE010196BE0136
:10046000675F7F4F0E947F05CE010596BE016F5EDC
:100470007F4F0E947F059985923088F0898982306C
:10048000C8F0943019F4823051F404C0843029F457
:10049000923081F487E790E0C6C0923049F420E0C2
:1004A0009A858A89981321E02A87CE010996BBC0D4
:1004B000823049F420E09A858A89981321E02A8BBA
:1004C000CE014196B0C02D843E844F8458886D88FB
:1004D0007E888F88988CEE24FF248701AA24BB2471
:1004E000650140E050E060E070E0E0E0F0E0C10174
:1004F00081709070892BE9F0E60CF71C081D191D1E
:100500009A01AB012A0D3B1D4C1D5D1D80E090E062
:10051000A0E0B0E0E614F7040805190520F481E036
:1005200090E0A0E0B0E0BA01A901480F591F6A1F8E
:100530007B1FAA0CBB1CCC1CDD1C97FE08C081E0F5
:1005400090E0A0E0B0E0A82AB92ACA2ADB2A3196B6
:10055000E032F10549F0660C771C881C991C569412
:10056000479437942794C3CFFA85EA892B893C892D
:100570008B859C85280F391F2E5F3F4F17C0CA01FE
:1005800081709070892B61F016950795F794E79428
:1005900080E090E0A0E0B0E8E82AF92A0A2B1B2BC3
:1005A00076956795579547952F5F3F4F77FDE7CF36
:1005B0000CC0440F551F661F771F17FD4160EE0CDE
:1005C000FF1C001F111F21503040403090E05907A0
:1005D00090E0690790E4790760F32B8F3C8FDB0193
:1005E000CA018F779070A070B07080349105A1051A
:1005F000B10561F447FD0AC0E114F10401051105DC
:1006000029F0405C5F4F6F4F7F4F40781A8EFE1786
:1006100011F081E08A8F4D8F5E8F6F8F78A383E01A
:10062000898FCE0149960E94AA04A096E2E10C941B
:100630000221A8E1B0E0EFE1F3E00C94F22069833D
:100640007A838B839C832D833E834F83588789E0F5
:10065000E82EF12CEC0EFD1ECE010196B7010E9492
:100660007F058E010F5E1F4FCE010596B8010E94D7
:100670007F058985823040F08989823028F0C70162
:10068000B8010E94F70501C08FEF6896E6E00C9470
:100690000E21A8E1B0E0EFE4F3E00C94F2206983CE
:1006A0007A838B839C832D833E834F83588789E095
:1006B000E82EF12CEC0EFD1ECE010196B7010E9432
:1006C0007F058E010F5E1F4FCE010596B8010E9477
:1006D0007F058985823040F08989823028F0C70102
:1006E000B8010E94F70501C08FEF6896E6E00C9410
:1006F0000E21A8E1B0E0EFE7F3E00C94F22069836B
:100700007A838B839C832D833E834F83588789E034
:10071000E82EF12CEC0EFD1ECE010196B7010E94D1
:100720007F058E010F5E1F4FCE010596B8010E9416
:100730007F058985823040F08989823028F0C701A1
:10074000B8010E94F70501C081E06896E6E00C94CC
:100750000E21A8E0B0E0EFEAF3E00C94EF209B015B
:10076000AC0183E08983DA01C9018827B7FD83954D
:100770009927AA27BB27B82E211531054105510518
:1007800019F482E089833AC08823A9F0203080E000
:10079000380780E0480780E8580729F460E070E0F7
:1007A00080E09FEC30C0EE24FF248701E21AF30AB8
:1007B000040B150B02C079018A018EE1C82ED12CE1
:1007C000DC82CB82ED82FE820F831887C801B701DD
:1007D0000E945B0401971816190684F4082E04C0C1
:1007E000EE0CFF1C001F111F0A94D2F7ED82FE824F
:1007F0000F831887C81AD90ADC82CB82BA82CE014D
:1008000001960E94AA042896E9E00C940B21ACE022
:10081000B0E0EDE0F4E00C94F62069837A838B83FA
:100820009C83CE010196BE016B5F7F4F0E947F05C6
:100830008D81823061F1823050F1843021F48E81DB
:10084000882351F12EC02F81388537FD20C06E815D
:100850002F3131051CF06623F9F023C08EE190E0C2
:10086000821B930B29853A854B855C8504C0569580
:100870004795379527958A95D2F76623B1F050951D
:100880004095309521953F4F4F4F5F4F0EC020E070
:1008900030E040E050E009C02FEF3FEF4FEF5FE75F
:1008A00004C020E030E040E050E8B901CA012C96D5
:1008B000E2E00C941221EF92FF920F931F937B01C1
:1008C0008C0180E0E81680E0F80681E0080780E00F
:1008D000180788F48FEFE816F1040105110531F0CF
:1008E00028F088E090E0A0E0B0E017C080E090E061
:1008F000A0E0B0E012C080E0E81680E0F80680E0FA
:10090000080781E0180728F088E190E0A0E0B0E057
:1009100004C080E190E0A0E0B0E020E230E040E000
:1009200050E0281B390B4A0B5B0B04C0169507954A
:10093000F794E7948A95D2F7F701E158FF4F808149
:10094000281B310941095109C9011F910F91FF90DD
:10095000EF900895DF92EF92FF920F931F93FC01A7
:10096000E480F58006811781D1808081823048F44F
:1009700080E090E0A0E1B0E0E82AF92A0A2B1B2BE6
:10098000A5C0843009F49FC0823021F4EE24FF24F6
:10099000870105C0E114F1040105110519F4E0E037
:1009A000F0E096C0628173819FEF623879070CF0A6
:1009B0005BC022E83FEF261B370B2A3131052CF0B4
:1009C00020E030E040E050E02AC0B801A701022E4C
:1009D00004C076956795579547950A94D2F781E0BC
:1009E00090E0A0E0B0E004C0880F991FAA1FBB1FD1
:1009F0002A95D2F70197A109B1098E219F21A02341
:100A0000B1230097A105B10521F081E090E0A0E0BD
:100A1000B0E09A01AB01282B392B4A2B5B2BDA0172
:100A2000C9018F779070A070B07080349105A105D6
:100A3000B10539F427FF09C0205C3F4F4F4F5F4F8E
:100A400004C0215C3F4F4F4F5F4FE0E0F0E02030AB
:100A5000A0E03A07A0E04A07A0E45A0710F0E1E05E
:100A6000F0E079018A0127C06038710564F5FB0167
:100A7000E158FF4FD801C7018F779070A070B07018
:100A800080349105A105B10539F4E7FE0DC080E47D
:100A900090E0A0E0B0E004C08FE390E0A0E0B0E020
:100AA000E80EF91E0A1F1B1F17FF05C016950795B4
:100AB000F794E794319687E016950795F794E794B5
:100AC0008A95D1F705C0EE24FF248701EFEFF0E00F
:100AD0006E2F679566276795902F9F77D794DD24B3
:100AE000D7948E2F8695492F462B582F5D29B70115
:100AF000CA011F910F91FF90EF90DF900895FC01C4
:100B0000DB01408151812281622F6F7770E0221FCB
:100B10002227221F9381892F880F822B282F30E0D4
:100B2000991F9927991F11969C93119721153105AB
:100B3000A9F5411551056105710511F482E037C031
:100B400082E89FEF13969C938E9312979A01AB01C4
:100B500067E0220F331F441F551F6A95D1F783E0CA
:100B60008C930DC0220F331F441F551F12968D9179
:100B70009C911397019713969C938E931297203014
:100B800080E0380780E0480780E4580758F314965F
:100B90002D933D934D935C93179708952F3F310507
:100BA00079F4411551056105710519F484E08C93C0
:100BB000089564FF03C081E08C9312C01C9210C0A2
:100BC0002F57304013963C932E93129783E08C93CB
:100BD00087E0440F551F661F771F8A95D1F7706411
:100BE00014964D935D936D937C93179708951F937F
:100BF000DC01FB019C91923008F447C08081823077
:100C000008F443C0943051F411961C91843099F546
:100C10008181682F70E0611B71093FC0843021F031
:100C2000923031F48230B9F18181882389F12DC06D
:100C300011961C9111978230F1F081811817D9F427
:100C400012962D913C91139782819381821793077D
:100C500094F028173907BCF014968D919D910D9052
:100C6000BC91A02D248135814681578128173907F1
:100C70004A075B0718F4112341F00AC08217930753
:100C8000A407B50740F4112319F061E070E005C036
:100C90006FEF7FEF02C060E070E0CB011F9108951D
:100CA000DF93CF93CDB7DEB728970FB6F894DEBFAA
:100CB0000FBECDBF8A836B834C8319828B818830B2
:100CC00010F081E089838C81882309F078C08A81C3
:100CD000282F30E038872F838F81988582309105C7
:100CE00061F12F8138852330310534F48F81988567
:100CF0008130910569F060C02F813885233031053E
:100D000089F18F8198858430910509F440C054C0E1
:100D1000AAE3B0E0EAE3F0E08081482F8B81282F3E
:100D200030E081E090E0022E02C0880F991F0A9403
:100D3000E2F7809584238C93BBC0A7E3B0E0E7E3A0
:100D4000F0E08081482F8B81282F30E081E090E017
:100D5000022E02C0880F991F0A94E2F7809584231F
:100D60008C93A6C0A4E3B0E0E4E3F0E08081482FD8
:100D70008B81282F30E081E090E0022E02C0880FA6
:100D8000991F0A94E2F7809584238C9391C0A1E384
:100D9000B0E0E1E3F0E08081482F8B81282F30E044
:100DA00081E090E0022E02C0880F991F0A94E2F7BA
:100DB000809584238C937CC081E0898379C08C8169
:100DC000813009F073C08A81282F30E03E832D8363
:100DD0008D819E818230910551F12D813E8123309C
:100DE000310534F48D819E818130910561F05BC0C5
:100DF0002D813E812330310571F18D819E818430BA
:100E00009105E9F150C0AAE3B0E0EAE3F0E08081A7
:100E1000482F8B81282F30E081E090E0022E02C025
:100E2000880F991F0A94E2F7842B8C9341C0A7E3A3
:100E3000B0E0E7E3F0E08081482F8B81282F30E09D
:100E400081E090E0022E02C0880F991F0A94E2F719
:100E5000842B8C932DC0A4E3B0E0E4E3F0E0808128
:100E6000482F8B81282F30E081E090E0022E02C0D5
:100E7000880F991F0A94E2F7842B8C9319C0A1E381
:100E8000B0E0E1E3F0E08081482F8B81282F30E053
:100E900081E090E0022E02C0880F991F0A94E2F7C9
:100EA000842B8C9305C081E0898302C081E0898313
:100EB000898128960FB6F894DEBF0FBECDBFCF91C3
:100EC000DF910895DF93CF9300D000D00F92CDB77C
:100ED000DEB78A836B8319828A81282F30E03D83B5
:100EE0002C838C819D8182309105D9F02C813D81AC
:100EF0002330310534F48C819D818130910561F07E
:100F00001FC02C813D812330310581F08C819D8172
:100F10008430910581F014C0EAE3F0E08B81808396
:100F200011C0E7E3F0E08B8180830CC0E4E3F0E0E4
:100F30008B81808307C0E1E3F0E08B81808302C076
:100F400081E0898389810F900F900F900F900F900F
:100F5000CF91DF910895DF93CF93CDB7DEB7289778
:100F60000FB6F894DEBF0FBECDBF8A836B834C8370
:100F700019828B81883010F081E089838C818823ED
:100F800009F078C08A81282F30E038872F838F813D
:100F900098858230910561F12F81388523303105A4
:100FA00034F48F8198858130910569F060C02F817C
:100FB00038852330310589F18F81988584309105FA
:100FC00009F440C054C0ABE3B0E0EBE3F0E0808153
:100FD000482F8B81282F30E081E090E0022E02C064
:100FE000880F991F0A94E2F7809584238C93BBC0E5
:100FF000A8E3B0E0E8E3F0E08081482F8B81282F60
:1010000030E081E090E0022E02C0880F991F0A9420
:10101000E2F7809584238C93A6C0A5E3B0E0E5E3D6
:10102000F0E08081482F8B81282F30E081E090E034
:10103000022E02C0880F991F0A94E2F7809584233C
:101040008C9391C0A2E3B0E0E2E3F0E08081482F0E
:101050008B81282F30E081E090E0022E02C0880FC3
:10106000991F0A94E2F7809584238C937CC081E0D9
:10107000898379C08C81813009F073C08A81282FDF
:1010800030E03E832D838D819E818230910551F128
:101090002D813E812330310534F48D819E81813054
:1010A000910561F05BC02D813E812330310571F1E6
:1010B0008D819E8184309105E9F150C0ABE3B0E0B1
:1010C000EBE3F0E08081482F8B81282F30E081E036
:1010D00090E0022E02C0880F991F0A94E2F7842B39
:1010E0008C9341C0A8E3B0E0E8E3F0E08081482FB2
:1010F0008B81282F30E081E090E0022E02C0880F23
:10110000991F0A94E2F7842B8C932DC0A5E3B0E0DD
:10111000E5E3F0E08081482F8B81282F30E081E0EB
:1011200090E0022E02C0880F991F0A94E2F7842BE8
:101130008C9319C0A2E3B0E0E2E3F0E08081482F95
:101140008B81282F30E081E090E0022E02C0880FD2
:10115000991F0A94E2F7842B8C9305C081E0898360
:1011600002C081E08983898128960FB6F894DEBF9A
:101170000FBECDBFCF91DF910895DF93CF9300D005
:1011800000D00F92CDB7DEB78A836B8319828A8134
:10119000282F30E03D832C838C819D818230910506
:1011A000D9F02C813D812330310534F48C819D812F
:1011B0008130910561F01FC02C813D8123303105C4
:1011C00081F08C819D818430910581F014C0EBE326
:1011D000F0E08B81808311C0E8E3F0E08B818083B5
:1011E0000CC0E5E3F0E08B81808307C0E2E3F0E030
:1011F0008B81808302C081E0898389810F900F9069
:101200000F900F900F90CF91DF910895DF93CF93C0
:10121000CDB7DEB727970FB6F894DEBF0FBECDBFB0
:101220008A836B835D834C8319828C819D810097B7
:1012300019F08B81883010F081E089838A81282F12
:1012400030E03F832E834E815F814230510559F15A
:101250008E819F818330910534F42E813F8121302E
:10126000310569F05CC04E815F814330510579F1F1
:101270008E819F818430910509F43DC050C0E9E31F
:10128000F0E08081282F30E08B81882F90E0A90149
:1012900002C0559547958A95E2F7CA018170EC81A5
:1012A000FD8180833EC0E6E3F0E08081282F30E0BE
:1012B0008B81882F90E0A90102C0559547958A95AA
:1012C000E2F7CA018170EC81FD8180832AC0E3E3EB
:1012D000F0E08081282F30E08B81882F90E0A901F9
:1012E00002C0559547958A95E2F7CA018170EC8155
:1012F000FD81808316C0E0E3F0E08081282F30E09C
:101300008B81882F90E0A90102C0559547958A9559
:10131000E2F7CA018170EC81FD81808302C081E027
:101320008983898127960FB6F894DEBF0FBECDBFA3
:10133000CF91DF910895DF93CF9300D000D000D0FC
:10134000CDB7DEB78A837C836B8319828A81282F8D
:1013500030E03E832D838D819E8182309105E9F0BE
:101360002D813E812330310534F48D819E81813081
:10137000910561F027C02D813E8123303105A1F018
:101380008D819E8184309105B1F01CC0E9E3F0E0CD
:101390008081EB81FC81808317C0E6E3F0E08081EF
:1013A000EB81FC81808310C0E3E3F0E08081EB817E
:1013B000FC81808309C0E0E3F0E08081EB81FC8167
:1013C000808302C081E08983898126960FB6F894D4
:1013D000DEBF0FBECDBFCF91DF910895AF92BF9218
:1013E000CF92DF92EF92FF920F931F93DF93CF93F1
:1013F000CDB7DEB768970FB6F894DEBF0FBECDBF8E
:1014000069877A878B879C872D873E874F87588B84
:10141000E98AFA8A0B8B1C8BAD8ABE8ACF8AD88E5A
:101420002DA13EA14FA158A58D899E89AF89B88D68
:1014300079018A01E81AF90A0A0B1B0B29853A85FA
:101440004B855C858D859E85AF85B889281B390BBA
:101450004A0B5B0BC801B7010E948A207B018C01FB
:1014600029893A894B895C898D859E85AF85B889A4
:10147000281B390B4A0B5B0BC801B7010E94CB201C
:10148000DA01C901BC01CD010E94A903DC01CB0135
:101490008D839E83AF83B8876D897E898F89988D70
:1014A0000E94A903DC01CB01BC01CD012D813E814D
:1014B0004F8158850E94F201DC01CB0189839A8318
:1014C000AB83BC8389819A81AB81BC81BC01CD0196
:1014D00068960FB6F894DEBF0FBECDBFCF91DF91F7
:1014E0001F910F91FF90EF90DF90CF90BF90AF9042
:1014F0000895DF93CF93CDB7DEB72F970FB6F8944B
:10150000DEBF0FBECDBF8F8782E060E040E00E946B
:10151000AB0782E061E040E00E94AB0781E06F85AD
:101520000E94BD0882E062E041E00E94AB0780E0DB
:1015300090E0A0E0B0E48B879C87AD87BE876B8589
:101540007C858D859E8520E030E04AEF54E40E9442
:101550001F02DC01CB018F839887A987BA876F812F
:10156000788589859A8520E030E040E85FE30E9435
:10157000790388232CF481E090E09E838D833FC023
:101580006F81788589859A8520E03FEF4FE757E4A2
:101590000E94190318164CF56B857C858D859E85F8
:1015A00020E030E040E251E40E941F02DC01CB0168
:1015B000BC01CD010E944900DC01CB019E838D83DB
:1015C0000FC088EC90E09C838B838B819C8101977A
:1015D000F1F79C838B838D819E8101979E838D8300
:1015E0008D819E81009769F714C06F817885898508
:1015F0009A850E944900DC01CB019E838D838D81F9
:101600009E819A83898389819A810197F1F79A83D0
:10161000898382E062E040E00E94AB072F960FB61C
:10162000F894DEBF0FBECDBFCF91DF910895DF9359
:10163000CF93CDB7DEB72F970FB6F894DEBF0FBEAE
:10164000CDBF8F8782E060E041E00E94AB0782E07F
:1016500061E040E00E94AB0781E06F850E94BD0819
:1016600082E062E041E00E94AB0780E090E0A0E011
:10167000B0E48B879C87AD87BE876B857C858D8525
:101680009E8520E030E04AEF54E40E941F02DC0116
:10169000CB018F839887A987BA876F8178858985E1
:1016A0009A8520E030E040E85FE30E9479038823D8
:1016B0002CF481E090E09E838D833FC06F8178851C
:1016C00089859A8520E03FEF4FE757E40E94190390
:1016D00018164CF56B857C858D859E8520E030E065
:1016E00040E251E40E941F02DC01CB01BC01CD01AC
:1016F0000E944900DC01CB019E838D830FC088ECE2
:1017000090E09C838B838B819C810197F1F79C8374
:101710008B838D819E8101979E838D838D819E8198
:10172000009769F714C06F81788589859A850E9432
:101730004900DC01CB019E838D838D819E819A833C
:10174000898389819A810197F1F79A83898382E05D
:1017500062E040E00E94AB072F960FB6F894DEBF20
:101760000FBECDBFCF91DF910895DF93CF93CDB75B
:10177000DEB72E970FB6F894DEBF0FBECDBF80E068
:1017800090E0A0EFB1E48B879C87AD87BE876B8527
:101790007C858D859E8520E030E04AEF54E40E94F0
:1017A0001F02DC01CB018F839887A987BA876F81DD
:1017B000788589859A8520E030E040E85FE30E94E3
:1017C000790388232CF481E090E09E838D833FC0D1
:1017D0006F81788589859A8520E03FEF4FE757E450
:1017E0000E94190318164CF56B857C858D859E85A6
:1017F00020E030E040E251E40E941F02DC01CB0116
:10180000BC01CD010E944900DC01CB019E838D8388
:101810000FC088EC90E09C838B838B819C81019727
:10182000F1F79C838B838D819E8101979E838D83AD
:101830008D819E81009769F714C06F8178858985B5
:101840009A850E944900DC01CB019E838D838D81A6
:101850009E819A83898389819A810197F1F79A837E
:10186000898388E30E94790A8CE00E94790A81E0EA
:101870000E94790A2E960FB6F894DEBF0FBECDBF38
:10188000CF91DF910895DF93CF9300D00F92CDB722
:10189000DEB79B838A8319820EC08981282F30E0AE
:1018A0008A819B81FC01E20FF31F80810E94170B4C
:1018B00089818F5F89838981282F30E08A819B818C
:1018C000FC01E20FF31F8081882339F70F900F90FE
:1018D0000F90CF91DF910895DF93CF9300D00F92B7
:1018E000CDB7DEB78A836B838A81882319F48B8115
:1018F000898306C08A81813019F48B81805C898359
:10190000898180680E94790A0F900F900F90CF9183
:10191000DF910895DF93CF93CDB7DEB727970FB64A
:10192000F894DEBF0FBECDBF9C838B836D834E8347
:101930002F838D81882F90E0880F991F880F991F22
:10194000880F991F8A838A81805C0E94790A198294
:101950000EC08981282F30E08B819C81FC01E20F31
:10196000F31F80810E94170B89818F5F8983898192
:10197000883078F38E816F810E946C0C8D810E947B
:10198000170B27960FB6F894DEBF0FBECDBFCF91D1
:10199000DF910895DF93CF93CDB7DEB763970FB68E
:1019A000F894DEBF0FBECDBF688B798B8A8B9B8B83
:1019B000198288899989AA89BB898B839C83AD8385
:1019C000BE8315C089818F5F89838B819C81AD81A6
:1019D000BE812AE030E040E050E0BC01CD010E9431
:1019E000A920DA01C9018B839C83AD83BE838B81DF
:1019F0009C81AD81BE810097A105B10519F7898150
:101A0000882319F480E30E94170B1F8237C088894E
:101A10009989AA89BB892AE030E040E050E0BC0106
:101A2000CD010E94A920DC01CB018A838889998994
:101A3000AA89BB892AE030E040E050E0BC01CD013A
:101A40000E94A920DA01C901888B998BAA8BBB8BD4
:101A50008981282F30E08F81882F90E080959095A4
:101A6000280F391F8A81482F405DCE010896FC015E
:101A7000E20FF31F40838F818F5F8F839F81898166
:101A8000981728F28981282F30E0CE010896FC01B2
:101A9000E20FF31F1082CE0108960E94430C63965A
:101AA0000FB6F894DEBF0FBECDBFCF91DF91089582
:101AB000DF93CF93CDB7DEB7EAE3F0E08FEF80831B
:101AC000E7E3F0E087E08083E4E3F0E01082E1E325
:101AD000F0E01082EBE3F0E01082E8E3F0E0108247
:101AE000E5E3F0E01082E2E3F0E01082CF91DF91D5
:101AF0000895DF93CF93CDB7DEB727970FB6F8944D
:101B0000DEBF0FBECDBF9D838C836E834F838AE182
:101B100090E00E9451109A83898389819A8100976D
:101B200009F46FC08091820190918301009741F484
:101B300089819A8190938301809382010E94E00FB2
:101B40008E81823010F081E08E83E981FA81118EDE
:101B5000108EE981FA818E81868BE981FA818F81ED
:101B6000878BE981FA818C819D8191838083898132
:101B70009A8102960E94E71089819A810C960E94B0
:101B8000E710E981FA8189819A8191878087E981CB
:101B9000FA8189819A81938B828B8E81282F30E004
:101BA00084E090E0821B930BE981FA81958784871A
:101BB000E981FA81968980918401891728F4E98165
:101BC000FA81868980938401E981FA818689282FA8
:101BD00030E0C901880F991F880F991F880F991F3E
:101BE000820F931FAC0145575E4F89819A819C01FA
:101BF0002E5F3F4FCA01B9010E94F71081E08B832D
:101C000002C08FEF8B838B8127960FB6F894DEBFCF
:101C10000FBECDBFCF91DF910895DF93CF9300D05A
:101C200000D000D0CDB7DEB79C838B837E836D83DD
:101C300020918501309186018B819C81820F931FB9
:101C40009A838983809182019091830102960E94F8
:101C5000AF11E0918201F091830189819A81938390
:101C60008283209185013091860189819A81821732
:101C7000930770F48091B1019091B201209182019B
:101C8000309183012E5F3F4FB9010E9443110DC077
:101C90008091AF019091B001209182013091830138
:101CA0002E5F3F4FB9010E9443118D819E810097A5
:101CB00061F080918201909183019C01245F3F4FEC
:101CC0008D819E81B9010E94431126960FB6F8942A
:101CD000DEBF0FBECDBFCF91DF910895DF93CF93CD
:101CE00000D0CDB7DEB73AC0F894E091B801F091DA
:101CF000B901868197819A83898389819A810C961B
:101D00000E94AF11789489819A8102960E94AF1146
:101D1000E981FA81968980918401891728F4E98103
:101D2000FA81868980938401E981FA818689282F46
:101D300030E0C901880F991F880F991F880F991FDC
:101D4000820F931FAC0145575E4F89819A819C0198
:101D50002E5F3F4FCA01B9010E94F7108091B30175
:101D6000882309F0C1CF0F900F90CF91DF91089594
:101D7000DF93CF9300D000D0CDB7DEB70E94711CA7
:101D80002091870130918801821B930B90938A01E7
:101D90008093890185C0809185019091860101968B
:101DA00090938601809385018091890190918A01A9
:101DB000019790938A018093890180918501909188
:101DC0008601009709F064C08091AF019091B00145
:101DD0009A8389838091B1019091B2019093B0016F
:101DE0008093AF0189819A819093B2018093B10170
:101DF0004FC0E091AF01F091B0010580F681E02D78
:101E0000868197819C838B83EB81FC812281338146
:101E100080918501909186018217930708F440C054
:101E2000F8948B819C8102960E94AF11EB81FC811A
:101E300084899589009729F08B819C810C960E945A
:101E4000AF117894EB81FC81968980918401891788
:101E500028F4EB81FC81868980938401EB81FC81ED
:101E60008689282F30E0C901880F991F880F991F94
:101E7000880F991F820F931FAC0145575E4F8B81CE
:101E80009C819C012E5F3F4FCA01B9010E94F7104F
:101E9000E091AF01F091B0018081882309F0A9CFD2
:101EA0008091890190918A01009709F074CF809107
:101EB00085019091860190938801809387010F900E
:101EC0000F900F900F90CF91DF910895DF93CF93F4
:101ED00000D0CDB7DEB70E946E0E0E94B80E0AC0C9
:101EE00080918401882309F466C080918401815027
:101EF0008093840180918401282F30E0C901880FEC
:101F0000991F880F991F880F991F820F931FFC013B
:101F1000E557FE4F8081882319F380918401282F93
:101F200030E0C901880F991F880F991F880F991FEA
:101F3000820F931F85579E4F9A838983E981FA8187
:101F40000180F281E02D82819381E981FA8192837F
:101F50008183E981FA812181328189819A81039685
:101F60002817390759F4E981FA810180F281E02DBF
:101F700082819381E981FA8192838183E981FA8167
:101F80000180F281E02D8681978190938301809377
:101F90008201E0918201F091830140815181809121
:101FA000820190918301E0918201F0918301278960
:101FB000622FFA0109950F900F90CF91DF9108954C
:101FC000DF93CF930F92CDB7DEB7198213C089810B
:101FD000282F30E0C901880F991F880F991F880F9B
:101FE000991F820F931F85579E4F0E94BD108981B4
:101FF0008F5F89838981823050F38DE991E00E945F
:10200000BD1086EA91E00E94BD1083EB91E00E9432
:10201000BD108DE991E09093B0018093AF0186EA05
:1020200091E09093B2018093B1010F90CF91DF9135
:102030000895DF93CF9300D000D00F92CDB7DEB7D5
:102040009D838C83EC81FD810580F681E02D868166
:1020500097819B838A838A819B810C960E94AF1112
:102060008A819B819C01245F3F4F83EB91E0B90102
:102070000E94F710EA81FB819689E0918201F0913C
:1020800083018689981718F081E0898301C019823D
:1020900089810F900F900F900F900F90CF91DF914B
:1020A0000895DF93CF9300D000D0CDB7DEB79C83E7
:1020B0008B831A8219820E94DB1B8091BC01909154
:1020C000BD012B813C81820F931F23E0883E920744
:1020D00018F52091BC013091BD018B819C81280FA6
:1020E000391F8091BC019091BD0182179307A0F424
:1020F0008091BC019091BD0182549E4F9A83898347
:102100002091BC013091BD018B819C81820F931F76
:102110009093BD018093BC010E94E71B89819A8145
:102120000F900F900F900F90CF91DF910895DF9354
:10213000CF9300D0CDB7DEB79A8389830F900F90ED
:10214000CF91DF910895DF93CF93CDB7DEB7109293
:10215000BD011092BC01CF91DF910895DF93CF9321
:10216000CDB7DEB72091BC013091BD0188EE93E080
:10217000821B930BCF91DF910895DF93CF9300D013
:10218000CDB7DEB79A83898389819A810396E981E5
:10219000FA8192838183E981FA818FEF9FEF9483A3
:1021A000838389819A810396E981FA819683858365
:1021B00089819A810396E981FA8190878783E981F1
:1021C000FA8110820F900F90CF91DF910895DF93E5
:1021D000CF9300D0CDB7DEB79A838983E981FA81A6
:1021E000118610860F900F90CF91DF910895DF93A5
:1021F000CF9300D000D000D0CDB7DEB79C838B83C7
:102200007E836D83EB81FC81818192819A838983B6
:10221000E981FA8182819381ED81FE8193838283BA
:10222000EB81FC8181819281ED81FE8195838483A4
:10223000E981FA810280F381E02D8D819E81958371
:1022400084838D819E81E981FA81938382838D814C
:102250009E81EB81FC8192838183ED81FE818B8164
:102260009C8191878087EB81FC8180818F5FEB81EE
:10227000FC81808326960FB6F894DEBF0FBECDBFDB
:10228000CF91DF910895DF93CF93CDB7DEB7289735
:102290000FB6F894DEBF0FBECDBF9E838D837887C7
:1022A0006F83EF81F885808191819A838983898109
:1022B0009A812FEF8F3F920739F4ED81FE8187815C
:1022C00090859C838B8318C08D819E8103969C830F
:1022D0008B8306C0EB81FC81828193819C838B83FD
:1022E000EB81FC810280F381E02D208131818981A5
:1022F0009A818217930770F7EB81FC818281938129
:10230000EF81F88593838283EF81F8850280F381E2
:10231000E02D8F81988595838483EF81F8858B816B
:102320009C81958384838F819885EB81FC81938345
:102330008283EF81F8858D819E8191878087ED81F1
:10234000FE8180818F5FED81FE81808328960FB6AC
:10235000F894DEBF0FBECDBFCF91DF910895DF931C
:10236000CF9300D000D0CDB7DEB79C838B83EB81B9
:10237000FC81A281B381EB81FC81848195811596DA
:102380009C938E931497EB81FC81A481B581EB81A2
:10239000FC818281938113969C938E931297EB819B
:1023A000FC81808591859A838983E981FA812181E5
:1023B00032818B819C812817390741F4EB81FC81A4
:1023C00084819581E981FA8192838183EB81FC810B
:1023D00011861086E981FA8180818150E981FA8134
:1023E00080830F900F900F900F90CF91DF91089501
:1023F000AF92BF92CF92DF92EF92FF920F93DF9353
:10240000CF93CDB7DEB70E94580D0E94B50B8CE27A
:1024100092E160E070E04AEF50E020E030E000E060
:10242000EE24FF24CC24DD24AA24BB240E949F197F
:102430008CE392E160E070E04AEF50E020E030E0B1
:1024400000E0EE24FF24CC24DD24AA24BB240E9437
:102450009F190E94981BFFCFDF93CF9300D0CDB779
:10246000DEB79A83898380E690E00E94430C88EE71
:1024700093E00E94631BF7CFDF93CF9300D0CDB7DB
:10248000DEB79A83898389E690E00E94430C88EE48
:1024900093E00E94631BF7CFDF93CF93CDB7DEB7F6
:1024A00028970FB6F894DEBF0FBECDBF9C838B83F9
:1024B0007E836D8358874F83EB81FC8181E180832C
:1024C0008B819C8101979C838B83EB81FC8182E2D1
:1024D00080838B819C8101979C838B83EB81FC8122
:1024E00083E380838B819C8101979C838B838D8187
:1024F0009E819A8389838981EB81FC8180838B8192
:102500009C8101979C838B8389819A81892F99274C
:102510009A8389838981EB81FC8180838B819C8173
:1025200001979C838B83EB81FC8110828B819C8142
:1025300001979C838B83EB81FC8180E880838B8176
:102540009C8101979C838B83EB81FC8110828B8122
:102550009C8101979C838B83EB81FC8182E080834B
:102560008B819C8101979C838B83EB81FC8183E031
:1025700080838B819C8101979C838B83EB81FC8181
:1025800084E080838B819C8101979C838B83EB818A
:10259000FC8185E080838B819C8101979C838B8368
:1025A000EB81FC8186E080838B819C8101979C83F9
:1025B0008B83EB81FC8187E080838B819C810197F9
:1025C0009C838B83EB81FC8188E080838B819C8161
:1025D00001979C838B83EB81FC8189E080838B81D5
:1025E0009C8101979C838B83EB81FC8180E18083BC
:1025F0008B819C8101979C838B83EB81FC8181E1A2
:1026000080838B819C8101979C838B83EB81FC81F0
:1026100082E180838B819C8101979C838B83EB81FA
:10262000FC8183E180838B819C8101979C838B83D8
:10263000EB81FC8184E180838B819C8101979C8369
:102640008B83EB81FC8185E180838B819C81019769
:102650009C838B83EB81FC8186E180838B819C81D1
:1026600001979C838B83EB81FC8187E180838B8145
:102670009C8101979C838B83EB81FC8188E1808323
:102680008B819C8101979C838B83EB81FC8189E109
:1026900080838B819C8101979C838B83EB81FC8160
:1026A00080E280838B819C8101979C838B83EB816B
:1026B000FC8181E280838B819C8101979C838B8349
:1026C000EB81FC8182E280838B819C8101979C83DA
:1026D0008B83EB81FC8183E280838B819C810197DA
:1026E0009C838B838F8198859A8389838981EB81F1
:1026F000FC8180838B819C8101979C838B83898162
:102700009A81892F99279A8389838981EB81FC811A
:1027100080838B819C8101979C838B83EB81FC81DF
:1027200086E280838B819C8101979C838B83EB81E4
:10273000FC8187E280838B819C8101979C838B83C2
:10274000EB81FC8188E280838B819C8101979C8353
:102750008B83EB81FC8189E280838B819C81019753
:102760009C838B83EB81FC8180E380838B819C81C4
:1027700001979C838B83EB81FC8181E380838B8138
:102780009C8101979C838B838B819C8128960FB6BB
:10279000F894DEBF0FBECDBFCF91DF910895DF93D8
:1027A000CF93CDB7DEB70E94BF14A091A605B0911C
:1027B000A705CD91CDBFDD91DEBFFF91EF91DF91F8
:1027C000CF91BF91AF919F918F917F916F915F91C9
:1027D0004F913F912F911F910F91FF90EF90DF90BC
:1027E000CF90BF90AF909F908F907F906F905F90B1
:1027F0004F903F902F901F900F900FBE0F90089515
:1028000081E0CF91DF910895DF93CF93CDB7DEB70D
:10281000CF91DF9108950F920FB6F8940F921F9207
:1028200011242F923F924F925F926F927F928F92DC
:102830009F92AF92BF92CF92DF92EF92FF920F934F
:102840001F932F933F934F935F936F937F938F9338
:102850009F93AF93BF93CF93DF93EF93FF93A09199
:10286000A605B091A7050DB60D920EB60D920E9469
:102870007B1DA091A605B091A705CD91CDBFDD919F
:10288000DEBFFF91EF91DF91CF91BF91AF919F910B
:102890008F917F916F915F914F913F912F911F91F8
:1028A0000F91FF90EF90DF90CF90BF90AF909F90EF
:1028B0008F907F906F905F904F903F902F901F90E0
:1028C0000F900FBE0F9008950F920FB6F8940F92CD
:1028D0001F9211242F923F924F925F926F927F929C
:1028E0008F929F92AF92BF92CF92DF92EF92FF9220
:1028F0000F931F932F933F934F935F936F937F9308
:102900008F939F93AF93BF93CF93DF93EF93FF93F7
:10291000A091A605B091A7050DB60D920EB60D9229
:102920000E94A61C0E947B1DA091A605B091A70540
:10293000CD91CDBFDD91DEBFFF91EF91DF91CF91C2
:10294000BF91AF919F918F917F916F915F914F91C7
:102950003F912F911F910F91FF90EF90DF90CF90BB
:10296000BF90AF909F908F907F906F905F904F90AF
:102970003F902F901F900F900FBE0F900895DF9300
:10298000CF9300D000D000D0CDB7DEB780E49FE178
:10299000A0E0B0E08B839C83AD83BE838B819C8160
:1029A000AD81BE81689415F8B695A79597958795E2
:1029B0001694D1F78B839C83AD83BE838B819C81DE
:1029C000AD81BE810197A109B1098B839C83AD8341
:1029D000BE838B8189838B819C81AD81BE81892F50
:1029E0009A2FAB2FBB278B839C83AD83BE838B81B8
:1029F0008A83EBE4F0E08A818083EAE4F0E0898175
:102A000080838BE08983EEE4F0E089818083E9E5CF
:102A1000F0E080818983898180618983E9E5F0E044
:102A20008981808326960FB6F894DEBF0FBECDBF96
:102A3000CF91DF9108950E9464141895DF93CF938E
:102A4000CDB7DEB728970FB6F894DEBF0FBECDBF67
:102A50008F8368871A8219828F81882309F48CC03A
:102A60008FE190E00E9451109E838D838D819E8125
:102A7000009709F481C08F81282F30E08885882F46
:102A800090E0AC01249FC001259F900D349F900DD4
:102A9000112401969C838B838B819C810E94511011
:102AA000ED81FE8191838083ED81FE818081918122
:102AB000009709F45DC0ED81FE81408151818F81D5
:102AC000282F30E08885882F90E0BC01269FC00128
:102AD000279F900D369F900D1124840F951FED8137
:102AE000FE8193838283ED81FE81128EED81FE81D2
:102AF00080819181ED81FE8195838483ED81FE81CA
:102B0000408151818F81882F90E09C01215030407D
:102B10008885882F90E0BC01269FC001279F900DDB
:102B2000369F900D1124840F951FED81FE819783B0
:102B30008683ED81FE818F81838FED81FE81888583
:102B4000848FED81FE818FEF858FED81FE818FEF88
:102B5000868F8D819E8108960E94BD108D819E81F9
:102B600041960E94BD108D819E819A83898304C005
:102B70008D819E810E94971089819A8128960FB637
:102B8000F894DEBF0FBECDBFCF91DF910895DF93E4
:102B9000CF93CDB7DEB72C970FB6F894DEBF0FBE3C
:102BA000CDBF9E838D8378876F835A8749872B8714
:102BB00019820FB6F8940F92ED81FE81928DED810E
:102BC000FE81838D9817D8F48D819E812F81388561
:102BD000B9014B850E940218ED81FE81818988230D
:102BE00049F08D819E8141960E94171E813011F41B
:102BF0000E940B140F900FBE81E08C875CC089850A
:102C00009A85009721F40F900FBE1C8654C08981CD
:102C1000882331F4CE0102960E947F1E81E08983D1
:102C20000F900FBE0E94DB1B0FB6F8940F92ED8140
:102C3000FE81858D8F3F19F4ED81FE81158EED812A
:102C4000FE81868D8F3F19F4ED81FE81168E0F90E7
:102C50000FBECE0102969E01275F3F4FB9010E9431
:102C6000981E882309F58D819E810E94661988230C
:102C7000A1F08D819E81089629853A85B9010E942F
:102C8000E11D8D819E810E94DF180E94E71B882331
:102C900009F08FCF0E940B148CCF8D819E810E94F2
:102CA000DF180E94E71B85CF8D819E810E94DF186F
:102CB0000E94E71B1C868C852C960FB6F894DEBF0D
:102CC0000FBECDBFCF91DF910895DF93CF93CDB7E6
:102CD000DEB729970FB6F894DEBF0FBECDBF9C8339
:102CE0008B837E836D8358874F8329871982EB817D
:102CF000FC81928DEB81FC81838D981740F58B814F
:102D00009C812D813E81B90149850E940218EB8189
:102D1000FC81868D8F3F89F4EB81FC81818988233A
:102D200099F08B819C8141960E94171E882361F047
:102D3000EF81F88581E0808307C0EB81FC81868D7F
:102D40008F5FEB81FC81868F81E08A8301C01A82CC
:102D50008A8129960FB6F894DEBF0FBECDBFCF9102
:102D6000DF910895DF93CF93CDB7DEB72E970FB6DF
:102D7000F894DEBF0FBECDBF98878F837A876987AF
:102D80005C874B872D871B820FB6F8940F92EF81DB
:102D9000F885828D882309F43FC0EF81F88586810C
:102DA00097819A8389838F81988529853A85B9018E
:102DB0000E9497188D858823B1F4EF81F885828D64
:102DC0008150EF81F885828FEF81F8858085882397
:102DD000F1F08F81988508960E94171E8130B9F412
:102DE0000E940B1414C0EF81F88589819A81978322
:102DF0008683EF81F8858189882349F08F819885C2
:102E000041960E94171E882311F00E940B140F9008
:102E10000FBE81E08E875CC08B859C85009721F476
:102E20000F900FBE1E8654C08B81882331F4CE01D3
:102E300004960E947F1E81E08B830F900FBE0E943C
:102E4000DB1B0FB6F8940F92EF81F885858D8F3FCD
:102E500019F4EF81F885158EEF81F885868D8F3F07
:102E600019F4EF81F885168E0F900FBECE010496EF
:102E70009E01255F3F4FB9010E94981E882309F5E6
:102E80008F8198850E9433198823A1F08F819885BE
:102E900041962B853C85B9010E94E11D8F81988563
:102EA0000E94DF180E94E71B882309F06DCF0E9463
:102EB0000B146ACF8F8198850E94DF180E94E71B50
:102EC00063CF8F8198850E94DF180E94E71B1E86C2
:102ED0008E852E960FB6F894DEBF0FBECDBFCF9174
:102EE000DF910895DF93CF93CDB7DEB728970FB664
:102EF000F894DEBF0FBECDBF9C838B837E836D8332
:102F000058874F831982EB81FC81828D882371F170
:102F10008B819C812D813E81B9010E949718EB81A4
:102F2000FC81828D8150EB81FC81828FEB81FC8161
:102F3000858D8F3F89F4EB81FC818085882399F012
:102F40008B819C8108960E94171E882361F0EF8177
:102F5000F88581E0808307C0EB81FC81858D8F5FE0
:102F6000EB81FC81858F81E08A8301C01A828A818E
:102F700028960FB6F894DEBF0FBECDBFCF91DF917C
:102F80000895DF93CF9300D00F92CDB7DEB79B8328
:102F90008A830FB6F8940F92EA81FB81828D898330
:102FA0000F900FBE89810F900F900F90CF91DF91FE
:102FB0000895DF93CF9300D00F92CDB7DEB79B83F8
:102FC0008A83EA81FB81828D898389810F900F90AA
:102FD0000F90CF91DF910895DF93CF9300D0CDB7BD
:102FE000DEB79A838983E981FA81808191810E9489
:102FF000971089819A810E9497100F900F90CF911E
:10300000DF910895DF93CF9300D000D00F92CDB71A
:10301000DEB79A8389837C836B834D83E981FA8150
:10302000848D882309F474C08D81882399F5E98102
:10303000FA8164817581E981FA81848D482F50E09D
:103040002B813C81CB01B9010E941D21E981FA81CC
:1030500024813581E981FA81848D882F90E0820F67
:10306000931FE981FA8195838483E981FA81248120
:103070003581E981FA81828193812817390708F423
:1030800047C0E981FA8180819181E981FA81958344
:1030900084833EC0E981FA8166817781E981FA8182
:1030A000848D482F50E02B813C81CB01B9010E94D7
:1030B0001D21E981FA8126813781E981FA81848D98
:1030C000882F90E0909581959F4F820F931FE98103
:1030D000FA8197838683E981FA8126813781E981A4
:1030E000FA81808191812817390790F4E981FA816A
:1030F00022813381E981FA81848D882F90E0909537
:1031000081959F4F820F931FE981FA819783868370
:10311000E981FA81828D8F5FE981FA81828F0F9038
:103120000F900F900F900F90CF91DF910895DF9344
:10313000CF9300D000D0CDB7DEB79A8389837C834C
:103140006B83E981FA8180819181009789F1E9811E
:10315000FA8126813781E981FA81848D882F90E078
:10316000820F931FE981FA8197838683E981FA812F
:1031700026813781E981FA81828193812817390775
:1031800040F0E981FA8180819181E981FA81978318
:103190008683E981FA8146815781E981FA81848DAC
:1031A000282F30E08B819C81BA01A9010E941D214A
:1031B0000F900F900F900F90CF91DF910895DF93B4
:1031C000CF9300D0CDB7DEB79A8389830FB6F8943A
:1031D0000F9215C0E981FA8181898823A9F089813C
:1031E0009A8141960E94171E882311F00E94F51EB5
:1031F000E981FA81868D8150E981FA81868FE981A2
:10320000FA81868D181634F3E981FA818FEF868F63
:103210000F900FBE0FB6F8940F9215C0E981FA8196
:1032200080858823A9F089819A8108960E94171EBB
:10323000882311F00E94F51EE981FA81858D815065
:10324000E981FA81858FE981FA81858D181634F339
:10325000E981FA818FEF858F0F900FBE0F900F904D
:10326000CF91DF910895DF93CF9300D00F92CDB728
:10327000DEB79B838A830FB6F8940F92EA81FB81B5
:10328000828D1982882311F481E089830F900FBE0B
:1032900089810F900F900F90CF91DF910895DF9368
:1032A000CF9300D00F92CDB7DEB79B838A83EA819C
:1032B000FB81828D1982882311F481E089838981C1
:1032C0000F900F900F90CF91DF910895DF93CF93E0
:1032D00000D00F92CDB7DEB79B838A830FB6F894E8
:1032E0000F92EA81FB81928DEA81FB81838D1982A5
:1032F000981711F481E089830F900FBE89810F9098
:103300000F900F90CF91DF910895DF93CF9300D06E
:103310000F92CDB7DEB79B838A83EA81FB81928DC2
:10332000EA81FB81838D1982981711F481E08983EA
:1033300089810F900F900F90CF91DF910895AF92F8
:10334000BF92CF92DF92EF92FF920F931F93DF9382
:10335000CF93CDB7DEB764970FB6F894DEBF0FBE3C
:10336000CDBF9F838E83798768875B874A873D8738
:103370002C870E87F88AEF86DA8AC98ABC8AAB8ADC
:103380008A859B8529893A89B9010E9424209C83DA
:103390008B838B819C81009709F499C0EB81FC8120
:1033A0002789308D8A859B850197820F931F9A8389
:1033B00089838B819C8128853985EB89FC89AA8545
:1033C000BB85B9014E859F018D010E94091F89812E
:1033D0009A812E813F814C855D85B9010E944C12F6
:1033E000EB81FC81918380838F859889009731F0F0
:1033F000EF85F8898B819C81918380830FB6F89447
:103400000F928091A9058F5F8093A9058091A605F1
:103410009091A705009769F48B819C819093A705F3
:103420008093A6058091A9058130A9F40E94601FB0
:1034300012C08091AE05882371F4E091A605F09149
:10344000A70596898E85891730F08B819C81909392
:10345000A7058093A605EB81FC8196898091AC0538
:10346000891728F4EB81FC8186898093AC058091D3
:10347000B3058F5F8093B305EB81FC8196898091C2
:10348000AD05891728F4EB81FC8186898093AD0511
:10349000EB81FC818689282F30E0C901880F991FB4
:1034A000880F991F880F991F820F931FAC014C54EE
:1034B0005A4F8B819C819C012E5F3F4FCA01B901FD
:1034C0000E94F71081E08D830F900FBE02C08FEF36
:1034D0008D838D81813071F48091AE05882351F008
:1034E000E091A605F091A70596898E85981710F4AE
:1034F0000E940B148D8164960FB6F894DEBF0FBE48
:10350000CDBFCF91DF911F910F91FF90EF90DF9092
:10351000CF90BF90AF900895DF93CF9300D000D0AD
:1035200000D0CDB7DEB79C838B830FB6F8940F9293
:103530002091A6053091A7058B819C818217930766
:1035400011F41C821B828B819C81009739F480913D
:10355000A6059091A7059E838D8304C08B819C81D5
:103560009E838D838D819E819A83898389819A81AF
:1035700002960E94AF11E981FA81848995890097AA
:1035800029F089819A810C960E94AF1189819A81D4
:103590009C012E5F3F4F87EF95E0B9010E94F71025
:1035A0008091A8058F5F8093A8058091B3058F5FF8
:1035B0008093B3050F900FBE8091AE05882331F044
:1035C0008B819C81009711F40E940B1426960FB6F4
:1035D000F894DEBF0FBECDBFCF91DF910895DF938A
:1035E000CF93CDB7DEB728970FB6F894DEBF0FBEE6
:1035F000CDBF9E838D8378876F8319820E94DB1BEA
:10360000ED81FE81208131818F819885820F931F0A
:103610009C838B83ED81FE81208131818091AA057D
:103620009091AB0582179307A8F4ED81FE8120816C
:1036300031818B819C818217930700F52091AA0527
:103640003091AB058B819C8128173907B8F481E054
:10365000898314C0ED81FE81208131818B819C8121
:103660008217930748F02091AA053091AB058B8112
:103670009C812817390710F481E08983ED81FE8150
:103680008B819C81918380838981882359F08091EB
:10369000A6059091A70502960E94AF118B819C818F
:1036A0000E94DB1F0E94E71B8A838A81882311F412
:1036B0000E940B1428960FB6F894DEBF0FBECDBF44
:1036C000CF91DF910895DF93CF9300D000D00F9278
:1036D000CDB7DEB79D838C8319828C819D81009745
:1036E000D1F00E94DB1B2091AA053091AB058C81A3
:1036F0009D81820F931F9B838A838091A605909161
:10370000A70502960E94AF118A819B810E94DB1F50
:103710000E94E71B89838981882311F40E940B147E
:103720000F900F900F900F900F90CF91DF91089511
:10373000AF92BF92CF92DF92EF92FF920F93DF93FF
:10374000CF930F92CDB7DEB722E730E08FEF9EE147
:10375000B90145E550E020E030E000E0EE24FF2430
:10376000CC24DD24AA24BB240E949F19898389814B
:10377000813051F4F89481E08093AE051092AB054E
:103780001092AA050E94CF130F90CF91DF910F9155
:10379000FF90EF90DF90CF90BF90AF900895DF93B0
:1037A000CF93CDB7DEB7F8941092AE050E94041403
:1037B000CF91DF910895DF93CF93CDB7DEB780919E
:1037C000AF058F5F8093AF05CF91DF910895DF93B1
:1037D000CF9300D000D0CDB7DEB71A820FB6F894E1
:1037E0000F928091AF0581508093AF058091AF0516
:1037F000882309F06CC08091A905882309F467C06B
:10380000198241C0E091F305F091F405868197811A
:103810009C838B838B819C810C960E94AF118B8142
:103820009C8102960E94AF11EB81FC819689809168
:10383000AD05891728F4EB81FC8186898093AD055D
:10384000EB81FC818689282F30E0C901880F991F00
:10385000880F991F880F991F820F931F8C549A4FBE
:103860002B813C812E5F3F4FB9010E94F710EB8105
:10387000FC819689E091A605F091A70586899817A5
:1038800010F081E089838091EE05882309F0BACF9A
:103890008091B005882371F007C00E94A61C80911A
:1038A000B00581508093B0058091B0058823A9F7B9
:1038B00081E089838981813021F08091B105813057
:1038C00031F481E08A831092B1050E940B140F90AD
:1038D0000FBE8A810F900F900F900F90CF91DF91C4
:1038E0000895DF93CF9300D0CDB7DEB70FB6F8942D
:1038F0000F928091AA059091AB059A8389830F90CE
:103900000FBE89819A810F900F90CF91DF9108951A
:10391000DF93CF9300D00F92CDB7DEB7198280919D
:10392000AA059091AB059B838A838A819B810F9026
:103930000F900F90CF91DF910895DF93CF93CDB784
:10394000DEB78091A905CF91DF910895DF93CF93E2
:1039500000D000D000D0CDB7DEB78091AF0588236E
:1039600009F0BBC08091AA059091AB050196909398
:10397000AB058093AA058091AA059091AB050097AD
:10398000D1F58091EA059091EB059C838B83809122
:10399000EC059091ED059093EB058093EA058B8102
:1039A0009C819093ED058093EC058091B2058F5F2B
:1039B0008093B205E091EA05F091EB0580818823C0
:1039C00039F48FEF9FEF9093800180937F0113C0B4
:1039D000E091EA05F091EB050580F681E02D868106
:1039E00097819E838D83ED81FE8182819381909367
:1039F000800180937F012091AA053091AB058091D1
:103A00007F01909180012817390708F46BC0E0917D
:103A1000EA05F091EB058081882339F48FEF9FEF61
:103A20009093800180937F015DC0E091EA05F09161
:103A3000EB050580F681E02D868197819E838D833D
:103A4000ED81FE81828193819A8389832091AA05E9
:103A50003091AB0589819A812817390738F489811B
:103A60009A819093800180937F013CC08D819E81DB
:103A700002960E94AF11ED81FE818489958900979D
:103A800029F08D819E810C960E94AF11ED81FE81FF
:103A900096898091AD05891728F4ED81FE8186898C
:103AA0008093AD05ED81FE818689282F30E0C90124
:103AB000880F991F880F991F880F991F820F931FD6
:103AC000AC014C545A4F8D819E819C012E5F3F4F1B
:103AD000CA01B9010E94F7109ACF8091B0058F5F9B
:103AE0008093B00526960FB6F894DEBF0FBECDBF0B
:103AF000CF91DF910895DF93CF9300D0CDB7DEB79C
:103B00008091AF05882349F081E08093B10554C0CE
:103B10008091AD0581508093AD058091AD05282F32
:103B200030E0C901880F991F880F991F880F991FCE
:103B3000820F931FFC01EC54FA4F8081882341F3DC
:103B40008091AD05282F30E0C901880F991F880F9B
:103B5000991F880F991F820F931F8C549A4F9A8335
:103B60008983E981FA810180F281E02D828193814C
:103B7000E981FA8192838183E981FA81218132810D
:103B800089819A8103962817390759F4E981FA81C6
:103B90000180F281E02D82819381E981FA81928313
:103BA0008183E981FA810180F281E02D868197810C
:103BB0009093A7058093A6050F900F90CF91DF916A
:103BC0000895DF93CF9300D000D000D0CDB7DEB7FB
:103BD0009C838B837E836D834B815C818091A60562
:103BE0009091A7059C01245F3F4FCA01B9010E9433
:103BF00043118091A6059091A70502960E94AF11EE
:103C00002091AA053091AB058D819E81820F931F73
:103C10009A83898389819A810E94DB1F26960FB639
:103C2000F894DEBF0FBECDBFCF91DF910895DF9333
:103C3000CF9300D000D00F92CDB7DEB79D838C8399
:103C4000EC81FD810580F681E02D868197819B8343
:103C50008A838A819B810C960E94AF118091AF0567
:103C6000882361F58A819B8102960E94AF11EA81C7
:103C7000FB8196898091AD05891728F4EA81FB8143
:103C800086898093AD05EA81FB818689282F30E003
:103C9000C901880F991F880F991F880F991F820FDC
:103CA000931FAC014C545A4F8A819B819C012E5F1B
:103CB0003F4FCA01B9010E94F7100AC08A819B8157
:103CC0009C01245F3F4F8EEE95E0B9010E94F710F2
:103CD000EA81FB819689E091A605F091A705868986
:103CE000981718F081E0898301C0198289810F90AB
:103CF0000F900F900F900F90CF91DF910895DF9369
:103D0000CF9300D0CDB7DEB79A8389838091B20577
:103D1000E981FA8180838091AA059091AB05E981C0
:103D2000FA81928381830F900F90CF91DF91089554
:103D3000DF93CF9300D000D00F92CDB7DEB79B8337
:103D40008A837D836C830FB6F8940F92EA81FB819E
:103D500090818091B205981771F0EA81FB812181F1
:103D600032818091AA059091AB058217930718F0D4
:103D700081E089832FC02091AA053091AB05EA81AB
:103D8000FB8181819281281B390BEC81FD8180812F
:103D9000918128173907E0F4EC81FD814081518140
:103DA000EA81FB81218132818091AA059091AB0546
:103DB000B901681B790BCB01840F951FEC81FD8144
:103DC000918380838A819B810E947F1E198202C019
:103DD00081E089830F900FBE89810F900F900F9023
:103DE0000F900F90CF91DF910895DF93CF93CDB7D0
:103DF000DEB781E08093B105CF91DF910895DF9325
:103E0000CF9300D0CDB7DEB79A8389830E949D1FE0
:103E1000FDCF0F931F93DF93CF93CDB7DEB72997D5
:103E20000FB6F894DEBF0FBECDBF9A8389837C8323
:103E30006B834D833F832E831987088789819A81FD
:103E400049962B813C81B90148E050E00E942D2128
:103E5000E981FA8110A28D81843010F083E08D8396
:103E6000E981FA818D81868B89819A8102960E94EF
:103E7000E71089819A810C960E94E710E981FA8106
:103E800089819A81918780878D81282F30E084E015
:103E900090E0821B930BE981FA8195878487E98101
:103EA000FA8189819A81938B828B29960FB6F89437
:103EB000DEBF0FBECDBFCF91DF911F910F9108954F
:103EC000DF93CF930F92CDB7DEB7198213C08981EC
:103ED000282F30E0C901880F991F880F991F880F7C
:103EE000991F820F931F8C549A4F0E94BD10898195
:103EF0008F5F89838981843050F388ED95E00E943B
:103F0000BD1081EE95E00E94BD108EEE95E00E94FE
:103F1000BD1087EF95E00E94BD1088ED95E090936D
:103F2000EB058093EA0581EE95E09093ED05809393
:103F3000EC050F90CF91DF910895DF93CF9300D0E0
:103F40000F92CDB7DEB78091A805882371F10E944A
:103F5000DB1B8091F7051B82882311F481E08B83A2
:103F60000E94E71B8B81882301F50FB6F8940F920E
:103F7000E091FC05F091FD05868197819A83898304
:103F800089819A8102960E94AF118091A905815082
:103F90008093A9058091A80581508093A8050F9072
:103FA0000FBE89819A810E9474200F900F900F900C
:103FB000CF91DF910895DF93CF9300D0CDB7DEB7D7
:103FC0009A838983E091A605F091A70589819A815A
:103FD000938382832091AA053091AB0589819A81D0
:103FE0008217930770F48091EC059091ED05209174
:103FF000A6053091A7052E5F3F4FB9010E944311DE
:104000001EC04091EA055091EB058091A605909164
:10401000A7059C012E5F3F4FCA01B9010E944311C1
:1040200020917F013091800189819A8182179307C5
:1040300030F489819A819093800180937F010F9061
:104040000F90CF91DF910895DF93CF93CDB7DEB777
:1040500028970FB6F894DEBF0FBECDBF9C838B832D
:104060007E836D8381E290E00E9451109A83898360
:1040700089819A81009769F18D819E81009739F439
:104080008B819C810E94511098878F8304C08D8101
:104090009E8198878F83E981FA818F819885908F9F
:1040A000878BE981FA818789908D009739F489811E
:1040B0009A810E9497101A8219820BC0E981FA81B5
:1040C0008789908D2B813C8165EA70E0A9010E946F
:1040D000262189819A8128960FB6F894DEBF0FBEFB
:1040E000CDBFCF91DF910895DF93CF9300D0CDB7AF
:1040F000DEB79A838983E981FA818789908D0E944E
:10410000971089819A810E9497100F900F90CF91FC
:10411000DF910895629FD001739FF001829FE00DAF
:10412000F11D649FE00DF11D929FF00D839FF00D36
:10413000749FF00D659FF00D9927729FB00DE11DE2
:10414000F91F639FB00DE11DF91FBD01CF011124BF
:104150000895A1E21A2EAA1BBB1BFD010DC0AA1FC8
:10416000BB1FEE1FFF1FA217B307E407F50720F0E0
:10417000A21BB30BE40BF50B661F771F881F991F5B
:104180001A9469F760957095809590959B01AC01A4
:10419000BD01CF01089597FB092E05260ED057FDCE
:1041A00004D0D7DF0AD0001C38F4509540953095E4
:1041B00021953F4F4F4F5F4F0895F6F790958095AB
:1041C000709561957F4F8F4F9F4F08952F923F922B
:1041D0004F925F926F927F928F929F92AF92BF9217
:1041E000CF92DF92EF92FF920F931F93CF93DF93C3
:1041F000CDB7DEB7CA1BDB0B0FB6F894DEBF0FBE20
:10420000CDBF09942A88398848885F846E847D846C
:104210008C849B84AA84B984C884DF80EE80FD806E
:104220000C811B81AA81B981CE0FD11D0FB6F894E4
:10423000DEBF0FBECDBFED010895FB01DC0102C062
:1042400001900D9241505040D8F70895DC0101C013
:104250006D9341505040E0F70895FB01DC0141505F
:10426000504048F001900D920020C9F701C01D9206
:0C42700041505040E0F70895F894FFCF53
:10427C0049414D5441534B310049414D5441534BED
:10428C00320049444C4500000000000000000000D2
:10429C0001020203030303040404040404040405DC
:1042AC0005050505050505050505050505050506B1
:1042BC000606060606060606060606060606060692
:1042CC000606060606060606060606060606060781
:1042DC000707070707070707070707070707070762
:1042EC000707070707070707070707070707070752
:1042FC000707070707070707070707070707070742
:10430C000707070707070707070707070707070830
:10431C000808080808080808080808080808080811
:10432C000808080808080808080808080808080801
:10433C0008080808080808080808080808080808F1
:10434C0008080808080808080808080808080808E1
:10435C0008080808080808080808080808080808D1
:10436C0008080808080808080808080808080808C1
:10437C0008080808080808080808080808080808B1
:10438C00080808080808080808080808080808FFAA
:02439C00FF0020
:00000001FF
